:020000040000FA
:10000000D80A00207501000095010000970100004A
:1000100000000000000000000000000000000000E0
:100020000000000000000000000000009901000036
:1000300000000000000000009B0100009D01000086
:100040009F0100009F0100009F0100009F01000030
:100050009F0100009F0100009F0100009F01000020
:100060009F01000079300000213100009F01000055
:100070009F01000079320000ED2800009F01000080
:100080009F0100009F0100009F0100009F010000F0
:100090009F0100009F010000E520000029210000D1
:1000A0009F0100009F0100009F0100009F010000D0
:1000B0009F0100009F0100009F0100009F010000C0
:1000C00000F002F800F046F80CA030C808382418F8
:1000D0002D18A246671EAB4654465D46AC4201D180
:1000E00000F038F87E460F3E0FCCB646012633426C
:1000F00000D0FB1AA246AB4633431847243A00000F
:10010000443A0000103A02D378C878C1FAD85207AE
:1001100001D330C830C101D504680C6070470000BD
:100120000023002400250026103A01D378C1FBD813
:10013000520700D330C100D50B60704710B5782945
:1001400002D100F057F810BD002010BD1FB51FBD33
:1001500010B510BD00F0D4FA1146FFF7F7FF03F019
:1001600031FB00F0ECFA03B4FFF7F2FF03BC00F040
:10017000F3FA00000D480E4901600E4901600E4976
:1001800001600E4A0E491160002101600D48804750
:100190000D480047FEE7FEE7FEE7FEE7FEE7FEE765
:1001A0000A480B49094A0B4B7047000000010050F8
:1001B00059000000160000008800000024000050D4
:1001C000A55A000075300000C1000000D8060020CC
:1001D000D80A0020D80600200FB4054910B503AA9C
:1001E000029800F061FA10BC08BC04B01847000087
:1001F0002C00002070B504460D4621461068C0460C
:10020000C0462188090502D50F4A7A4402E00E4A09
:100210007A440E3223460021243305E00607000904
:10022000360F965D5E54491C0028F7D120780023D4
:10023000000705D5702D03D0002901D0022311320B
:10024000204600F0D9F970BDEA380000F3B5044645
:10025000002081B020622046E1688847002872D0E3
:10026000252802D06268A1689AE0E168204600264D
:10027000884705460020E0610746A0612A2D0AD084
:10028000284603F08BFA002827D0B8000019303D2B
:100290000090856119E00298BA00121902C89161B4
:1002A00002902046E1688847012F054617D1E06992
:1002B00000281FDA202086431CE000980A2180696C
:1002C000484300994019303888612046E1688847E2
:1002D000054603F063FA0028EFD1012F0AD02E2D36
:1002E00008D12046E16888470546202006437F1C48
:1002F000022FC3DBA069002803DA4042A06101207D
:100300000643F00701D0102086436C2D0AD0682DDB
:1003100008D04C2D3CD06A2D38D0742D38D07A2D91
:1003200036D016E0E1682F4620468847B842054699
:100330000AD16C2F2AD001208002E16806432046B2
:100340008847054605E02FE06C2F1DD0FF200130C7
:100350000643002D28D028464138192803D801200B
:10036000C00206432035204626602946029A1646DA
:10037000FFF7E4FE002810D001280BD0F61DF0088E
:10038000C0000830029066E74020E1E78020D4E713
:100390000020D2E7361D02965DE762682846A16814
:1003A0009047206A401C55E7206AFEBD034670B5A1
:1003B00002460B439B070FD10E4CE60100E008C23A
:1003C00008C91D1B9D433542F9D0D9B21170521C8A
:1003D00000290DD01B0AF8E70B78491C1370521C3A
:1003E000002B05D00B78491C1370521C002BF3D145
:1003F00070BD0000010101010346F0B50B439B07EE
:100400002DD1244DEF01042A29D308C810C95E1B41
:100410009E43121F3E4017D0D8B2E1B2401A3106B7
:10042000014310D198B2A1B2401A310401430AD15C
:1004300018022102000A090A401A3102014302D1BE
:10044000180E210E401AF0BDA342DCD018BA21BA12
:10045000884201D90120F0BD0020C043F0BD002A30
:1004600001D10020F0BD03780C78401C491C002B02
:100470000DD0A3420BD1521E09D003780C78401C3A
:10048000491C002B03D0A34201D1521EEBD1181BF3
:10049000F0BD000001010101002203098B422CD3B1
:1004A000030A8B4211D300239C464EE003460B43C4
:1004B0003CD4002243088B4231D303098B421CD326
:1004C000030A8B4201D394463FE0C3098B4201D318
:1004D000CB01C01A524183098B4201D38B01C01A50
:1004E000524143098B4201D34B01C01A52410309C7
:1004F0008B4201D30B01C01A5241C3088B4201D376
:10050000CB00C01A524183088B4201D38B00C01A22
:10051000524143088B4201D34B00C01A5241411A49
:1005200000D201465241104670475DE0CA0F00D02C
:100530004942031000D34042534000229C46030925
:100540008B422DD3030A8B4212D3FC22890112BAAB
:10055000030A8B420CD3890192118B4208D3890183
:1005600092118B4204D389013AD0921100E089099B
:10057000C3098B4201D3CB01C01A524183098B427C
:1005800001D38B01C01A524143098B4201D34B0165
:10059000C01A524103098B4201D30B01C01A5241C8
:1005A000C3088B4201D3CB00C01A524183088B424F
:1005B00001D38B00C01A5241D9D243088B4201D3D8
:1005C0004B00C01A5241411A00D2014663465241C3
:1005D0005B10104601D34042002B00D549427047C2
:1005E00063465B1000D3404201B50020C046C046C0
:1005F00002BD704770477047FFB504460D4681B095
:10060000243000902168880604D51022E0699143C7
:10061000216000E00120A84201DD471B00E0002727
:100620000498A1697A191018081AA0612078C006E8
:1006300002D42046C046C046002608E003986268FF
:10064000A168805D9047206A401C761C2062049857
:100650008642F3DB2078C0060AD52046C046C04655
:1006600006E06268A16830209047206A401C206242
:1006700038467F1E0028F4DC07E000986268A16815
:10068000405D9047206A401C206228466D1E00286D
:10069000F3DC2046C046C0462078000602D5022082
:1006A00005B0F0BD0120FBE7084B70B50D467B445B
:1006B00000F013F80446284603F077F8002802D02B
:1006C0000020C04370BD204670BD00000131000015
:1006D00001694A1C02610878704700B58FB0029129
:1006E0000021059105490193794403911146049035
:1006F0006846FFF7ABFD0FB000BD0000E5FFFFFF50
:10070000754600F025F8AE46050069465346C00818
:10071000C000854618B020B5FFF742FD60BC002739
:100720004908B6460026C0C5C0C5C0C5C0C5C0C5BD
:10073000C0C5C0C5C0C5403D49008D46704710B515
:100740000446C046C0462046FFF70DFD10BD000020
:10075000004870477406002001491820ABBEFEE730
:1007600026000200704700001FB50C4C1ECC0394FD
:100770006C460EC4810F89006A465158084A891890
:100780004968C306DB0E01229A401143820F920092
:100790006B469A58024BD21851601FBDA83A000010
:1007A00000020050F3B589B00C46012000045D49F9
:1007B00008620998002817D10846006801210843FB
:1007C00058490860012000F0CBFA00200690564FEF
:1007D0005648874201D1022514E05348874201D18F
:1007E00004250FE002250DE04E480068042108436F
:1007F0004C490860102000F0B3FA0120C0040690B4
:10080000494F04254A48844205D84010844202D901
:100810000020079014E04748844206D840108442E4
:1008200003D90120079064000AE04348844206D8B7
:100830004010844203D303200790A40000E059E055
:100840000020C043039000200190029034E029462C
:100850003846FFF721FE05903849059888422AD985
:1008600037490598884226D2022008901EE0059E4E
:1008700008994E432F48864215D34000864212D82D
:10088000A64201D9301B00E0A01B049003990498F4
:10089000884208D204980390019508980290039822
:1008A000002800D106E00898401C089025490898C7
:1008B0008842DCD900BF6D1C212DC8D90798800360
:1008C000069908430199891E490208430299891E25
:1008D000084314490862042000F042FA0798401CBB
:1008E000019A504301463846FFF7D6FD0299484326
:1008F0000BB0F0BD099800280BD10B49069888422F
:1009000003D011480749086206E01048054908620B
:1009100002E00E4803490862042000F021FA00F0CA
:1009200065F8E5E70002005000805101001BB700A8
:1009300000C2EB0B00E1F50580F0FA02006A180036
:10094000C0E1E400010200002EC200006FD60000EA
:10095000024909680143014A1160704700020050D2
:1009600010B502F055FB0148006810BD00000020E2
:10097000FEB5002002901AA0006800901948046A91
:1009800000132040002801D00020FEBD0120C0043B
:100990002040002801D0144D00E0134D01204004F8
:1009A0002040002801D02846EFE7032080032040A4
:1009B000800B69460A5C0192E005C00D861C1F2071
:1009C00040022040400A871C019A7A431146AA0837
:1009D00072431046FFF760FD800002900298D4E752
:1009E000010202040002005000805101FEB5002007
:1009F00002901AA0006800901948046A0013204071
:100A0000002801D00020FEBD0120C00420400028A5
:100A100001D0144D00E0134D012040042040002877
:100A200001D02846EFE7032080032040800B694671
:100A30000A5C0192E005C00D861C1F204002204088
:100A4000400A871C019A7A431146AA08724310464D
:100A5000FFF722FD800002900298D4E70102020411
:100A60000002005000805101FEB5002002901AA043
:100A7000006800901948046A00132040002801D043
:100A80000020FEBD0120C0042040002801D0144DEC
:100A900000E0134D012040042040002801D02846EA
:100AA000EFE7032080032040800B69460A5C019237
:100AB000E005C00D861C1F2040022040400A871C14
:100AC000019A7A431146AA0872431046FFF7E4FCE4
:100AD000800002900298D4E7010202040002005054
:100AE00000805101FEB5002002901AA0006800901D
:100AF0001948046A00132040002801D00020FEBDE0
:100B00000120C0042040002801D0144D00E0134D06
:100B1000012040042040002801D02846EFE70320B0
:100B200080032040800B69460A5C0192E005C00DFD
:100B3000861C1F2040022040400A871C019A7A43ED
:100B40001146AA0872431046FFF7A6FC80000290E7
:100B50000298D4E701020204000200500080510113
:100B6000FEB5002002901AA0006800901948046A9F
:100B700000132040002801D00020FEBD0120C00449
:100B80002040002801D0144D00E0134D0120400406
:100B90002040002801D02846EFE7032080032040B2
:100BA000800B69460A5C0192E005C00D861C1F207F
:100BB00040022040400A871C019A7A431146AA0845
:100BC00072431046FFF768FC800002900298D4E759
:100BD00001020204000200500080510170B5044679
:100BE0002248C0681021084005462148844200D9A7
:100BF00004462048844200D204461C480068042170
:100C000008431A490860102000F0AAF81748006944
:100C10000721084315490861084680690009000159
:100C2000886108460068C007C00F002805D0610031
:100C30000020FFF7B7FD04460AE061000120C00470
:100C4000FFF7B0FD04460948C0681021084005467A
:100C50000121022000F010F8002D05D103480068A2
:100C60000421884301490860600870BD00020050FB
:100C700080F0FA0240787D0170B504460D461548B3
:100C8000C068102108400646124800680843114910
:100C90000860102000F064F80E480069C008C00029
:100CA000C01D0C49086108468069000900012843FD
:100CB000886108460069C008C0002043086102F04E
:100CC000A7F9002E05D10348006810218843014987
:100CD000086070BD00020050F7B584B00022002308
:100CE000184C2546E0CDE4680297019600950394E0
:100CF0008403240E002C0ED00403A40FA400124D74
:100D000063198403250E8405E40EA5401C68AC43DA
:100D1000069D2C431C600401640F002C10D084003D
:100D2000A40FA4006D462C59074D083D621904011B
:100D3000650FC401E40EA5401468AC430C43146075
:100D400007B0F0BD983A0000180200500349096945
:100D5000382291430143014A11617047000200505B
:100D60000146074A05E01046521E002801DC00201B
:100D700070470448C06808408842F4D10120F7E772
:100D8000804F12000002005010B5AC4800780300FC
:100D900002F0F6FC0EF10817285B6D8D9FD4E3F18D
:100DA000F0EFEEF1A648C06A012806D10020A44960
:100DB000C862A4A0FFF710FA02E002209F49087061
:100DC00039E19F484030006B012807D100209C4941
:100DD00040310863A0A0FFF7FFF902E00320974924
:100DE000087028E1A148006900280AD194484030E1
:100DF0000069002805D19EA0FFF7EEF904208F4975
:100E000008709A48406900280AD18D4840304069EE
:100E1000002805D19BA0FFF7DFF90420874908705F
:100E20009D480088401C9C490880084601889BA07A
:100E3000FFF7D2F998480088142805DD9BA0FFF73A
:100E4000CBF963207D490870F5E07D48806A012870
:100E500006D100207A49886299A0FFF7BDF905E024
:100E600000208D490880052074490870E3E074482B
:100E700040308068002805D196A0FFF7ADF9062024
:100E80006E49087084480088401C834908800846E1
:100E9000018882A0FFF7A0F97F480088142805DDAB
:100EA00091A0FFF799F9632064490870C3E0644892
:100EB000406A012806D10020614948628FA0FFF7EF
:100EC0008BF905E000207449088007205B49087011
:100ED000B1E06648006900280AD1594840300069ED
:100EE000012805D18AA0FFF777F908205349087037
:100EF0005E48406900280AD15148403040690128C5
:100F000005D188A0FFF768F908204C4908706248AD
:100F10000088401C60490880084601885FA0FFF7F0
:100F20005BF95D4800884B21C900884205DD82A03D
:100F3000FFF752F96320414908707CE04048406A5D
:100F4000002806D101203E49486280A0FFF744F9FD
:100F500002E00920394908706DE03948806A0028AC
:100F60000AD10120364988627DA0FFF735F914E0E7
:100F700050E033E012E051E03148006A012806D128
:100F800000202F4908627BA0FFF726F905E000202A
:100F9000414908800B20294908704CE0284840301E
:100FA0008068012805D178A0FFF716F90C202349A5
:100FB000087039480088401C374908800846018875
:100FC00036A0FFF709F934480088142805DD73A01E
:100FD000FFF702F96320194908702CE018484030E7
:100FE000006B002807D01648006A002803D0144878
:100FF000C06A00280AD10120114940310863104914
:101000000862C8626AA0FFF7E7F802E00D200B490A
:10101000087010E06BA0FFF7DFF80CE06EA0FFF7A0
:10102000DBF801200649403108630549C86288623F
:101030004862086200BF00BF10BD00008A000020A7
:10104000004200505365742043535F30204F6E2E92
:10105000202020200A0000005365742056616C692E
:1010600064204F6E2E2020200A00000040430050D4
:101070004C5F524551204F4E2E2020202020202012
:101080000A000000555F524551204F4E2E2020206F
:10109000202020200A0000008C0000205441436FD3
:1010A000756E74202578200A00000000544131201C
:1010B00054696D654F757421212020200A000000BD
:1010C0005365742054525F524551204F6E2E20209C
:1010D0000A0000005245414459204F4E2E20202046
:1010E000202020200A0000005441322054696D6500
:1010F0004F757421212020200A00000053657420C0
:1011000042555359204F6E2E202020200A00000007
:101110004C5F524551204F46462E20202020202053
:101120000A000000555F524551204F46462E2020B0
:10113000202020200A00000043617272696572203D
:1011400054696D654F7574210A0000005365742061
:1011500042555359204F66662E2020200A00000079
:101160005365742054525F524551204F66662E20BD
:101170000A00000053657420434F4D5054204F6EB9
:101180002E2020200A0000005245414459204F469D
:10119000462E2020202020200A0000005441332029
:1011A00054696D654F757421212020200A000000CC
:1011B00056616C696426434F4D50542643535F304B
:1011C0000A0000004538342046696E69736865641A
:1011D0002E2020200A000000416C61726D21212127
:1011E00020202020202020200A00000070B50020B0
:1011F000384E3070384B1878332801DA4C2070BDE7
:101200001D7828463038C5B25B1C002408E01878E9
:10121000304E367880192F4E30705B1C601CC4B283
:10122000AC42F4DB2B4800780011014630313929FB
:1012300001DDC81DC1B2274800780007000F024633
:101240003032392A01DDD01DC2B21878884201D06F
:101250005320D4E75B1C1878904201D05320CEE78E
:101260001D48417808463038C1B2092901DDC81F40
:10127000C1B21948827810463038C2B2092A01DD5D
:10128000D01FC2B208018018C4B21448007884424A
:1012900001D04E20B3E71048C078114E30700E4890
:1012A000007970700C484079B0700B4880790D4E11
:1012B00030700948C07970700748007AB0700648ED
:1012C000407AF0700448807A30710120064E307008
:1012D00000BF94E7C2000020D4040020C300002017
:1012E000C4000020C7000020CC0000200349088073
:1012F00000BF024909880029FBD1704788000020FF
:101300000349088000BF024909880029FBD17047C2
:101310007A00002010B51D480069002803D01B4842
:101320004069002818D11A480078002827D10120E8
:101330001749087015480069002803D115A0FEF769
:101340004BFF02E018A0FEF747FF00201B49088072
:1013500001201B49087012E00D48007801280ED1C9
:1013600000200B49087017A0FEF736FF01201A492C
:10137000086319494039C8628862486208620448B3
:101380000078012801D1FFF7FFFC10BD4043005059
:101390008E000020453834204C6F6164204F6E2E43
:1013A000202020200A00000045383420556E4C6F64
:1013B0006164204F6E2E20200A0000008C00002067
:1013C0008A00002045383420546573742053746FAC
:1013D000702E20200A0000004042005010B5044644
:1013E000FF2201320021094801F068F901F010F8EC
:1013F0009420FFF77BFF204600F00AF8FF2201321D
:101400000021024801F089F910BD000000001440DD
:1014100010B504460021012001F0F2F92D20FFF75C
:1014200065FF2088C107C90F032001F0E9F92D20CD
:10143000FFF75CFF20888007C10F032001F0E0F96F
:101440002D20FFF753FF20884007C10F032001F034
:10145000D7F92D20FFF74AFF20880007C10F03208E
:1014600001F0CEF92D20FFF741FF2088C006C10F03
:10147000032001F0C5F92D20FFF738FF20888006F2
:10148000C10F032001F0BCF92D20FFF72FFF2088AA
:101490004006C10F032001F0B3F92D20FFF726FF0E
:1014A00020880006C10F032001F0AAF92D20FFF7C4
:1014B0001DFF2088C005C10F032001F0A1F92D20D8
:1014C000FFF714FF0021022001F09AF910BD00007F
:1014D00030B501460B12CCB20020144D287000220A
:1014E00004E00020124DA854501CC2B2082AF8DDB6
:1014F0000120104DA8600320286228460362046280
:10150000002028622846006801252843094D2860EC
:101510000520094D288000BF074800880028FBD11E
:10152000044DA8600248C07830BD0000D5000020FE
:1015300014060020000003408000002070B5002445
:101540000212C3B2002A02D1002B00D100BF012534
:10155000194EB5600625356235462D68012635439E
:10156000154E35600125154E358000BF134D2D8871
:10157000002DFBD1104EB5600125B5600225356206
:1015800035462A622B6229622D68012635430A4EB0
:1015900035600525094E358000BF084D2D88002D8A
:1015A000FBD1054EB5600525044E358000BF034DC7
:1015B0002D88002DFBD170BD00000340800000206D
:1015C00010B5002406E02046FFF782FF13490855B6
:1015D000601CC4B2102CF6DB104800790F49C978A2
:1015E000090240180D498978090440180C4908601F
:1015F0000A4880790949497909024018094908606F
:101600000648007A0549C979090240180649086068
:101610000248407A0549086010BD0000D80000204B
:1016200034000020380000203C0000204000002052
:10163000F0B589B001200090D748007841B26846E3
:101640000175D548407841B268464175D2488078E6
:1016500041B268468175D148007841B2684601734D
:10166000CE48407841B268464173CC48807841B258
:1016700068468173C948C07841B26846C173C7489B
:10168000007941B268460174C548007801287DD1CF
:10169000C4A108A8FEF78AFE032208A905A8FEF740
:1016A000ABFE002873D10190BF48C47ABF480088C0
:1016B000400840000121A1430843BC490880084676
:1016C000008802218843E143491049000222114069
:1016D0000843B64908800846008804218843E1434E
:1016E00089108900042211400843B0490880084647
:1016F000008808218843E143C910C900082211402D
:101700000843AA4908800846008810218843E1431D
:1017100009110901102211400843A4490880084614
:10172000008820218843E1434911490120221140CA
:1017300008439E4908800846008840218843E143C9
:1017400089118901402211400843984908800846C0
:10175000008880218843E143C911C90180221140DA
:101760000843924908800A461288D207D20F0B46D6
:101770001B889B07DB0FD2180B461B885B07DB0F10
:10178000D2180B461B881B07DB0F01E000E164E069
:10179000D2180B461B88DB06DB0FD2180B461B88C2
:1017A0009B06DB0FD2180B461B885B06DB0FD2189B
:1017B0000B461B881B06DB0FD018C20F12185210E5
:1017C0005200821A1202FF2301331A401146774A4F
:1017D00012889A430A43754B1A8018460088C0073E
:1017E000C00FC0437249C861184600888007C00F07
:1017F000C0438863184600884007C00FC043C863D1
:10180000184600880007C00FC0436949C039C86343
:1018100018460088C006C00FC04388631846008879
:101820008006C00FC0434863184600884006C00FBA
:10183000C0435F498039C863184600880006C00F5E
:10184000C0435B494039C86101205949C039086229
:1018500001F0FAF9574801F037F857A108A8FEF748
:10186000A5FD032208A905A8FEF7C6FD002873D12F
:1018700052A106A8FEF79AFD052206A903A8FEF7C5
:10188000BBFD00280AD101204949C0390862012165
:10189000002001F071FA474801F016F849A106A8A6
:1018A000FEF784FD052206A903A8FEF7A5FD002882
:1018B00045D1FFF785FE4548007B4449C97A0902B6
:1018C00040184249897A0904471841493846FEF7C9
:1018D000E3FD3548C07A081A3349097B884208D2AB
:1018E0003B493846FEF7D8FD2F48C07A081A0290C7
:1018F00002E02D48007B02903548874205D238012E
:101900002949097B401A85B208E031493846FEF77B
:10191000C3FD2548007B081A0005050C002D02D1E7
:1019200028460A3085B201202149C0390862029A4E
:10193000D1B2A8B201F020FA1E4800F0C5FF25A1DF
:1019400006A8FEF733FD052206A903A8FEF754FDFD
:1019500000280ED1002608E00BE030460B3012497B
:10196000085C1A498855701C46B2102EF5DB00F051
:1019700037F91AA108A8FEF719FD032208A905A83E
:10198000FEF73AFD002805D101201549087001E055
:101990000348007809B0F0BDC4000020C700002053
:1019A000CD00002053455400D40400205C000020EA
:1019B000C0420050000015404C4F4700524D484473
:1019C00030000000524D4C4F47000000D80000206E
:1019D000FF030000574D48443000000041434B00D6
:1019E000CE00002070B5034600200FE001248440A3
:1019F0000C40002C09D01C6846000325B540AC43C0
:101A000046001546B5402C431C60401C1028EDD301
:101A100070BD0000F0B5054600260020234908806F
:101A2000234800682349096888423DD000202249A4
:101A30000870012000F048F8044620480470012C8A
:101A400001D1012000E00020022C01D1012100E0A1
:101A500000210843002827D0FF27194805801DE0F2
:101A60001348006813490968884217D01448058054
:101A7000012000F029F8044612480C490988445412
:101A8000002E02D120462D38C7B208480088401CDD
:101A900006490880781EC7B2701CC6B20848008884
:101AA000002801D0002FDBD13046F0BDC00000205F
:101AB00094000020AC000020CC000020CD000020CD
:101AC00082000020D404002000B501460B0001F084
:101AD00057FE06041628394A5B6C354A126810789E
:101AE000334A1268521C324B1A601A461368314A44
:101AF000934203D1FF3A013A2D4B1A6055E02E4A2A
:101B0000126810782C4A1268521C2B4B1A601A4625
:101B100013682A4A934203D1FF3A013A264B1A60CE
:101B200043E0274A12681078254A1268521C244B59
:101B30001A601A461368234A934202D1803A204B16
:101B40001A6032E0204A126810781F4A1268521C4C
:101B50001D4B1A601A4613681C4A934202D1803A00
:101B6000194B1A6021E01A4A12681078184A126854
:101B7000521C174B1A601A461368164A934202D138
:101B8000803A134B1A6010E0134A12681078124A18
:101B90001268521C104B1A601A4613680F4A93427F
:101BA00002D1403A0C4B1A6000BF00BF00BD0000DC
:101BB000A800002014020020AC0000201403002024
:101BC000B000002094030020B40000201404002082
:101BD000B800002094040020BC000020D4040020A1
:101BE00010B5002406E0054A115D2046FFF7A6FC6B
:101BF000601CC4B2102CF6DB10BD0000D800002021
:101C000001460A46CB171B0F9B181B113033D8B265
:101C1000392801DDC21DD0B2704701460A46CB17F4
:101C20001B0F9B181B05180E02018A1A3032D0B206
:101C3000392801DDC21DD0B27047000001200849DB
:101C4000086307494039C8620549C8630549086205
:101C50000349403988624862086201490862704756
:101C6000404200504043005001200849C861886349
:101C7000C8630649C039C86388634863034980392B
:101C8000C86302494039C86170470000C042005033
:101C900010B50122032189021248FFF7A3FE012299
:101CA000114910484030FFF79DFE012240210D48A8
:101CB000C030FFF797FE012230210C48FFF792FE5B
:101CC0000020C0430A49886109498039C86088609A
:101CD00048600649C0318862C862054980310861A0
:101CE000486110BD004000500E10000040410050FF
:101CF000C042005010B5B148C068012874D0B04847
:101D00000078030001F03CFD0B220723476584A106
:101D1000C4F5F3F22200A9484030C068002804D07E
:101D2000A64840308068002810D1A448C03080699F
:101D300000280BD1A120A3498870A220C8700220DE
:101D40009F4908707D2000019F49088033E19E482B
:101D50000088002806DCF3209A4908710A20984977
:101D6000087017E09548C030C069002804D0934837
:101D7000C030806B00280DD193480088002809DD11
:101D8000A320904908717D2000018F49088003201D
:101D90008B4908700FE18C480088002806DCF4208D
:101DA000884948710A208649087011E08348806A92
:101DB00000280DD184480088002809DDA42081492D
:101DC00048717D2000018049088004207C4908700A
:101DD000F1E07D480088002807DCF520794988710A
:101DE0000A207749087012E0E6E07448C06B0028CA
:101DF0000DD175480088002809DDA520714988713A
:101E00007D2000017049088005206D490870D2E0EE
:101E10006D480088002806DCF6206A49C8710A204F
:101E20006749087010E06548C06A00280CD1664810
:101E30000088002808DDA6206249C871634862490D
:101E4000088006205E490870B5E05F4800880028D9
:101E500006DCF7205B4908720A205949087016E031
:101E60005648C030C069012811D15448C030806B39
:101E700001280CD154480088002808DDA7205149CA
:101E8000087252485049088007204D49087092E076
:101E90004D48008800280ADCF8204A494872F92099
:101EA0008872FA20C8720A20454908701DE043482C
:101EB000C06A012819D14148806A012815D14448D7
:101EC0000069002811D14048008800280DDDA820B5
:101ED0003C494872A9208872AA20C8727D2000015E
:101EE0003949088008203649087064E041E01EE066
:101EF000FFE735480088002806DCFB2031490873DD
:101F00000A202F49087011E02C48C06B01280DD120
:101F10002D480088002809DDAB202A4908737D2060
:101F200000012949088009202549087043E0264816
:101F3000008800280ADCFC2022494873FD208873B1
:101F4000FE20C8730A201E49087011E0204800696D
:101F500001280DD11C480088002809DDAC20194952
:101F60004873AD208873AE20C8730A2014490870E6
:101F700021E0184800681849884203D30120154918
:101F8000086004E013480068401C124908601348C8
:101F900000681149884203D301201049086004E019
:101FA0000E480068401C0D49086000F027F8012029
:101FB0000349087000BF00BF10BD00000042005080
:101FC0004A000020E80000208600002060EA0000AF
:101FD0004043005034000020FFFFFF004400002079
:101FE00010B5FFF7EDFA0020024908600120024910
:101FF000087010BD440000204A000020F8B52F48AA
:1020000000682F49884204D22C4800680005050C5E
:1020100005E02B4929480068FEF73EFA0D01002D26
:1020200002D128460A3085B200240AE0254A115D13
:102030002A1990B2FFF782FA002022490855601C45
:10204000C4B2102CF2DB20480068C6B21E480068FB
:102050000004070E1C4800680002000E00900220D9
:102060000099FFF76BFA39460320FFF767FA31460C
:102070000420FFF763FA11480068C6B20F480068F1
:102080000004070E0D4800680002000E00900A20B0
:102090000099FFF753FA39460B20FFF74FFA314604
:1020A0000C20FFF74BFAFFF78BFA0848007800285E
:1020B00002D1012005490870F8BD0000440000204D
:1020C000FF030000E800002034000020D8000020BA
:1020D000C206D20E01219140014A116070470000F2
:1020E00000E100E010B501210D4800F04FFB002891
:1020F00004D00C480078401E0A49087000210848A6
:1021000000F09FF907480078002807D10121044812
:1021100000F060FB0021024800F0E6FA10BD00006C
:10212000000004405E00002010B50021AF4800F020
:1021300011FB02210840022878D1C2010021AB48DE
:1021400000F078F9AA48006901210904081AA94990
:102150000880A9480078401CA7490870A548008855
:1021600032280BDDA34800885A2807DAA3480078F4
:10217000401CA24908700020A14908709D480088B1
:102180005A280DDD9B480088FF212D31884207DA4F
:102190009B480078401C9A490870002097490870B5
:1021A00094480088FF215F3188425FDD93480078C2
:1021B000082811DB934800884005C00F00280BD188
:1021C0009048008801218902884340188D49088081
:1021D00000208D49087016E088480078032812DB3B
:1021E000884800884005C00F00280CD0854800882A
:1021F0008005C00F002806D1824800880121C9024D
:102200008843804908807E48007808280FDB7D4895
:1022100000888005C00F002809D17A480088012174
:102220004902884340187749088018E09CE07448C8
:102230000078032813DB734800884005C00F00288E
:102240000DD0704800888005C00F002807D16D4868
:1022500000880121C902884340186A49088000208B
:1022600066490870664908706349087065480088C7
:102270004005C00F002877D05E480088FF215F31FD
:10228000884271DD60480078030001F079FA0A069F
:1022900007132231404F5E6E7D978FE059490988C0
:1022A0000905C80F57490988490849000143554A9B
:1022B000118083E0534909880905C90F49000222AA
:1022C000114008464F490988914301434D4A118006
:1022D00074E04C4909880905C90F8900042211409E
:1022E00008464849098891430143464A118065E000
:1022F000444909880905C90FC90008221140084648
:1023000040490988914301433E4A118056E03D49C6
:1023100009880905C90F09011022114008463949E9
:10232000098891430143374A118047E035490988BC
:102330000905C90F49012022114008463149098881
:10234000914301432F4A118038E02E49098809053D
:10235000C90F89014022114008462A490988914342
:102360000143284A118029E03EE0264909880905F1
:10237000C90FC901802211400846224909889143AA
:102380000143204A118019E01E4909880905C90F37
:102390000902FF220132114008461A490988914377
:1023A0000143184A118001F08BF81849088008464B
:1023B0000088002801D100F02BF800BF00BF1148B1
:1023C00000888005C00F002802D000F021F80BE043
:1023D0000D480078092805DA0B480078401C0A49A6
:1023E000087001E000F014F810BD00000000144077
:1023F0000002144072000020700000206C000020D9
:102400006D0000206A0000206E0000207600002091
:102410000020044908700449087004490870044900
:10242000088070476C0000206D0000206E000020C6
:102430006A00002010B513468B409524A400235059
:1024400010BD4A085300FF2201329A40E8231A5077
:1024500070470000FFB583B004460E4601253048A2
:1024600000903048844205D12F48406B2904084031
:10247000029005E02C48406B01214904084002907D
:102480000298002803D1FEF7EFFA074603E000F0B8
:10249000BFFD264807687D21C9003846FDF7FCFFCF
:1024A000074601251BE02249694308463946FDF7E6
:1024B000F3FF01900599019888420DD20120000395
:1024C000854200D10FE0681C1949414301987843C7
:1024D000814200D807E000E005E0681C85B20120D9
:1024E00000038542DFDD00BF681E81B20D46700823
:1024F00082002046143081506068720003219140B0
:102500008843720001219140084360607108CA004D
:102510002146303100988850019807B0F0BD000086
:10252000FFFF0000000004400002005000000020F7
:1025300040420F00FFB585B004460D4601265948BC
:1025400002905948844205D15848406B31040840F4
:10255000049005E05548406B01214904084004906F
:102560000498002803D1FEF77FFA039004E000F0FE
:102570004FFD4F4800680390012612E00799039829
:10258000FDF78AFF31460190FDF786FF07460121DE
:1025900009048F4200D902E0B8B2029004E0701C36
:1025A00086B244488642E9DB00BF701C029A504361
:1025B00001460398FDF770FF0746701E81B20E4674
:1025C0006808820020461430815060686A00032148
:1025D000914088436A00012191400843606002985D
:1025E000401E81B26808C2002046303002918150FE
:1025F000089800282ED0029A521C08995143084688
:102600006421FDF749FF401EAA0021465031885041
:10261000B02000596A00284991408843B0210851F0
:10262000B02000596900103101228A401043B021C6
:102630000851B42001596A001F4890408143B420DA
:10264000015100596900103102228A401043B4211F
:10265000085124E00021AA00204650308150B020CB
:1026600001596A00144890408143B020015100593B
:10267000690001228A401043B0210851B42000595A
:102680006A000D4991408843B4210851B420005993
:102690006900103102228A401043B42108513846A3
:1026A00009B0F0BDFFFF0000000004400002005030
:1026B00000000020FF0F00000300030010B52523D9
:1026C0001B011B5814468C40A3432524240123508E
:1026D00010BD0000E0221258024B8B409A43E023C9
:1026E0001A5070470000010110B5E02212584B0843
:1026F0005C00FF230133A3409A43E0231A5010BD2E
:102700000122520212580A4301235B021A501A1D79
:1027100012580A431B1D1A50704710B525231B0180
:102720001B5814468C40234325242401235010BDFC
:10273000D82212580A43D8231A50704730B5E023E4
:102740001B584C086500FF240134AC402343E024AF
:10275000235030BD10B50246952080008058FF23DD
:1027600001338B401840002801D0012000E00020F8
:10277000400095239B009B5801248C402340002B54
:1027800001D0012300E00023184310BD10B502461C
:10279000E82080584B085C00FF230133A340184019
:1027A000002801D0012010BD0020FCE730B5024612
:1027B00000200CE0012383400B40002B06D0136A5D
:1027C000440865000124AC4023431362401C0628E2
:1027D000F0D330BD30B5024600200DE00123834028
:1027E0000B40002B07D0002543085B0018246343EF
:1027F00014463034E550401C0628EFD330BD0000AD
:1028000070B505460C46012D06D0022D0ED0032DC5
:1028100017D0042D33D128E00B2025490870254816
:10282000254908600A202549086028E00B20204936
:1028300008704B20C001204908600A201F49086029
:102840001DE006201A490870002C06D119481A49C3
:1028500008600A201949086006E04B20C0011649AB
:1028600008600A201549086009E001201049087035
:1028700013481149086064201049086000BF00BF78
:102880000E4803680C48026800210E48FFF752FE0C
:10289000002211460B48FFF751FF01210948FFF7BD
:1028A00085FF00BF024800780028FBD170BD000002
:1028B0005E0000204C360000600000206400002014
:1028C000C40900000000044010B5044600BFA06920
:1028D0000121890508400028F9D00220FEF710FDEB
:1028E00000200149086210BD0042005010B509E007
:1028F00016490969CAB216490878411C144B197067
:1029000014490A5411484030406801210906084022
:10291000000E0028ECD020210C4800F061F80028BF
:1029200013D009E009490969CAB209490878411C6C
:10293000074B197007490A54044840304068012188
:1029400009060840000E0028ECD010BD000003402E
:10295000D50000201406002010B5036C772424064F
:10296000A3430C0723431406234303640368012491
:1029700064052343036010BDCA07D20F002A04D0A8
:10298000026801235B041A43026002220A40022A01
:1029900004D1C26B01239B021A43C26304220A4082
:1029A000042A03D1026C08231A43026408220A4055
:1029B000082A03D1026C04231A43026410220A403D
:1029C000102A03D1026C40231A43026420220A40D9
:1029D000202A04D1026C01235B051A43026470476C
:1029E00010B502460020CB07DB0F002B07D0136881
:1029F000012424042340002B01D001231843022387
:102A00000B40002B07D0D36B0124E4022340002BA2
:102A100001D00223184304230B40002B06D0536C33
:102A200010242340002B01D00423184308230B401B
:102A3000002B06D0536CDB07DB0F002B01D00823E3
:102A4000184310230B40002B06D0536C0424234062
:102A5000002B01D01023184320230B40002B07D05C
:102A6000536C012424052340002B01D0202318435C
:102A700010BD000008B5002210211A48FEF72CF9FD
:102A80001848FDF771FE05200007806B0009000162
:102A90000521090788630846806B0F21084305213B
:102AA00009078863104800690F49086108460069F2
:102AB00008610E4808230422002100900C4800F011
:102AC0001BF8012205210A48FFF746FF2821084884
:102AD000FFF752FF0E2001218140064A116000BF1E
:102AE00008BD00000C0040524000005080841E00D1
:102AF0000000034000E100E0FFB583B004460C9EF7
:102B000000270698202801D1002006900698C000D2
:102B100004990843059908432060E06B0121C90727
:102B20000843E063FDF71CFF02900498002863D17E
:102B3000A0603848406910210840102801D1029F48
:102B400002E0FEF70DF80746029886420BD33148A3
:102B500040691021884310302E4948610020606090
:102B6000029807B0F0BDBE4203D300206060384633
:102B7000F7E7002E0AD1E06B40004008E063606890
:102B8000000A0002FF306060780AEAE70A21794310
:102B900008463146FDF780FC401D0A210190FDF7F3
:102BA0007BFC451EFF2D1DD9E06B40004008E06313
:102BB00071000A227A431046FDF76EFC401D0A217F
:102BC0000190FDF769FC451EFF2D00D9FF256068C7
:102BD000000A000228436060681C41003846FDF787
:102BE0005BFCBEE76068000A000228436060691C65
:102BF0003846FDF751FCB4E71020A0600548406955
:102C00001021884310300349486100206060029819
:102C1000A7E7000000020050010E052212078918E4
:102C20008968012282401143020E05231B07D21836
:102C30009160010E1A4689188A68012181408A43F1
:102C4000010EC9188A607047F8B500273B26022498
:102C50002146374800F01CFC3146354800F018FC8E
:102C6000002534480078FEF7CBFF04462146304863
:102C700000F00EFC2819C5B22E480078FEF7CDFFF3
:102C8000044621462A4800F003FC2819C5B2412415
:102C90002146274800F0FCFB2819C5B243242146F1
:102CA000234800F0F5FB2819C5B24B2421462048E3
:102CB00000F0EEFB2819C5B2532421461C4800F051
:102CC000E7FB2819C5B245242146194800F0E0FB6E
:102CD0002819C5B254242146154800F0D9FB2819FB
:102CE000C5B244242146124800F0D2FB2819C5B2CF
:102CF000492421460E4800F0CBFB2819C5B20D240B
:102D000021460B4800F0C4FB2819C5B22846FEF73F
:102D100077FF01460090064800F0BAFB2846FEF710
:102D20007CFF01460090024800F0B2FBF8BD0000B5
:102D300000001540C300002000B50346184600F00F
:102D400001F800BD00BF0B4989690122D20511407D
:102D50000029F8D1074908600A280AD100BF0549AF
:102D600089690122D20511400029F8D10D21014ABB
:102D70001160704700001540F3B5D3B0002612E093
:102D800000270CE032015399891AC91988B2FEF75D
:102D90009FFB310102AA8918C855781CC7B2102FB1
:102DA000F0DB701CC6B254988642E9DB54980001EF
:102DB0003A30C0B2529005242146424800F068FBE8
:102DC0004048529900F064FB00253F480078FEF728
:102DD00017FF044621463B4800F05AFB2819C5B2AC
:102DE00039480078FEF719FF04462146354800F0BF
:102DF0004FFB2819C5B241242146324800F048FB58
:102E00002819C5B2432421462E4800F041FB281959
:102E1000C5B24B2421462B4800F03AFB2819C5B215
:102E20002A4804782146274800F032FB2819C5B209
:102E3000264844782146234800F02AFB2819C5B2C9
:102E40002248847821461F4800F022FB2819C5B289
:102E50001E48C47821461B4800F01AFB2819C5B249
:102E60001A4804792146174800F012FB2819C5B208
:102E7000002611E000270BE0300102A94018C45DD4
:102E80002146104800F004FB2819C5B2781CC7B2CF
:102E9000102FF1DB701CC6B254988642EADB28463C
:102EA000FEF7AEFE01460190064800F0F1FA284612
:102EB000FEF7B3FE01460190024800F0E9FA55B072
:102EC000F0BD000000001540C3000020C700002036
:102ED000F8B500264A484069C001304348490969AD
:102EE000890108434749C96A490108434549896A34
:102EF00009010843434940314968C9000843414931
:102F000040318968890008433E494031C968490019
:102F100008433B4980398969084306463B27022418
:102F20002146394800F0B4FA3946374800F0B0FA83
:102F3000002536480078FEF763FE044621463248F5
:102F400000F0A6FA2819C5B230480078FEF765FEF1
:102F5000044621462C4800F09BFA2819C5B2532498
:102F60002146294800F094FA2819C5B24524214683
:102F7000254800F08DFA2819C5B25424214622486C
:102F800000F086FA2819C5B2492421461E4800F0EF
:102F90007FFA2819C5B24F2421461B4800F078FA61
:102FA0002819C5B253242146174800F071FA281990
:102FB000C5B254242146144800F06AFA2819C5B253
:102FC00053242146104800F063FA2819C5B2F4B220
:102FD00021460D4800F05CFA2819C5B22846FEF7D4
:102FE0000FFE01460090084800F052FA2846FEF70E
:102FF00014FE01460090044800F04AFAF8BD0000B3
:10300000404300500042005000001540C300002023
:1030100070B5FDF7ADFC114908601148006945071E
:103020006D0F022D03D0A8000E490C5801E00B488B
:1030300004680B4880690007000F461C3146204693
:10304000FDF72AFA084908600849074800684A104D
:103050008018FDF721FA0649086070BD08000020BD
:10306000000200500C0000200000002040420F0031
:103070000400002070470000012021498862214897
:103080000088002804DD1F480088401E1D49088074
:103090001D480088002804DD1B480088401E1A498E
:1030A00008801A480088002804DD18480088401E5F
:1030B0001649088016480088002804DD1448008856
:1030C000401E1349088013480088002804DD114879
:1030D0000088401E0F4908800F480088002804DD42
:1030E0000D480088401E0C4908800C4800880028C4
:1030F00004DD0A480088401E084908807047000027
:10310000000001407A0000207C0000207E000020AA
:103110008000002082000020840000208600002023
:1031200001200649886006480088002804DD04481C
:103130000088401E024908807047000000001140CE
:1031400088000020214840690721090308431F49DE
:10315000486108468068082108431C4988601C486B
:10316000006A890408431A4908620846006A000A8E
:10317000000208620846006A0B21084314490862ED
:103180007D20000148620846006A4903084310494F
:103190000862012088620920012181400D4A1160E6
:1031A00000BF0B48006A01218906084308490862EC
:1031B0000846006A89030843054908620846006A10
:1031C00001210904084302490862704700020050C7
:1031D0000000014000E100E02448406907210904A3
:1031E00088432249486108464069090208431F494B
:1031F000486108468068102108431C4988601C48C3
:103200000068890408431A49086008460068000AF3
:103210000002086008460068052108431449086058
:103220005020486008460068490308431049086078
:10323000012088600A20012181400E4A116000BFF0
:103240000B480068012189060843094908600846BF
:1032500000688903084306490860084600680121A0
:10326000090408430249086070470000000200504A
:103270000000114000E100E0FF20134AD169D2694B
:10328000431C1A40002A1BD013E00F4A1268D0B228
:103290000E4A126810700D4A1268521C0B4B1A60CD
:1032A0001A4613680A4A934203D1FF3A013A074B80
:1032B0001A60054A926901239B031A40002AE4D050
:1032C000014AD269704700000000154094000020B8
:1032D0001403002070B504460D4660682843606002
:1032E0001348844203D10C20FEF7F2FE1EE0114881
:1032F000844203D10D20FEF7EBFE17E00E48844216
:1033000003D10C20FEF7E4FE10E00C48844203D108
:103310000F20FEF7DDFE09E00948844203D11020AA
:10332000FEF7D6FE02E01120FEF7D2FE70BD0000CF
:1033300000000540000015400040154000400540D9
:103340000080054010B51A48FDF70EFA002211461C
:103350001748FDF7C1FC05200007406B302188436A
:103360000521090748630846406B302108430521C1
:10337000090748630F48FFF74FFCE12149020E4857
:1033800000F02AF801210C48FFF7A4FF0D200121CD
:1033900081400A4A116000BF09480A4908600A4989
:1033A00008600A480A4908600A49086010BD000020
:1033B000113D8057110000040000154000E100E0BD
:1033C0001401002090000020A8000020140200201A
:1033D00094000020AC000020F0B587B004460D46F4
:1033E000274801460EC9C06803AE0EC606900020ED
:1033F000029024484069032109060840060E21482E
:1034000080690F2109020840070A00202063032079
:10341000E060A0681C490840A060012E04D1FDF7BF
:1034200061FBB10003AA5050002D26D0B10003AAC1
:103430005058791CFDF730F869084018294601906A
:10344000FDF72AF8801E02901049029888420FD991
:10345000B10003AA5058791CFDF71EF8E900401886
:1034600029460190FDF718F80009801E606204E00B
:103470000321090702980843606207B0F0BD00000D
:10348000C83A0000000200500FFFF0FFFFFF0000ED
:1034900010B50A46002105E0491C0123DB079942CB
:1034A00000D905E083690124E4052340002BF3D112
:1034B00000BF0123DB07994200D2026010BD00006B
:1034C00008B545490988C907C90F434A12889207B8
:1034D000D20F8918404A12885207D20F89183E4AE3
:1034E00012881207D20F89183B4A1288D206D20FCF
:1034F0008918394A12889206D20F8918364A1288DA
:103500005206D20F8918344A12881206D20F881830
:10351000C10F091849104900411A2F4A1288D205D3
:10352000D20F914201D1012200E0002200926946AF
:103530000878002843D028480088C007C00FC0433F
:1035400026498861244800888007C00FC04323496A
:103550008039C860204800884007C00FC043886099
:103560001D4800880007C00FC04348601A48008803
:10357000C006C00FC0431949C03988621648008888
:103580008006C00FC043C862134800884006C00FC1
:10359000C0431249803108610F4800880006C00FFF
:1035A000C043486101200E4908700C488038006B08
:1035B00001280DD0012009498039086308E0074837
:1035C0008038006B002803D000200449803908634C
:1035D0006846007808BD00006A000020C042005024
:1035E000CE00002010B500237D22D20019461548D8
:1035F000FEF730FF01211348FFF7D8F801211148E9
:10360000FFF77EF8104840680121090608430E497B
:103610004860084640680121090408430A49486097
:103620008A1500210748FFF778F81720012181400B
:10363000064A116000BF00BF0248803000690028C0
:10364000FAD010BD000014400002144000E100E078
:1036500010B51448FDF788F80022012149041148EB
:10366000FDF73AFB1048FFF7D7FA05200007006B7B
:10367000042188430521090708630846006B0421DB
:1036800008430521090708630848006A4021884368
:10369000064908620846006A402108430349086257
:1036A00010BD0000110010B31100000840000050D0
:1036B00010B505200007006B01210903884305218F
:1036C000090708630846006B012109030843052127
:1036D000090708631548406AFF21013188431349EF
:1036E00048626423124A00211248FEF723FF012199
:1036F0001048FFF71DF800210E48FEF7F5FF0021E6
:103700000C48FEF7E7FF1620012181400A4A1160AC
:1037100000BF0848C0304069012108430549C03155
:10372000486101210348FFF741F810BD40000050F7
:10373000C83200000000044000E100E010B50120A4
:10374000FDF706F90120FDF70BFB0A48FDF746FAE5
:103750001820FDF7FBFA0848FDF706F8002211468D
:103760000548FDF7B9FA0548FFF756FAFFF750FC90
:1037700010BD000080F0FA02100000B31000000835
:1037800030B47446641E2578641CAB4204D3635D78
:103790005B00E31830BC18471D46F8E730380A28AC
:1037A00001D2012070470020704701460020C0432D
:1037B000704730B504460D462046FFF7BDFA204657
:1037C00030BD0000002500BF06E05920A549086073
:1037D0001620086088200860A24800680128F4D1FB
:1037E00000BFFFF7ABFFFFF7ADFCFFF7F5FCFFF7FE
:1037F0005FFFFFF72DFFFFF7A5FDFFF73BF900BFC8
:1038000000209849086000BFFFF7ECFE964800686A
:10381000002802D1FEF712FA03E0FEF725FAFEF7C0
:1038200037FA0120904908610020C8600846C06846
:10383000012802D064208D4908808D48FFF744F8A4
:1038400001208C49087000208B4908708649C031DE
:10385000C8618863C8638449C863886348638249D0
:103860004031C86380498031C8617F49C031886177
:103870007D494031C860886048607B498862C86281
:103880007E4908614861FF20F530FDF739FD0120D0
:103890007A498039C8618863C8637349C86388639B
:1038A000486371494031C8636F498031C861FEF790
:1038B00097FBD5E01420FEF7ADF80446002C06D0A7
:1038C000FDF794FC0546012D01D1FDF7B1FE6648D8
:1038D000006800280AD16A480088002805D1FDF751
:1038E00019FDFF20913066490880A8E05E48C06954
:1038F00000287BD05C48C068012856D16148008808
:10390000002817D15C48007800280AD001205649C9
:103910000862FFF7DDFA0020574908705448FEF7A7
:10392000D3FF5948FDF75AFDFEF7B2F900204E4982
:103930004031086344205549088031E051480088EF
:10394000002828D01420FEF765F80446002C06D085
:10395000FDF74CFC0546012D01D1FDF769FE4648F7
:10396000007800280AD001203F490862FFF7B0FA2A
:103970000020414908703E48FEF7A6FF002041495B
:1039800008804148FDF72AFD1420404908800120A5
:103990003549403108633448C069002800D103E04C
:1039A0003A4800880028C9D149E0364800880028F4
:1039B0001DD00020334908802F48007800280AD005
:1039C000012029490862FFF783FA00202A4908707C
:1039D0002748FEF779FF2C48FDF700FD64202349B6
:1039E0000880012020494031086328E01EE01F487C
:1039F0000088002823D1FEF70BFD64201B490880B6
:103A00000020194940310863FEF742F91A4800784E
:103A1000002814D0012014490862FFF759FA002049
:103A2000154908701248FEF74FFF08E00E48403075
:103A3000006B002803D000200B4940310863144874
:103A40000088002806D101200B490870FF20F530BE
:103A50000F4908800F480078002801D0FEF74AF986
:103A600028E70000000100500042005080000020C4
:103A700000001540C3000020CE000020404300504D
:103A80007E000020760000205C0000207C000020EA
:103A900084000020D8000020000000000400000086
:103AA0000C000000240000000000000004000000E2
:103AB0002C000000000000000000000004000000D6
:103AC0002C000000000000000080510100000000F8
:103AD0000000000000805101008051010000000042
:103AE0000000000000805101008051010000000032
:103AF0000000000000805101303132333435363758
:103B00003839414243444546403058003031323321
:103B10003435363738396162636465664030780021
:103B2000403B000000000020D8000000040100001D
:103B3000183C0000D8000020000A0000200100000E
:103B400080F0FA023200000080F0FA020080510199
:103B50000000000080F0FA021027000000000000C2
:103B60000000000000000000008051010000000083
:103B70000000000000000000000000000000000045
:103B8000000000000000000000000000020202022D
:103B9000023C3C3C0000000000000000000000006F
:103BA0000000000000000000000000000000000015
:103BB0000000000000000000000000000000000005
:103BC00000000000000000000000000000000000F5
:103BD00000000000000000000000000000000000E5
:103BE00000000000000000000000000000000000D5
:103BF00000000000000000000000000000000000C5
:103C000000000000000000000000000000000000B4
:083C10000000000000000000AC
:040000050000017581
:00000001FF
