:020000040000FA
:10000000C804002075010000950100009701000060
:1000100000000000000000000000000000000000E0
:100020000000000000000000000000009901000036
:1000300000000000000000009B0100009D01000086
:100040009F0100009F0100009F0100009F01000030
:100050009F0100009F0100009F0100009F01000020
:100060009F010000591B0000BD1B00009F01000004
:100070009F0100009F0100009F0100009F01000000
:100080009F0100009F0100009F0100009F010000F0
:100090009F0100009F0100009D120000E11200007E
:1000A0009F0100009F0100009F0100009F010000D0
:1000B0009F0100009F0100009F0100009F010000C0
:1000C00000F002F800F046F80CA030C808382418F8
:1000D0002D18A246671EAB4654465D46AC4201D180
:1000E00000F038F87E460F3E0FCCB646012633426C
:1000F00000D0FB1AA246AB4633431847B424000095
:10010000D4240000103A02D378C878C1FAD8520734
:1001100001D330C830C101D504680C6070470000BD
:100120000023002400250026103A01D378C1FBD813
:10013000520700D330C100D50B60704710B5782945
:1001400002D100F057F810BD002010BD1FB51FBD33
:1001500010B510BD00F05EFA1146FFF7F7FF01F091
:100160004BFF00F076FA03B4FFF7F2FF03BC00F098
:100170007DFA00000D480E4901600E4901600E49EC
:1001800001600E4A0E491160002101600D48804750
:100190000D480047FEE7FEE7FEE7FEE7FEE7FEE765
:1001A0000A480B49094A0B4B7047000000010050F8
:1001B00059000000160000008800000024000050D4
:1001C000A55A0000551B0000C1000000C800002017
:1001D000C8040020C80000200FB4054910B503AAC8
:1001E000029800F0EBF910BC08BC04B018470000FE
:1001F0002C00002070B504460D4621461068C0460C
:10020000C0462188090502D50F4A7A4402E00E4A09
:100210007A440E3223460021243305E00607000904
:10022000360F965D5E54491C0028F7D120780023D4
:10023000000705D5702D03D0002901D0022311320B
:10024000204600F063F970BD7A230000F3B5044640
:10025000002081B020622046E1688847002872D0E3
:10026000252802D06268A1689AE0E168204600264D
:10027000884705460020E0610746A0612A2D0AD084
:10028000284601F0A5FE002827D0B8000019303D0F
:100290000090856119E00298BA00121902C89161B4
:1002A00002902046E1688847012F054617D1E06992
:1002B00000281FDA202086431CE000980A2180696C
:1002C000484300994019303888612046E1688847E2
:1002D000054601F07DFE0028EFD1012F0AD02E2D1A
:1002E00008D12046E16888470546202006437F1C48
:1002F000022FC3DBA069002803DA4042A06101207D
:100300000643F00701D0102086436C2D0AD0682DDB
:1003100008D04C2D3CD06A2D38D0742D38D07A2D91
:1003200036D016E0E1682F4620468847B842054699
:100330000AD16C2F2AD001208002E16806432046B2
:100340008847054605E02FE06C2F1DD0FF200130C7
:100350000643002D28D028464138192803D801200B
:10036000C00206432035204626602946029A1646DA
:10037000FFF7E4FE002810D001280BD0F61DF0088E
:10038000C0000830029066E74020E1E78020D4E713
:100390000020D2E7361D02965DE762682846A16814
:1003A0009047206A401C55E7206AFEBD00220309E1
:1003B0008B422CD3030A8B4211D300239C464EE080
:1003C00003460B433CD4002243088B4231D303093C
:1003D0008B421CD3030A8B4201D394463FE0C309EE
:1003E0008B4201D3CB01C01A524183098B4201D306
:1003F0008B01C01A524143098B4201D34B01C01AF1
:10040000524103098B4201D30B01C01A5241C30868
:100410008B4201D3CB00C01A524183088B4201D3D7
:100420008B00C01A524143088B4201D34B00C01AC3
:100430005241411A00D201465241104670475DE0D8
:10044000CA0F00D04942031000D34042534000225B
:100450009C4603098B422DD3030A8B4212D3FC2204
:10046000890112BA030A8B420CD3890192118B4283
:1004700008D3890192118B4204D389013AD0921199
:1004800000E08909C3098B4201D3CB01C01A524154
:1004900083098B4201D38B01C01A524143098B421D
:1004A00001D34B01C01A524103098B4201D30B0106
:1004B000C01A5241C3088B4201D3CB00C01A52412B
:1004C00083088B4201D38B00C01A5241D9D2430812
:1004D0008B4201D34B00C01A5241411A00D201464F
:1004E000634652415B10104601D34042002B00D5B9
:1004F0004942704763465B1000D3404201B500207B
:10050000C046C04602BD704770477047FFB50446FD
:100510000D4681B0243000902168880604D5102251
:10052000E0699143216000E00120A84201DD471B02
:1005300000E000270498A1697A191018081AA06130
:100540002078C00602D42046C046C046002608E0F7
:1005500003986268A168805D9047206A401C761C01
:10056000206204988642F3DB2078C0060AD5204634
:10057000C046C04606E06268A16830209047206A05
:10058000401C206238467F1E0028F4DC07E00098FB
:100590006268A168405D9047206A401C206228463E
:1005A0006D1E0028F3DC2046C046C04620780006B9
:1005B00002D5022005B0F0BD0120FBE7084B70B565
:1005C0000D467B4400F013F80446284601F007FD71
:1005D000002802D00020C04370BD204670BD00003E
:1005E000211A000001694A1C02610878704700B5B1
:1005F0008FB002910021059105490193794403913F
:10060000114604906846FFF721FE0FB000BD0000C0
:10061000E5FFFFFF754600F025F8AE460500694688
:100620005346C008C000854618B020B5FFF7B8FD96
:1006300060BC00274908B6460026C0C5C0C5C0C575
:10064000C0C5C0C5C0C5C0C5C0C5403D49008D4678
:10065000704710B50446C046C0462046FFF783FDEC
:1006600010BD0000004870476400002001491820B8
:10067000ABBEFEE726000200704700001FB50C4C21
:100680001ECC03946C460EC4810F89006A465158F3
:10069000084A89184968C306DB0E01229A401143B3
:1006A000820F92006B469A58024BD21851601FBDC0
:1006B0006825000000020050F3B589B00C46012007
:1006C00000045D4908620998002817D108460068AF
:1006D0000121084358490860012000F047FA002032
:1006E0000690564F5648874201D1022514E05348E0
:1006F000874201D104250FE002250DE04E48006835
:10070000042108434C490860102000F02FFA012012
:10071000C0040690494F04254A48844205D8401039
:10072000844202D90020079014E04748844206D84A
:100730004010844203D90120079064000AE0434836
:10074000844206D84010844203D303200790A400BB
:1007500000E059E00020C043039000200190029087
:1007600034E029463846FFF721FE059038490598C0
:1007700088422AD937490598884226D20220089013
:100780001EE0059E08994E432F48864215D340002F
:10079000864212D8A64201D9301B00E0A01B04906B
:1007A00003990498884208D2049803900195089808
:1007B00002900398002800D106E00898401C089099
:1007C000254908988842DCD900BF6D1C212DC8D965
:1007D00007988003069908430199891E4902084336
:1007E0000299891E084314490862042000F0BEF9EA
:1007F0000798401C019A504301463846FFF7D6FD42
:10080000029948430BB0F0BD099800280BD10B4961
:100810000698884203D011480749086206E010484C
:100820000549086202E00E4803490862042000F00E
:100830009DF900F05DF8E5E70002005000805101ED
:10084000001BB70000C2EB0B00E1F50580F0FA02D7
:10085000006A1800C0E1E400010200002EC200009E
:100860006FD60000024909680143014A11607047D0
:1008700000020050FEB5002002901AA0006800900F
:100880001948046A00132040002801D00020FEBD52
:100890000120C0042040002801D0144D00E0134D79
:1008A000012040042040002801D02846EFE7032023
:1008B00080032040800B69460A5C0192E005C00D70
:1008C000861C1F2040022040400A871C019A7A4360
:1008D0001146AA0872431046FFF768FD8000029097
:1008E0000298D4E701020204000200500080510186
:1008F000FEB5002002901AA0006800901948046A12
:1009000000132040002801D00020FEBD0120C004BB
:100910002040002801D0144D00E0134D0120400478
:100920002040002801D02846EFE703208003204024
:10093000800B69460A5C0192E005C00D861C1F20F1
:1009400040022040400A871C019A7A431146AA08B7
:1009500072431046FFF72AFD800002900298D4E708
:10096000010202040002005000805101FEB5002087
:1009700002901AA0006800901948046A00132040F1
:10098000002801D00020FEBD0120C0042040002826
:1009900001D0144D00E0134D0120400420400028F8
:1009A00001D02846EFE7032080032040800B6946F2
:1009B0000A5C0192E005C00D861C1F204002204009
:1009C000400A871C019A7A431146AA0872431046CE
:1009D000FFF7ECFC800002900298D4E701020204C9
:1009E000000200500080510170B504462248C068E2
:1009F0001021084005462148844200D90446204879
:100A0000844200D204461C480068042108431A4965
:100A10000860102000F0AAF8174800690721084371
:100A20001549086108468069000900018861084687
:100A30000068C007C00F002805D061000020FFF744
:100A40003BFE04460AE061000120C004FFF734FECB
:100A500004460948C06810210840054601210220CB
:100A600000F010F8002D05D10348006804218843E8
:100A700001490860600870BD0002005080F0FA0271
:100A800040787D0170B504460D461548C0681021B8
:100A900008400646124800680843114908601020C3
:100AA00000F064F80E480069C008C000C01D0C4981
:100AB00008610846806900090001284388610846EA
:100AC0000069C008C0002043086101F011F8002E41
:100AD00005D103480068102188430149086070BDB2
:100AE00000020050F7B584B000220023184C2546C0
:100AF000E0CDE46802970196009503948403240EE8
:100B0000002C0ED00403A40FA400124D631984031B
:100B1000250E8405E40EA5401C68AC43069D2C43BD
:100B20001C600401640F002C10D08400A40FA400EA
:100B30006D462C59074D083D62190401650FC4012B
:100B4000E40EA5401468AC430C43146007B0F0BD3C
:100B500058250000180200500349096938229143C2
:100B60000143014A11617047000200500146074AE3
:100B700005E01046521E002801DC002070470448A2
:100B8000C06808408842F4D10120F7E7804F120086
:100B90000002005010B5AC480078030001F00AFADA
:100BA0000EF10817285B6D8D9FD4E3F1F0EFEEF1A5
:100BB000A648C06A012806D10020A449C862A4A0A2
:100BC000FFF70AFB02E002209F49087039E19F48C5
:100BD0004030006B012807D100209C494031086358
:100BE000A0A0FFF7F9FA02E003209749087028E176
:100BF000A148006900280AD19448403000690028C3
:100C000005D19EA0FFF7E8FA04208F4908709A48A2
:100C1000406900280AD18D4840304069002805D13C
:100C20009BA0FFF7D9FA0420874908709D480088E7
:100C3000401C9C490880084601889BA0FFF7CCFA1D
:100C400098480088142805DD9BA0FFF7C5FA6320AB
:100C50007D490870F5E07D48806A012806D10020B2
:100C60007A49886299A0FFF7B7FA05E000208D491C
:100C70000880052074490870E3E0744840308068BB
:100C8000002805D196A0FFF7A7FA06206E49087044
:100C900084480088401C834908800846018882A057
:100CA000FFF79AFA7F480088142805DD91A0FFF726
:100CB00093FA632064490870C3E06448406A0128DD
:100CC00006D10020614948628FA0FFF785FA05E050
:100CD00000207449088007205B490870B1E066482D
:100CE000006900280AD1594840300069012805D11F
:100CF0008AA0FFF771FA0820534908705E484069DE
:100D000000280AD1514840304069012805D188A007
:100D1000FFF762FA08204C49087062480088401CBE
:100D200060490880084601885FA0FFF755FA5D48D2
:100D300000884B21C900884205DD82A0FFF74CFAEC
:100D40006320414908707CE04048406A002806D191
:100D500001203E49486280A0FFF73EFA02E00920E8
:100D6000394908706DE03948806A00280AD10120AD
:100D7000364988627DA0FFF72FFA14E050E033E097
:100D800012E051E03148006A012806D100202F49C5
:100D900008627BA0FFF720FA05E0002041490880A7
:100DA0000B20294908704CE0284840308068012811
:100DB00005D178A0FFF710FA0C20234908703948B4
:100DC0000088401C374908800846018836A0FFF794
:100DD00003FA34480088142805DD73A0FFF7FCF9F6
:100DE0006320194908702CE018484030006B002837
:100DF00007D01648006A002803D01448C06A0028AB
:100E00000AD1012011494031086310490862C862C3
:100E10006AA0FFF7E1F902E00D200B49087010E02D
:100E20006BA0FFF7D9F90CE06EA0FFF7D5F9012010
:100E30000649403108630549C86288624862086211
:100E400000BF00BF10BD00005C0000200042005049
:100E50005365742043535F30204F6E2E2020202096
:100E60000A0000005365742056616C6964204F6E5F
:100E70002E2020200A000000404300504C5F5245C5
:100E800051204F4E2E202020202020200A0000003C
:100E9000555F524551204F4E2E20202020202020EB
:100EA0000A0000005E0000205441436F756E7420FC
:100EB0002578200A000000005441312054696D65F6
:100EC0004F757421212020200A00000053657420F2
:100ED00054525F524551204F6E2E20200A000000D0
:100EE0005245414459204F4E2E20202020202020C2
:100EF0000A0000005441322054696D654F75742119
:100F0000212020200A0000005365742042555359C7
:100F1000204F6E2E202020200A0000004C5F5245FA
:100F200051204F46462E2020202020200A0000007D
:100F3000555F524551204F46462E2020202020202C
:100F40000A000000436172726965722054696D6520
:100F50004F7574210A00000053657420425553599F
:100F6000204F66662E2020200A0000005365742062
:100F700054525F524551204F66662E200A000000F1
:100F800053657420434F4D5054204F6E2E20202027
:100F90000A0000005245414459204F46462E202069
:100FA000202020200A0000005441332054696D6540
:100FB0004F757421212020200A00000056616C69C1
:100FC0006426434F4D50542643535F300A000000BF
:100FD0004538342046696E69736865642E20202088
:100FE0000A000000416C61726D2121212020202027
:100FF000202020200A0000000349088000BF024989
:1010000009880029FBD170475A00002010B51D48FF
:101010000069002803D01B484069002818D11A48ED
:101020000078002827D10120174908701548006969
:10103000002803D115A0FFF7CFF802E018A0FFF7B2
:10104000CBF800201B49088001201B49087012E0E2
:101050000D48007801280ED100200B49087017A018
:10106000FFF7BAF801201A49086319494039C862E4
:1010700088624862086204480078012801D1FFF7BD
:1010800089FD10BD404300506000002045383420E9
:101090004C6F6164204F6E2E202020200A0000003B
:1010A00045383420556E4C6F6164204F6E2E2020E1
:1010B0000A0000005E0000205C000020453834205B
:1010C000546573742053746F702E20200A00000042
:1010D0004042005010B50446FF2201320021094869
:1010E00000F0C8FB00F070FA9420FFF785FF20465F
:1010F00000F00AF8FF2201320021024800F0E9FB6B
:1011000010BD00000000144010B50446002101206D
:1011100000F052FC2D20FFF76FFF2088C107C90F98
:10112000032000F049FC2D20FFF766FF2088800790
:10113000C10F032000F040FC2D20FFF75DFF208849
:101140004007C10F032000F037FC2D20FFF754FFAC
:1011500020880007C10F032000F02EFC2D20FFF790
:101160004BFF2088C006C10F032000F025FC2D2076
:10117000FFF742FF20888006C10F032000F01CFC0F
:101180002D20FFF739FF20884006C10F032000F013
:1011900013FC2D20FFF730FF20880006C10F03202D
:1011A00000F00AFC2D20FFF727FF2088C005C10FA3
:1011B000032000F001FC2D20FFF71EFF002102207C
:1011C00000F0FAFB10BD70B5034600200FE00124CB
:1011D00084400C40002C09D01C6846000325B54013
:1011E000AC4346001546B5402C431C60401C1028FB
:1011F000EDD370BD01200849086307494039C86232
:101200000549C86305490862034940398862486254
:101210000862014908627047404200504043005054
:1012200001200749086048600549803908608863E3
:10123000C861C860086102494039C863704700004E
:101240008042005010B5012211491248FFF7BBFF40
:101250000122112109020F484030FFF7B4FF01229B
:10126000CC210C488030FFF7AEFF00200A49C8604F
:10127000886009498039C86348600749C8610649E0
:1012800080398862C86204494039086210BD000094
:10129000028C0000004000508042005010B5012137
:1012A0000D4800F04FFB002804D00C480078401E89
:1012B0000A4908700021084800F09FF907480078A3
:1012C000002807D10121044800F060FB00210248FA
:1012D00000F0E6FA10BD00000000044036000020D7
:1012E00010B50021AF4800F011FB02210840022890
:1012F00078D1C2010021AB4800F078F9AA48006912
:1013000001210904081AA9490880A9480078401C4D
:10131000A7490870A548008832280BDDA34800883B
:101320005A2807DAA3480078401CA2490870002018
:10133000A14908709D4800885A280DDD9B48008807
:10134000FF212D31884207DA9B480078401C9A49DA
:10135000087000209749087094480088FF215F3189
:1013600088425FDD93480078082811DB93480088A5
:101370004005C00F00280BD1904800880121890248
:10138000884340188D49088000208D49087016E078
:1013900088480078032812DB884800884005C00F81
:1013A00000280CD0854800888005C00F002806D191
:1013B000824800880121C9028843804908807E480C
:1013C000007808280FDB7D4800888005C00F0028C2
:1013D00009D17A4800880121490288434018774999
:1013E000088018E09CE074480078032813DB7348F9
:1013F00000884005C00F00280DD070480088800587
:10140000C00F002807D16D4800880121C902884318
:1014100040186A49088000206649087066490870CB
:1014200063490870654800884005C00F002877D0E0
:101430005E480088FF215F31884271DD6048007896
:10144000030000F0B7FD0A0607132231404F5E6E1D
:101450007D978FE0594909880905C80F57490988C0
:10146000490849000143554A118083E053490988DE
:101470000905C90F49000222114008464F49098851
:10148000914301434D4A118074E04C490988090594
:10149000C90F890004221140084648490988914330
:1014A0000143464A118065E0444909880905C90F8E
:1014B000C900082211400846404909889143014368
:1014C0003E4A118056E03D4909880905C90F0901C6
:1014D0001022114008463949098891430143374A8F
:1014E000118047E0354909880905C90F49012022C3
:1014F0001140084631490988914301432F4A118020
:1015000038E02E4909880905C90F89014022114098
:1015100008462A49098891430143284A118029E055
:101520003EE0264909880905C90FC90180221140FA
:1015300008462249098891430143204A118019E055
:101540001E4909880905C90F0902FF22013211400D
:1015500008461A49098891430143184A118000F04E
:10156000D9FB1849088008460088002801D100F0FE
:101570002BF800BF00BF114800888005C00F00286D
:1015800002D000F021F80BE00D480078092805DAB8
:101590000B480078401C0A49087001E000F014F87C
:1015A00010BD000000001440000214404A0000205A
:1015B0004800002044000020450000204200002098
:1015C000460000204E000020002004490870044915
:1015D00008700449087004490880704744000020DE
:1015E00045000020460000204200002010B51346B0
:1015F0008B409524A400235010BD4A085300FF22BD
:1016000001329A40E8231A5070470000FFB583B0BA
:1016100004460E460125304800903048844205D1EA
:101620002F48406B29040840029005E02C48406B8D
:1016300001214904084002900298002803D1FFF7D5
:1016400095F9074603E000F053FA264807687D2124
:10165000C9003846FEF7AAFE074601251BE02249CD
:10166000694308463946FEF7A1FE019005990198A5
:1016700088420DD201200003854200D10FE0681C92
:101680001949414301987843814200D807E000E0BE
:1016900005E0681C85B2012000038542DFDD00BF44
:1016A000681E81B20D4670088200204614308150B9
:1016B00060687200032191408843720001219140CB
:1016C000084360607108CA00214630310098885094
:1016D000019807B0F0BD0000FFFF000000000440CB
:1016E000000200500000002040420F00FFB585B00E
:1016F00004460D460126594802905948844205D1B6
:101700005848406B31040840049005E05548406B50
:1017100001214904084004900498002803D1FFF7F0
:1017200025F9039004E000F0E3F94F4800680390C6
:10173000012612E007990398FEF738FE3146019022
:10174000FEF734FE0746012109048F4200D902E06A
:10175000B8B2029004E0701C86B244488642E9DBCD
:1017600000BF701C029A504301460398FEF71EFE0C
:101770000746701E81B20E4668088200204614306B
:10178000815060686A000321914088436A0001210A
:101790009140084360600298401E81B26808C20010
:1017A0002046303002918150089800282ED0029AAD
:1017B000521C0899514308466421FEF7F7FD401E6C
:1017C000AA00214650318850B02000596A002849AB
:1017D00091408843B0210851B02000596900103170
:1017E00001228A401043B0210851B42001596A00F7
:1017F0001F4890408143B4200151005969001031C5
:1018000002228A401043B421085124E00021AA009A
:10181000204650308150B02001596A001448904051
:101820008143B02001510059690001228A401043D0
:10183000B0210851B42000596A000D4991408843F5
:10184000B4210851B42000596900103102228A40A5
:101850001043B4210851384609B0F0BDFFFF000025
:10186000000004400002005000000020FF0F0000B4
:101870000300030010B525231B011B5814468C40A0
:10188000A34325242401235010BD0000E022125858
:10189000024B8B409A43E0231A507047000001012D
:1018A00010B5E02212584B085C00FF230133A3401F
:1018B0009A43E0231A5010BD0122520212580A43E3
:1018C00001235B021A501A1D12580A431B1D1A509D
:1018D000704710B525231B011B5814468C40234329
:1018E00025242401235010BDD82212580A43D8239E
:1018F0001A50704730B5E0231B584C086500FF2490
:101900000134AC402343E024235030BD10B50246DF
:10191000952080008058FF2301338B401840002819
:1019200001D0012000E00020400095239B009B583F
:1019300001248C402340002B01D0012300E0002330
:10194000184310BD10B50246E82080584B085C00D3
:10195000FF230133A3401840002801D0012010BD0F
:101960000020FCE730B5024600200CE00123834054
:101970000B40002B06D0136A440865000124AC40DC
:1019800023431362401C0628F0D330BD30B5024615
:1019900000200DE0012383400B40002B07D00025E1
:1019A00043085B001824634314463034E550401C60
:1019B0000628EFD330BD000070B505460C46012D5A
:1019C00006D0022D0ED0032D17D0042D33D128E0E0
:1019D0000B20254908702548254908600A2025491B
:1019E000086028E00B20204908704B20C0012049E6
:1019F00008600A201F4908601DE006201A49087087
:101A0000002C06D119481A4908600A2019490860B3
:101A100006E04B20C001164908600A2015490860FD
:101A200009E001201049087013481149086064203A
:101A30001049086000BF00BF0E4803680C480268E8
:101A400000210E48FFF752FE002211460B48FFF717
:101A500051FF01210948FFF785FF00BF02480078C8
:101A60000028FBD170BD0000360000204C3600007D
:101A7000380000203C000020C409000000000440A1
:101A8000010E05221207891889680122824011433C
:101A9000020E05231B07D2189160010E1A46891801
:101AA0008A68012181408A43010EC9188A60704703
:101AB00000B50346184600F001F800BD00BF0B4911
:101AC00089690122D20511400029F8D1074908602F
:101AD0000A280AD100BF054989690122D2051140AF
:101AE0000029F8D10D21014A11607047000015400E
:101AF00070B5FEF7BFFE114908601148006945073F
:101B00006D0F022D03D0A8000E490C5801E00B48C0
:101B100004680B4880690007000F461C31462046C8
:101B2000FEF744FC084908600849074800684A1065
:101B30008018FEF73BFC0649086070BD08000020D5
:101B4000000200500C0000200000002040420F0066
:101B500004000020704700000120134988621348E8
:101B60000088002804DD11480088401E0F490880C5
:101B70000F480088002804DD0D480088401E0C49ED
:101B800008800C480088002804DD0A480088401EB0
:101B90000849088008480088002804DD06480088B5
:101BA000401E054908807047000001405200002097
:101BB0005400002056000020580000200120064953
:101BC000886006480088002804DD04480088401E1C
:101BD0000249088070470000000011405A000020B0
:101BE000214840690721090308431F494861084605
:101BF0008068082108431C4988601C48006A8904E1
:101C000008431A4908620846006A000A000208628E
:101C10000846006A0B210843144908627D20000130
:101C200048620846006A49030843104908620120D7
:101C300088620920012181400D4A116000BF0B48D4
:101C4000006A012189060843084908620846006ABB
:101C500089030843054908620846006A012109040E
:101C6000084302490862704700020050000001402A
:101C700000E100E024484069072109048843224923
:101C8000486108464069090208431F4948610846FF
:101C90008068102108431C4988601C48006889043A
:101CA00008431A49086008460068000A00020860F4
:101CB0000846006805210843144908605020486020
:101CC00008460068490308431049086001208860FD
:101CD0000A20012181400E4A116000BF0B480068B4
:101CE00001218906084309490860084600688903FC
:101CF00008430649086008460068012109040843B2
:101D000002490860704700000002005000001140C6
:101D100000E100E008B53E490988C907C90F3C4AFF
:101D200012889207D20F8918394A12885207D20FA7
:101D30008918374A12881207D20F8918344A128834
:101D4000D206D20F8918324A12889206D20F891809
:101D50002F4A12885206D20F89182D4A128812066D
:101D6000D20F8818C10F091849104900411A284A92
:101D70001288D205D20F914201D1012200E0002247
:101D8000009269460878002836D021480088C007AC
:101D9000C00F2049C8601E4800888007C00F8860B7
:101DA0001B4800884007C00F1A498039C86318488B
:101DB00000880007C00F486015480088C006C00FA3
:101DC0001449C861124800888006C00F1149803943
:101DD00088620F4800884006C00FC8620C4800881F
:101DE0000006C00F0B49403908620846006B012805
:101DF0000BD00120086308E006484038006B00283B
:101E000003D000200349403908636846007808BDC4
:101E1000420000208042005010B500237D22D200F5
:101E200019461548FFF7F2FB01211348FFF79AFD09
:101E300001211148FFF740FD1048406801210906C3
:101E400008430E49486008464068012109040843D8
:101E50000A4948608A1500210748FFF73AFD172014
:101E600001218140064A116000BF00BF0248803056
:101E700000690028FAD010BD000014400002144090
:101E800000E100E010B51448FEF7F8FB0022012144
:101E900049041148FEF726FE1048FFF7F1FD052022
:101EA0000007006B042188430521090708630846E1
:101EB000006B042108430521090708630848006AEC
:101EC00040218843064908620846006A40210843C9
:101ED0000349086210BD0000110010B31100000892
:101EE0004000005010B505200007006B01210903D8
:101EF00088430521090708630846006B012109038F
:101F000008430521090708631548406AFF2101318C
:101F10008843134948626423124A00211248FFF79C
:101F2000E5FB01211048FFF7DFFC00210E48FFF719
:101F3000B7FC00210C48FFF7A9FC162001218140C5
:101F40000A4A116000BF0848C030406901210843B7
:101F50000549C031486101210348FFF703FD10BD69
:101F600040000050C83200000000044000E100E0E2
:101F700010B50120FEF776FC0120FEF7F7FD0A48B8
:101F8000FEF732FD1820FEF7E7FD0848FEF776FB66
:101F9000002211460548FEF7A5FD0548FFF770FD34
:101FA000FFF7A6FD10BD000080F0FA02100000B39C
:101FB0001000000830B47446641E2578641CAB42DF
:101FC00004D3635D5B00E31830BC18471D46F8E797
:101FD00030380A2801D2012070470020704701469E
:101FE0000020C043704730B504460D462046FFF739
:101FF0005FFD204630BD000000BF06E05920FE49CD
:1020000008601620086088200860FB4800680128E6
:10201000F4D100BFFFF7ACFFFFF7E2FDFFF72AFEA8
:10202000FFF760FFFFF72EFF00BF0020F2490860B6
:1020300000BFFFF7F1FEF1488068002802D1FFF7EA
:10204000D9F803E0FFF7ECF8FFF7FCF80120EB49C3
:1020500040318861E9494039886108468069012832
:1020600002D06420E64908806FE2E44880680028D6
:102070000AD1E44800880028F6D1FEF7C7FFFF2008
:102080009130E049088060E2DC484038406900282F
:102090007ED0DA484038806901287AD1D74940316A
:1020A0000A68012191430846D7490988490849002F
:1020B0000143D54A1180D14940314968C94349009B
:1020C000022211400846D049098891430143CE4A73
:1020D0001180CA4940390968C94389000422114066
:1020E0000846C949098891430143C74A1180C34939
:1020F0004039896BC943C900082211400846C249CA
:10210000098891430143C04A1180BC494039C969DB
:10211000C9430901102211400846BB49098891436F
:102120000143B94A1180B5494039C968C9434901D9
:10213000202211400846B449098891430143B24A1C
:102140001180AE4940390969C943890140221140D3
:102150000846AD49098891430143AB4A1180A7491C
:10216000C96BC943C901802211400846A6490988A4
:1021700091430143A44A11801288D207D20FA24B87
:102180001B889B07DB0FD2189F4B1B885B0701E066
:10219000D2E1FCE0DB0FD2189B4B1B881B07DB0F47
:1021A000D218994B1B88DB06DB0FD218964B1B8885
:1021B0009B06DB0FD218944B1B885B06DB0FD218F3
:1021C000914B1B881B06DB0FD018C20F1218521040
:1021D0005200821A1202FF2301331A4011468A4A22
:1021E00012889A430A43884B1A808848008800283E
:1021F00007D11846FEF76EFFFFF724F800207F494D
:102200000863442082490880BBE080480088002899
:102210007ED000207D490880784940310A6801213C
:102220009143084678490988490849000143764A9C
:102230001180724940314968C94349000222114066
:10224000084671490988914301436F4A11806B49DF
:1022500040390968C94389000422114008466A4987
:10226000098891430143684A118064494039896B68
:10227000C943C900082211400846634909889143AF
:102280000143614A11805D494039C969C943090167
:102290001022114008465C490988914301435A4A7B
:1022A000118056494039C968C9434901202211406B
:1022B00008465549098891430143534A11804F49C3
:1022C00040390969C94389014022114008464E49F5
:1022D0000988914301434C4A11804849C96BC9435D
:1022E000C9018022114008464749098891430143AA
:1022F000454A11801288D207D20F434B1B889B0797
:10230000DB0FD218404B1B885B07DB0FD21800E0B5
:1023100031E03D4B1B881B07DB0FD2183A4B1B8863
:10232000DB06DB0FD218384B1B889B06DB0FD2185D
:10233000354B1B885B06DB0FD218334B1B881B0603
:10234000DB0FD018C20F121852105200821A12025C
:10235000FF2301331A4011462B4A12889A430A433D
:10236000294B1A801846FEF7B5FE1420284908802C
:10237000012022490863214840384069002800D1E3
:1023800004E023480088002800D03EE7DDE01F4835
:10239000008800287ED000201C4908801749403161
:1023A0000A680121914308461749098849084900EC
:1023B0000143154A1180114940314968C943490018
:1023C00002221140084610490988914301430E4AF0
:1023D00011800A4940390968C94389000422114023
:1023E00008460949098891430143074A1180034976
:1023F0004039896BC9430DE0000100504042005054
:102400005800002056000020340000204E0000201C
:1024100054000020C9000822114008464B49098891
:1024200091430143494A11804949C969C943090196
:102430001022114008464549098891430143434A07
:1024400011804349C968C943490120221140084607
:102450003E490988914301433C4A11803C4909693E
:10246000C9438901402211400846384909889143EF
:102470000143364A118036494031C96BC943C9010D
:1024800080221140084631490988914301432F4A6F
:10249000118000E040E01288D207D20F2B4B1B883E
:1024A0009B07DB0FD218294B1B885B07DB0FD21869
:1024B000264B1B881B07DB0FD218244B1B88DB061F
:1024C000DB0FD218214B1B889B06DB0FD2181F4B4A
:1024D0001B885B06DB0FD2181C4B1B881B06DB0F0F
:1024E000D018C20F121852105200821A1202FF2383
:1024F00001331A401146154A12889A430A43134B76
:102500001A801846FEF7E6FD642012490880012073
:102510000F494031086318E00E480088002814D1A4
:10252000FFF752F864200B49088000200849403129
:102530000863FEF787FE08E005484030006B00287E
:1025400003D000200249403108638EE534000020AA
:10255000004200505800002000000000040000006D
:102560000C00000024000000000000000400000037
:102570002C0000000000000000000000040000002B
:102580002C00000000000000303132333435363783
:1025900038394142434445464030580030313233A7
:1025A00034353637383961626364656640307800A7
:1025B000D02500000000002064000000040100009D
:1025C00034260000640000206404000020010000A4
:1025D00080F0FA023200000080F0FA02008051011F
:1025E0000000000080F0FA02102700000000000048
:1025F0000000000000000000008051010000000009
:1026000000000000000000000000000000000000CA
:1026100000000000000000000000000000000000BA
:1026200000000000000000000000000000000000AA
:0426300000000000A6
:040000050000017581
:00000001FF
