:020000040000FA
:10000000C80900206501000085010000870100008B
:1000100000000000000000000000000000000000E0
:100020000000000000000000000000008901000046
:1000300000000000000000008B0100008D010000A6
:100040008F0100008F0100008F0100008F01000070
:100050008F0100008F0100008F0100008F01000060
:100060008F0100000D1600009D1600008F0100009A
:100070008F010000F51700008F0100008F010000C4
:100080008F0100008F0100008F0100008F01000030
:100090008F0100008F0100000510000049100000D2
:1000A0008F0100008F0100008F0100008F01000010
:1000B0008F0100008F0100008F0100008F01000000
:1000C00000F002F800F03EF80CA030C80838241800
:1000D0002D18A246671EAB4654465D46AC4201D180
:1000E00000F030F87E460F3E0FCCB6460126334274
:1000F00000D0FB1AA246AB4633431847401C000011
:10010000601C0000103A02D378C878C1FAD85207B0
:1001100001D330C830C101D504680C6070470000BD
:100120000023002400250026103A01D378C1FBD813
:10013000520700D330C100D50B6070471FB51FBDFB
:1001400010B510BD00F066F91146FFF7F7FF01F09A
:1001500037FD00F07EF903B4FFF7F2FF03BC00F0B7
:1001600085F900000D480E4901600E4901600E49F5
:1001700001600E4A0E491160002101600D48804760
:100180000D480047FEE7FEE7FEE7FEE7FEE7FEE775
:100190000A480B49094A0B4B704700000001005008
:1001A00059000000160000008800000024000050E4
:1001B000A55A000009160000C1000000C805002073
:1001C000C8090020C8050020034670B502460B434D
:1001D0009B070FD10E4CE60100E008C208C91D1BA9
:1001E0009D433542F9D0D9B21170521C00290DD06F
:1001F0001B0AF8E70B78491C1370521C002B05D022
:100200000B78491C1370521C002BF3D170BD0000F9
:10021000010101010346F0B50B439B072DD1244D8D
:10022000EF01042A29D308C810C95E1B9E43121F80
:100230003E4017D0D8B2E1B2401A3106014310D186
:1002400098B2A1B2401A310401430AD11802210226
:10025000000A090A401A3102014302D1180E210E88
:10026000401AF0BDA342DCD018BA21BA884201D9A5
:100270000120F0BD0020C043F0BD002A01D10020C4
:10028000F0BD03780C78401C491C002B0DD0A34214
:100290000BD1521E09D003780C78401C491C002B4E
:1002A00003D0A34201D1521EEBD1181BF0BD0000B8
:1002B00001010101002203098B422CD3030A8B4266
:1002C00011D300239C464EE003460B433CD400224E
:1002D00043088B4231D303098B421CD3030A8B4260
:1002E00001D394463FE0C3098B4201D3CB01C01A2E
:1002F000524183098B4201D38B01C01A52414309F9
:100300008B4201D34B01C01A524103098B4201D3E6
:100310000B01C01A5241C3088B4201D3CB00C01A53
:10032000524183088B4201D38B00C01A52414308CB
:100330008B4201D34B00C01A5241411A00D20146F0
:100340005241104670475DE0CA0F00D04942031089
:1003500000D34042534000229C4603098B422DD3D8
:10036000030A8B4212D3FC22890112BA030A8B4280
:100370000CD3890192118B4208D3890192118B42CF
:1003800004D389013AD0921100E08909C3098B4254
:1003900001D3CB01C01A524183098B4201D38B0197
:1003A000C01A524143098B4201D34B01C01A52413A
:1003B00003098B4201D30B01C01A5241C3088B427F
:1003C00001D3CB00C01A524183088B4201D38B006A
:1003D000C01A5241D9D243088B4201D34B00C01AF4
:1003E0005241411A00D20146634652415B10104609
:1003F00001D34042002B00D54942704763465B1051
:1004000000D3404201B50020C046C04602BD70473F
:1004100070477047754600F025F8AE4605006946FE
:100420005346C008C000854618B020B5FFF7B0FE9F
:1004300060BC00274908B6460026C0C5C0C5C0C577
:10044000C0C5C0C5C0C5C0C5C0C5403D49008D467A
:10045000704710B50446C046C0462046FFF77BFEF5
:1004600010BD0000004870476405002001491820B5
:10047000ABBEFEE726000200704700001FB50C4C23
:100480001ECC03946C460EC4810F89006A465158F5
:10049000084A89184968C306DB0E01229A401143B5
:1004A000820F92006B469A58024BD21851601FBDC2
:1004B000EC1C000000020050F3B589B00C4601208E
:1004C00000045D4908620998002817D108460068B1
:1004D0000121084358490860012000F047FA002034
:1004E0000690564F5648874201D1022514E05348E2
:1004F000874201D104250FE002250DE04E48006837
:10050000042108434C490860102000F02FFA012014
:10051000C0040690494F04254A48844205D840103B
:10052000844202D90020079014E04748844206D84C
:100530004010844203D90120079064000AE0434838
:10054000844206D84010844203D303200790A400BD
:1005500000E059E00020C043039000200190029089
:1005600034E029463846FFF7A5FE0590384905983E
:1005700088422AD937490598884226D20220089015
:100580001EE0059E08994E432F48864215D3400031
:10059000864212D8A64201D9301B00E0A01B04906D
:1005A00003990498884208D204980390019508980A
:1005B00002900398002800D106E00898401C08909B
:1005C000254908988842DCD900BF6D1C212DC8D967
:1005D00007988003069908430199891E4902084338
:1005E0000299891E084314490862042000F0BEF9EC
:1005F0000798401C019A504301463846FFF75AFEBF
:10060000029948430BB0F0BD099800280BD10B4963
:100610000698884203D011480749086206E010484E
:100620000549086202E00E4803490862042000F010
:100630009DF900F05DF8E5E70002005000805101EF
:10064000001BB70000C2EB0B00E1F50580F0FA02D9
:10065000006A1800C0E1E400010200002EC20000A0
:100660006FD60000024909680143014A11607047D2
:1006700000020050FEB5002002901AA00068009011
:100680001948046A00132040002801D00020FEBD54
:100690000120C0042040002801D0144D00E0134D7B
:1006A000012040042040002801D02846EFE7032025
:1006B00080032040800B69460A5C0192E005C00D72
:1006C000861C1F2040022040400A871C019A7A4362
:1006D0001146AA0872431046FFF7ECFD8000029015
:1006E0000298D4E701020204000200500080510188
:1006F000FEB5002002901AA0006800901948046A14
:1007000000132040002801D00020FEBD0120C004BD
:100710002040002801D0144D00E0134D012040047A
:100720002040002801D02846EFE703208003204026
:10073000800B69460A5C0192E005C00D861C1F20F3
:1007400040022040400A871C019A7A431146AA08B9
:1007500072431046FFF7AEFD800002900298D4E786
:10076000010202040002005000805101FEB5002089
:1007700002901AA0006800901948046A00132040F3
:10078000002801D00020FEBD0120C0042040002828
:1007900001D0144D00E0134D0120400420400028FA
:1007A00001D02846EFE7032080032040800B6946F4
:1007B0000A5C0192E005C00D861C1F20400220400B
:1007C000400A871C019A7A431146AA0872431046D0
:1007D000FFF770FD800002900298D4E70102020446
:1007E000000200500080510170B504462248C068E4
:1007F0001021084005462148844200D9044620487B
:10080000844200D204461C480068042108431A4967
:100810000860102000F0AAF8174800690721084373
:100820001549086108468069000900018861084689
:100830000068C007C00F002805D061000020FFF746
:100840003BFE04460AE061000120C004FFF734FECD
:1008500004460948C06810210840054601210220CD
:1008600000F010F8002D05D10348006804218843EA
:1008700001490860600870BD0002005080F0FA0273
:1008800040787D0170B504460D461548C0681021BA
:1008900008400646124800680843114908601020C5
:1008A00000F064F80E480069C008C000C01D0C4983
:1008B00008610846806900090001284388610846EC
:1008C0000069C008C0002043086100F06BFE002EE4
:1008D00005D103480068102188430149086070BDB4
:1008E00000020050F7B584B000220023184C2546C2
:1008F000E0CDE46802970196009503948403240EEA
:10090000002C0ED00403A40FA400124D631984031D
:10091000250E8405E40EA5401C68AC43069D2C43BF
:100920001C600401640F002C10D08400A40FA400EC
:100930006D462C59074D083D62190401650FC4012D
:10094000E40EA5401468AC430C43146007B0F0BD3E
:10095000DC1C000018020050034909693822914349
:100960000143014A11617047000200500146074AE5
:1009700005E01046521E002801DC002070470448A4
:10098000C06808408842F4D10120F7E7804F120088
:1009900000020050F8B5002037490870374C207825
:1009A000332801DA4C20F8BD2078009000983038C8
:1009B000C0B20090641C002708E020782E49097816
:1009C00040182D490870641C781CC7B200988742F3
:1009D000F3DB29490978081100F095FA0646264903
:1009E00009780807000F00F08EFA05462078B0421B
:1009F00001D05320D7E7641C2078A84201D05320AF
:100A0000D1E71E48467830463038C6B2092E01DD9F
:100A1000F01FC6B21948857828463038C5B2092D6E
:100A200001DDE81FC5B230014019C7B21448007893
:100A3000874201D04E20B6E71048C07811490870AF
:100A40000E48007948700D48407988700B488079CD
:100A50000D4908700948C07948700848007A8870C4
:100A60000648407AC8700548807A08710120074915
:100A7000087000BF97E700008A000020640400208F
:100A80008B0000208C0000208F00002094000020AC
:100A90000349088000BF024909880029FBD170473B
:100AA000560000200349088000BF02490988002938
:100AB000FBD170474A0000207FB5012682480078AC
:100AC00041B2684601728048407841B2684641723E
:100AD0007D48807841B2684681727C48007841B296
:100AE000684601707948407841B26846417077485D
:100AF000807841B2684681707448C07841B26846D7
:100B0000C1707248007941B268460171704800783E
:100B100002287DD16FA103A8FFF756FB032203A98A
:100B200002A8FFF777FB002873D100256A48C47A32
:100B30006A480088B043E107C90F08436749088045
:100B400008460088022188436110490002221140B2
:100B50000843624908800846008804218843A110A0
:100B600089000422114008435C4908800846008837
:100B700008218843E110C900082211400843574961
:100B8000088008460088102188432111090110229D
:100B900011400843514908800846008820218843B5
:100BA000611149012022114008434C490880084640
:100BB000008840218843A111890140221140084347
:100BC000464908800846008880218843E111C90110
:100BD00080221140084341490880414A128832402E
:100BE0003F4B1B889B07DB0FD2183D4B1B885B07D5
:100BF000DB0FD2183A4B1B881B07DB0FD218384B80
:100C00001B88DB06DB0FD218354B1B889B0601E0E7
:100C100057E058E0DB0FD218314B1B885B06DB0F27
:100C2000D2182F4B1B881B06DB0FD018C20F1218CF
:100C300052105200821A120233021A401146274AF9
:100C400012889A430A43254B1A8018460088304080
:100C5000C04324498861184600888007C00FC043FC
:100C600020498039C860184600884007C00FC0433B
:100C70008860184600880007C00FC04348601846C7
:100C80000088C006C00FC0431649C03988621846A4
:100C900000888006C00FC043C8621846008840061E
:100CA000C00FC0430F498031086118460088000614
:100CB000C00FC043486101200B4908800B490870F0
:100CC00001E0034800787FBD8C0000208F000020E9
:100CD0009500002053455400640400203A00002091
:100CE0002C000020C042005050000020970000203F
:100CF00070B5034600200FE0012484400C40002C16
:100D000009D01C6846000325B540AC434600154693
:100D1000B5402C431C60401C1028EDD370BD000072
:100D2000F0B50546002600202349088023480068C6
:100D30002349096888423DD00020224908700120DB
:100D400000F048F8044620480470012C01D101202D
:100D500000E00020022C01D1012100E00021084325
:100D6000002827D0FF27194805801DE01348006898
:100D700013490968884217D014480580012000F003
:100D800029F8044612480C4909884454002E02D11F
:100D900020462D38C7B208480088401C0649088004
:100DA000781EC7B2701CC6B208480088002801D05F
:100DB000002FDBD13046F0BD880000205C00002011
:100DC00074000020940000209500002052000020B4
:100DD0006404002000B501460B0000F0E3FE0604A9
:100DE0001628394A5B6C354A12681078334A126803
:100DF000521C324B1A601A461368314A934203D18F
:100E0000FF3A013A2D4B1A6055E02E4A12681078CD
:100E10002C4A1268521C2B4B1A601A4613682A4A35
:100E2000934203D1FF3A013A264B1A6043E0274A26
:100E300012681078254A1268521C244B1A601A4610
:100E40001368234A934202D1803A204B1A6032E061
:100E5000204A126810781F4A1268521C1D4B1A60F3
:100E60001A4613681C4A934202D1803A194B1A6001
:100E700021E01A4A12681078184A1268521C174B5F
:100E80001A601A461368164A934202D1803A134BED
:100E90001A6010E0134A12681078124A1268521C45
:100EA000104B1A601A4613680F4A934202D1403A17
:100EB0000C4B1A6000BF00BF00BD00007000002096
:100EC000A401002074000020A4020020780000206B
:100ED000240300207C000020A403002080000020C8
:100EE00024040020840000206404002001460A46F7
:100EF000CB171B0F9B181B113033D8B2392801DDDB
:100F0000C21DD0B2704701460A46CB171B0F9B1873
:100F10001B05180E02018A1A3032D0B2392801DDC1
:100F2000C21DD0B27047000010B50022134914480A
:100F3000FFF7DEFE00220121C90311484030FFF710
:100F4000D7FE002280210E488030FFF7D1FE00221C
:100F50000C490B48C030FFF7CBFE01200A49C8619D
:100F60008863C8630849C03948638863C863064911
:100F70008039C86304494039C86110BD60E0000091
:100F80000040005080C00000C042005010B5012257
:100F90000D2109021248FFF7ABFE0122114910484A
:100FA0004030FFF7A5FE012240210D48C030FFF779
:100FB0009FFE012230210C48FFF79AFE00200B49CA
:100FC00088610A498039C860886048600649C03134
:100FD0008862C862054980310861486110BD00001F
:100FE000004000500E10000040410050C042005030
:100FF000C206D20E01219140014A116070470000E3
:1010000000E100E010B501210D4800F0DAF90028F8
:1010100004D00C480078401E0A4908700021084896
:1010200000F09FF907480078002807D10121044803
:1010300000F0D7F90021024800F09BF910BD000034
:10104000000004402E00002010B50021AF4800F041
:101050009CF902210840022878D1C2010021AB4846
:1010600000F078F9AA48006901210904081AA94981
:101070000880A9480078401CA7490870A548008846
:1010800032280BDDA34800885A2807DAA3480078E5
:10109000401CA24908700020A14908709D480088A2
:1010A0005A280DDD9B480088FF212D31884207DA40
:1010B0009B480078401C9A490870002097490870A6
:1010C00094480088FF215F3188425FDD93480078B3
:1010D000082811DB934800884005C00F00280BD179
:1010E0009048008801218902884340188D49088072
:1010F00000208D49087016E088480078032812DB2C
:10110000884800884005C00F00280CD0854800881A
:101110008005C00F002806D1824800880121C9023D
:101120008843804908807E48007808280FDB7D4886
:1011300000888005C00F002809D17A480088012165
:101140004902884340187749088018E09CE07448B9
:101150000078032813DB734800884005C00F00287F
:101160000DD0704800888005C00F002807D16D4859
:1011700000880121C902884340186A49088000207C
:1011800066490870664908706349087065480088B8
:101190004005C00F002877D05E480088FF215F31EE
:1011A000884271DD60480078030000F0FBFC0A060D
:1011B00007132231404F5E6E7D978FE059490988B1
:1011C0000905C80F57490988490849000143554A8C
:1011D000118083E0534909880905C90F490002229B
:1011E000114008464F490988914301434D4A1180F7
:1011F00074E04C4909880905C90F8900042211408F
:1012000008464849098891430143464A118065E0F0
:10121000444909880905C90FC90008221140084638
:1012200040490988914301433E4A118056E03D49B7
:1012300009880905C90F09011022114008463949DA
:10124000098891430143374A118047E035490988AD
:101250000905C90F49012022114008463149098872
:10126000914301432F4A118038E02E49098809052E
:10127000C90F89014022114008462A490988914333
:101280000143284A118029E03EE0264909880905E2
:10129000C90FC9018022114008462249098891439B
:1012A0000143204A118019E01E4909880905C90F28
:1012B0000902FF220132114008461A490988914368
:1012C0000143184A118000F0B9FB1849088008460C
:1012D0000088002801D100F02BF800BF00BF1148A2
:1012E00000888005C00F002802D000F021F80BE034
:1012F0000D480078092805DA0B480078401C0A4997
:10130000087001E000F014F810BD00000000144067
:101310000002144042000020400000203C00002059
:101320003D0000203A0000203E0000204600002042
:1013300000200449087004490870044908700449F1
:10134000088070473C0000203D0000203E00002047
:101350003A00002010B513468B409524A40023507A
:1013600010BD4A085300FF2201329A40E8231A5068
:10137000704710B5E02212584B085C00FF23013380
:10138000A3409A43E0231A5010BD10B502469520A1
:1013900080008058FF2301338B401840002801D083
:1013A000012000E00020400095239B009B58012471
:1013B0008C402340002B01D0012300E00023184380
:1013C00010BD10B50246E82080584B085C00FF2392
:1013D0000133A3401840002801D0012010BD002097
:1013E000FCE730B5024600200DE0012383400B40AE
:1013F000002B07D0002543085B00182463431446E4
:101400003034E550401C0628EFD330BD10B50446FB
:1014100000BFA0690121890508400028F9D00220F9
:10142000FFF740FB00200149086210BD0042005058
:10143000010E052212078918896801228240114392
:10144000020E05231B07D2189160010E1A46891857
:101450008A68012181408A43010EC9188A60704759
:10146000F8B54D48C069C00130434B494039C96B9C
:101470008901084348498039C96B490108434649F5
:101480008039896B0901084343498039496BC90098
:10149000084341494031C96B890008433E49403106
:1014A000896B490008433C494031C9690843C6B2C9
:1014B000F043C6B23B2701242146384800F0A6FA83
:1014C0003946364800F0A2FA002535480078FFF783
:1014D0000DFD04462146314800F098FA2819C5B29E
:1014E0002F480078FFF70FFD044621462B4800F0F7
:1014F0008DFA2819C5B253242146284800F086FAEF
:101500002819C5B245242146244800F07FFA28193D
:10151000C5B254242146214800F078FA2819C5B2F2
:10152000492421461D4800F071FA2819C5B24F24FC
:1015300021461A4800F06AFA2819C5B253242146F8
:10154000164800F063FA2819C5B2542421461348FE
:1015500000F05CFA2819C5B2532421460F4800F068
:1015600055FA2819C5B2344621460C4800F04EFA07
:101570002819C5B22846FFF7B9FC01460090074874
:1015800000F044FA2846FFF7BEFC014600900348ED
:1015900000F03CFAF8BD0000804200500000154009
:1015A0008B00002070B5FFF765F8114908601148FD
:1015B000006945076D0F022D03D0A8000E490C5895
:1015C00001E00B4804680B4880690007000F461CC7
:1015D00031462046FEF76EFE084908600849074874
:1015E00000684A108018FEF765FE0649086070BD65
:1015F00008000020000200500C0000200000002025
:1016000040420F00040000207047000001201C49E8
:1016100088621C480088002804DD1A480088401EA3
:101620001849088018480088002804DD16480088FA
:10163000401E1549088015480088002804DD13481D
:101640000088401E1149088011480088002804DDE8
:101650000F480088401E0E4908800E480088002868
:1016600004DD0C480088401E0A4908800A480088AA
:10167000002804DD08480088401E0749088070479C
:10168000000001404A0000204C0000204E000020D5
:101690005000002052000020540000200120064984
:1016A000886006480088002804DD04480088401E41
:1016B00002490880704700000000114056000020D9
:1016C000214840690721090308431F49486108462A
:1016D0008068082108431C4988601C48006A890406
:1016E00008431A4908620846006A000A00020862B4
:1016F0000846006A0B210843144908627D20000156
:1017000048620846006A49030843104908620120FC
:1017100088620920012181400D4A116000BF0B48F9
:10172000006A012189060843084908620846006AE0
:1017300089030843054908620846006A0121090433
:10174000084302490862704700020050000001404F
:1017500000E100E024484069072109048843224948
:10176000486108464069090208431F494861084624
:101770008068102108431C4988601C48006889045F
:1017800008431A49086008460068000A0002086019
:101790000846006805210843144908605020486045
:1017A0000846006849030843104908600120886022
:1017B0000A20012181400E4A116000BF0B480068D9
:1017C0000121890608430949086008460068890321
:1017D00008430649086008460068012109040843D7
:1017E00002490860704700000002005000001140EC
:1017F00000E100E0FF20134AD169D269431C1A407E
:10180000002A1BD013E00F4A1268D0B20E4A1268A9
:1018100010700D4A1268521C0B4B1A601A4613685E
:101820000A4A934203D1FF3A013A074B1A60054A2C
:10183000926901239B031A40002AE4D0014AD2692D
:1018400070470000000015405C000020A40200204A
:1018500070B504460D4660682843606013488442B2
:1018600003D10C20FFF7C4FB1EE01148844203D1D2
:101870000D20FFF7BDFB17E00E48844203D10C207A
:10188000FFF7B6FB10E00C48844203D10F20FFF7AE
:10189000AFFB09E00948844203D11020FFF7A8FB01
:1018A00002E01120FFF7A4FB70BD0000000005401E
:1018B00000001540004015400040054000800540F4
:1018C00010B51A48FEF7DAFD002211461748FFF757
:1018D00009F805200007406B3021884305210907DE
:1018E00048630846406B30210843052109074863D7
:1018F0000F48FFF79DFDE12149020E4800F02AF84C
:1019000001210C48FFF7A4FF0D20012181400A4A64
:10191000116000BF09480A4908600A4908600A487E
:101920000A4908600A49086010BD0000113D80574F
:10193000110000040000154000E100E0A4000020B8
:101940005800002070000020A40100205C0000204E
:1019500074000020F0B587B004460D4627480146C4
:101960000EC9C06803AE0EC606900020029024483F
:101970004069032109060840060E214880690F21AD
:1019800009020840070A002020630320E060A068E5
:101990001C490840A060012E04D1FEF7E7FEB1000B
:1019A00003AA5050002D26D0B10003AA5058791C2C
:1019B000FEF780FC6908401829460190FEF77AFC82
:1019C000801E02901049029888420FD9B10003AAE4
:1019D0005058791CFEF76EFCE9004018294601902A
:1019E000FEF768FC0009801E606204E0032109071D
:1019F00002980843606207B0F0BD00000C1D0000B3
:101A0000000200500FFFF0FFFFFF000010B50A4674
:101A1000002105E0491C0123DB07994200D905E0BC
:101A200083690124E4052340002BF3D100BF012387
:101A3000DB07994200D2026010BD000008B545499D
:101A40000988C907C90F434A12889207D20F89181B
:101A5000404A12885207D20F89183E4A128812074C
:101A6000D20F89183B4A1288D206D20F8918394AF8
:101A700012889206D20F8918364A12885206D20F5F
:101A80008918344A12881206D20F8818C10F091813
:101A900049104900411A2F4A1288D205D20F9142AB
:101AA00001D1012200E00022009269460878002856
:101AB00043D028480088C007C00FC043264988612A
:101AC000244800888007C00FC04323498039C8607C
:101AD000204800884007C00FC04388601D48008828
:101AE0000007C00FC04348601A480088C006C00FF6
:101AF000C0431949C0398862164800888006C00F63
:101B0000C043C862134800884006C00FC043124952
:101B1000803108610F4800880006C00FC04348614B
:101B200001200E4908700C488038006B01280DD048
:101B3000012009498039086308E007488038006BB4
:101B4000002803D0002004498039086368460078E3
:101B500008BD00003A000020C0420050960000205E
:101B600010B50120FEF77EFD0120FEF7FFFE0A48BA
:101B7000FEF73AFE1820FEF7EFFE0848FEF77EFC5F
:101B8000002211460548FEF7ADFE0548FFF750FC60
:101B9000FFF708FD10BD000080F0FA02100000B34E
:101BA0001000000830B47446641E2578641CAB42F3
:101BB00004D3635D5B00E31830BC18471D46F8E7AB
:101BC000002500BF06E059203C4908601620086047
:101BD00088200860394800680128F4D100BFFFF769
:101BE000BFFFFFF76DFDFFF7B5FDFFF769FE00BF13
:101BF00000203249086000BFFFF796F9FFF7C6F9E9
:101C000001202F4908610020C8600846C0680128EB
:101C100002D064202B49088001202B4908702B48F2
:101C2000FFF7F4FB0A2027490880012028490870A3
:101C300042E01420FFF774F80446002C06D0FEF7AB
:101C4000A9FE0546012D01D1FEF736FF2048007898
:101C500000280BD001201A490862FFF701FC002080
:101C60001B4908701948FFF7D1FB1BE01548008895
:101C7000002817D117480078012813D10A20FEF751
:101C800007FF01200E4908620A20FEF701FFFFF757
:101C9000E7FB00200F4908700C48FFF7B7FB322024
:101CA0000D4908800C480088002805D1012008490A
:101CB0000870322008490880BBE70000000100508E
:101CC00000420050500000208B0000200000154012
:101CD0009600002097000020540000200000000023
:101CE000040000000C0000002400000000000000C0
:101CF000040000002C0000000000000000000000B4
:101D0000040000002C0000000000000000805101D1
:101D1000000000000000000000805101008051011F
:101D2000000000000000000000805101008051010F
:101D30000000000000000000008051015C1D000058
:101D4000000000209800000004010000F41D0000C5
:101D500098000020300900002001000080F0FA0205
:101D60003200000080F0FA02008051010000000003
:101D700080F0FA02102700000000000000000000C0
:101D80000000000000805101000000000000000081
:101D90000000000000000000000000000000000043
:101DA0000000000000000000000000000000000033
:101DB0000000000000000000000000000000000023
:101DC0000000000000000000000000000000000013
:101DD0000000000000000000000000000000000003
:101DE00000000000000000000000000000000000F3
:041DF00000000000EF
:040000050000016591
:00000001FF
