:020000040000FA
:10000000D80900207501000095010000970100004B
:1000100000000000000000000000000000000000E0
:100020000000000000000000000000009901000036
:1000300000000000000000009B0100009D01000086
:100040009F0100009F0100009F0100009F01000030
:100050009F0100009F0100009F0100009F01000020
:100060009F01000039230000C92300009F01000008
:100070009F010000212500009F0100009F0100005A
:100080009F0100009F0100009F0100009F010000F0
:100090009F0100009F010000191900005D19000078
:1000A0009F0100009F0100009F0100009F010000D0
:1000B0009F0100009F0100009F0100009F010000C0
:1000C00000F002F800F046F80CA030C808382418F8
:1000D0002D18A246671EAB4654465D46AC4201D180
:1000E00000F038F87E460F3E0FCCB646012633426C
:1000F00000D0FB1AA246AB4633431847E42F00005A
:1001000004300000103A02D378C878C1FAD85207F8
:1001100001D330C830C101D504680C6070470000BD
:100120000023002400250026103A01D378C1FBD813
:10013000520700D330C100D50B60704710B5782945
:1001400002D100F057F810BD002010BD1FB51FBD33
:1001500010B510BD00F0D4FA1146FFF7F7FF02F01A
:100160007DFC00F0ECFA03B4FFF7F2FF03BC00F0F3
:10017000F3FA00000D480E4901600E4901600E4976
:1001800001600E4A0E491160002101600D48804750
:100190000D480047FEE7FEE7FEE7FEE7FEE7FEE765
:1001A0000A480B49094A0B4B7047000000010050F8
:1001B00059000000160000008800000024000050D4
:1001C000A55A000035230000C1000000D80500201A
:1001D000D8090020D80500200FB4054910B503AA9E
:1001E000029800F061FA10BC08BC04B01847000087
:1001F0002C00002070B504460D4621461068C0460C
:10020000C0462188090502D50F4A7A4402E00E4A09
:100210007A440E3223460021243305E00607000904
:10022000360F965D5E54491C0028F7D120780023D4
:10023000000705D5702D03D0002901D0022311320B
:10024000204600F0D9F970BDAA2E0000F3B504468F
:10025000002081B020622046E1688847002872D0E3
:10026000252802D06268A1689AE0E168204600264D
:10027000884705460020E0610746A0612A2D0AD084
:10028000284602F0D7FB002827D0B8000019303DDF
:100290000090856119E00298BA00121902C89161B4
:1002A00002902046E1688847012F054617D1E06992
:1002B00000281FDA202086431CE000980A2180696C
:1002C000484300994019303888612046E1688847E2
:1002D000054602F0AFFB0028EFD1012F0AD02E2DEA
:1002E00008D12046E16888470546202006437F1C48
:1002F000022FC3DBA069002803DA4042A06101207D
:100300000643F00701D0102086436C2D0AD0682DDB
:1003100008D04C2D3CD06A2D38D0742D38D07A2D91
:1003200036D016E0E1682F4620468847B842054699
:100330000AD16C2F2AD001208002E16806432046B2
:100340008847054605E02FE06C2F1DD0FF200130C7
:100350000643002D28D028464138192803D801200B
:10036000C00206432035204626602946029A1646DA
:10037000FFF7E4FE002810D001280BD0F61DF0088E
:10038000C0000830029066E74020E1E78020D4E713
:100390000020D2E7361D02965DE762682846A16814
:1003A0009047206A401C55E7206AFEBD034670B5A1
:1003B00002460B439B070FD10E4CE60100E008C23A
:1003C00008C91D1B9D433542F9D0D9B21170521C8A
:1003D00000290DD01B0AF8E70B78491C1370521C3A
:1003E000002B05D00B78491C1370521C002BF3D145
:1003F00070BD0000010101010346F0B50B439B07EE
:100400002DD1244DEF01042A29D308C810C95E1B41
:100410009E43121F3E4017D0D8B2E1B2401A3106B7
:10042000014310D198B2A1B2401A310401430AD15C
:1004300018022102000A090A401A3102014302D1BE
:10044000180E210E401AF0BDA342DCD018BA21BA12
:10045000884201D90120F0BD0020C043F0BD002A30
:1004600001D10020F0BD03780C78401C491C002B02
:100470000DD0A3420BD1521E09D003780C78401C3A
:10048000491C002B03D0A34201D1521EEBD1181BF3
:10049000F0BD000001010101002203098B422CD3B1
:1004A000030A8B4211D300239C464EE003460B43C4
:1004B0003CD4002243088B4231D303098B421CD326
:1004C000030A8B4201D394463FE0C3098B4201D318
:1004D000CB01C01A524183098B4201D38B01C01A50
:1004E000524143098B4201D34B01C01A52410309C7
:1004F0008B4201D30B01C01A5241C3088B4201D376
:10050000CB00C01A524183088B4201D38B00C01A22
:10051000524143088B4201D34B00C01A5241411A49
:1005200000D201465241104670475DE0CA0F00D02C
:100530004942031000D34042534000229C46030925
:100540008B422DD3030A8B4212D3FC22890112BAAB
:10055000030A8B420CD3890192118B4208D3890183
:1005600092118B4204D389013AD0921100E089099B
:10057000C3098B4201D3CB01C01A524183098B427C
:1005800001D38B01C01A524143098B4201D34B0165
:10059000C01A524103098B4201D30B01C01A5241C8
:1005A000C3088B4201D3CB00C01A524183088B424F
:1005B00001D38B00C01A5241D9D243088B4201D3D8
:1005C0004B00C01A5241411A00D2014663465241C3
:1005D0005B10104601D34042002B00D549427047C2
:1005E00063465B1000D3404201B50020C046C046C0
:1005F00002BD704770477047FFB504460D4681B095
:10060000243000902168880604D51022E0699143C7
:10061000216000E00120A84201DD471B00E0002727
:100620000498A1697A191018081AA0612078C006E8
:1006300002D42046C046C046002608E003986268FF
:10064000A168805D9047206A401C761C2062049857
:100650008642F3DB2078C0060AD52046C046C04655
:1006600006E06268A16830209047206A401C206242
:1006700038467F1E0028F4DC07E000986268A16815
:10068000405D9047206A401C206228466D1E00286D
:10069000F3DC2046C046C0462078000602D5022082
:1006A00005B0F0BD0120FBE7084B70B50D467B445B
:1006B00000F013F80446284602F0C3F9002802D0DF
:1006C0000020C04370BD204670BD0000992300008B
:1006D00001694A1C02610878704700B58FB0029129
:1006E0000021059105490193794403911146049035
:1006F0006846FFF7ABFD0FB000BD0000E5FFFFFF50
:10070000754600F025F8AE46050069465346C00818
:10071000C000854618B020B5FFF742FD60BC002739
:100720004908B6460026C0C5C0C5C0C5C0C5C0C5BD
:10073000C0C5C0C5C0C5403D49008D46704710B515
:100740000446C046C0462046FFF70DFD10BD000020
:10075000004870477405002001491820ABBEFEE731
:1007600026000200704700001FB50C4C1ECC0394FD
:100770006C460EC4810F89006A465158084A891890
:100780004968C306DB0E01229A401143820F920092
:100790006B469A58024BD21851601FBD683000005A
:1007A00000020050F3B589B00C46012000045D49F9
:1007B00008620998002817D10846006801210843FB
:1007C00058490860012000F085FA00200690564F35
:1007D0005648874201D1022514E05348874201D18F
:1007E00004250FE002250DE04E480068042108436F
:1007F0004C490860102000F06DFA0120C0040690FA
:10080000494F04254A48844205D84010844202D901
:100810000020079014E04748844206D840108442E4
:1008200003D90120079064000AE04348844206D8B7
:100830004010844203D303200790A40000E059E055
:100840000020C043039000200190029034E029462C
:100850003846FFF721FE05903849059888422AD985
:1008600037490598884226D2022008901EE0059E4E
:1008700008994E432F48864215D34000864212D82D
:10088000A64201D9301B00E0A01B049003990498F4
:10089000884208D204980390019508980290039822
:1008A000002800D106E00898401C089025490898C7
:1008B0008842DCD900BF6D1C212DC8D90798800360
:1008C000069908430199891E490208430299891E25
:1008D000084314490862042000F0FCF90798401C02
:1008E000019A504301463846FFF7D6FD0299484326
:1008F0000BB0F0BD099800280BD10B49069888422F
:1009000003D011480749086206E01048054908620B
:1009100002E00E4803490862042000F0DBF900F011
:100920005DF8E5E70002005000805101001BB700B0
:1009300000C2EB0B00E1F50580F0FA02006A180036
:10094000C0E1E400010200002EC200006FD60000EA
:10095000024909680143014A1160704700020050D2
:10096000FEB5002002901AA0006800901948046AA1
:1009700000132040002801D00020FEBD0120C0044B
:100980002040002801D0144D00E0134D0120400408
:100990002040002801D02846EFE7032080032040B4
:1009A000800B69460A5C0192E005C00D861C1F2081
:1009B00040022040400A871C019A7A431146AA0847
:1009C00072431046FFF768FD800002900298D4E75A
:1009D000010202040002005000805101FEB5002017
:1009E00002901AA0006800901948046A0013204081
:1009F000002801D00020FEBD0120C00420400028B6
:100A000001D0144D00E0134D012040042040002887
:100A100001D02846EFE7032080032040800B694681
:100A20000A5C0192E005C00D861C1F204002204098
:100A3000400A871C019A7A431146AA08724310465D
:100A4000FFF72AFD800002900298D4E70102020419
:100A50000002005000805101FEB5002002901AA053
:100A6000006800901948046A00132040002801D053
:100A70000020FEBD0120C0042040002801D0144DFC
:100A800000E0134D012040042040002801D02846FA
:100A9000EFE7032080032040800B69460A5C019247
:100AA000E005C00D861C1F2040022040400A871C24
:100AB000019A7A431146AA0872431046FFF7ECFCEC
:100AC000800002900298D4E7010202040002005064
:100AD00000805101FEB5002002901AA0006800902D
:100AE0001948046A00132040002801D00020FEBDF0
:100AF0000120C0042040002801D0144D00E0134D17
:100B0000012040042040002801D02846EFE70320C0
:100B100080032040800B69460A5C0192E005C00D0D
:100B2000861C1F2040022040400A871C019A7A43FD
:100B30001146AA0872431046FFF7AEFC80000290EF
:100B40000298D4E701020204000200500080510123
:100B500070B504462248C068102108400546214867
:100B6000844200D904462048844200D204461C48EE
:100B70000068042108431A490860102000F0AAF810
:100B8000174800690721084315490861084680692C
:100B900000090001886108460068C007C00F0028EE
:100BA00005D061000020FFF7FDFD04460AE061006A
:100BB0000120C004FFF7F6FD04460948C068102173
:100BC000084005460121022000F010F8002D05D153
:100BD000034800680421884301490860600870BD2B
:100BE0000002005080F0FA0240787D0170B50446A2
:100BF0000D461548C0681021084006461248006896
:100C0000084311490860102000F064F80E4800699C
:100C1000C008C000C01D0C49086108468069000971
:100C200000012843886108460069C008C0002043CD
:100C3000086101F04DFB002E05D10348006810212A
:100C400088430149086070BD00020050F7B584B0C8
:100C500000220023184C2546E0CDE4680297019657
:100C6000009503948403240E002C0ED00403A40FDB
:100C7000A400124D63198403250E8405E40EA540DB
:100C80001C68AC43069D2C431C600401640F002CBF
:100C900010D08400A40FA4006D462C59074D083DC8
:100CA00062190401650FC401E40EA5401468AC4349
:100CB0000C43146007B0F0BD58300000180200501B
:100CC00003490969382291430143014A1161704780
:100CD000000200500146074A05E01046521E002857
:100CE00001DC002070470448C06808408842F4D105
:100CF0000120F7E7804F12000002005010B5AC4809
:100D00000078030001F088FE0EF10817285B6D8D56
:100D10009FD4E3F1F0EFEEF1A648C06A012806D1B6
:100D20000020A449C862A4A0FFF756FA02E00220FE
:100D30009F49087039E19F484030006B012807D176
:100D400000209C4940310863A0A0FFF745FA02E06B
:100D500003209749087028E1A148006900280AD1BA
:100D6000944840300069002805D19EA0FFF734FA6E
:100D700004208F4908709A48406900280AD18D489C
:100D800040304069002805D19BA0FFF725FA0420D8
:100D9000874908709D480088401C9C490880084687
:100DA00001889BA0FFF718FA98480088142805DDF1
:100DB0009BA0FFF711FA63207D490870F5E07D489C
:100DC000806A012806D100207A49886299A0FFF73D
:100DD00003FA05E000208D49088005207449087059
:100DE000E3E0744840308068002805D196A0FFF702
:100DF000F3F906206E49087084480088401C834936
:100E000008800846018882A0FFF7E6F97F4800883D
:100E1000142805DD91A0FFF7DFF96320644908700D
:100E2000C3E06448406A012806D100206149486255
:100E30008FA0FFF7D1F905E0002074490880072052
:100E40005B490870B1E06648006900280AD159483A
:100E500040300069012805D18AA0FFF7BDF90820BC
:100E6000534908705E48406900280AD15148403013
:100E70004069012805D188A0FFF7AEF908204C4948
:100E8000087062480088401C604908800846018854
:100E90005FA0FFF7A1F95D4800884B21C900884297
:100EA00005DD82A0FFF798F96320414908707CE0D6
:100EB0004048406A002806D101203E49486280A08F
:100EC000FFF78AF902E00920394908706DE03948D6
:100ED000806A00280AD10120364988627DA0FFF788
:100EE0007BF914E050E033E012E051E03148006A51
:100EF000012806D100202F4908627BA0FFF76CF97A
:100F000005E00020414908800B20294908704CE089
:100F1000284840308068012805D178A0FFF75CF9A7
:100F20000C202349087039480088401C3749088044
:100F30000846018836A0FFF74FF934480088142886
:100F400005DD73A0FFF748F96320194908702CE00C
:100F500018484030006B002807D01648006A002867
:100F600003D01448C06A00280AD101201149403139
:100F7000086310490862C8626AA0FFF72DF902E011
:100F80000D200B49087010E06BA0FFF725F90CE06D
:100F90006EA0FFF721F90120064940310863054999
:100FA000C86288624862086200BF00BF10BD0000CE
:100FB00060000020004200505365742043535F30AE
:100FC000204F6E2E202020200A0000005365742040
:100FD00056616C6964204F6E2E2020200A000000AC
:100FE000404300504C5F524551204F4E2E20202050
:100FF000202020200A000000555F524551204F4E0E
:101000002E202020202020200A0000006200002046
:101010005441436F756E74202578200A000000004B
:101020005441312054696D654F7574212120202071
:101030000A0000005365742054525F524551204FFE
:101040006E2E20200A0000005245414459204F4E88
:101050002E202020202020200A0000005441322091
:1010600054696D654F757421212020200A0000000D
:101070005365742042555359204F6E2E2020202056
:101080000A0000004C5F524551204F46462E20205A
:10109000202020200A000000555F524551204F4675
:1010A000462E2020202020200A000000436172727A
:1010B0006965722054696D654F7574210A000000DE
:1010C0005365742042555359204F66662E202020C8
:1010D0000A0000005365742054525F524551204F5E
:1010E00066662E200A00000053657420434F4D5061
:1010F00054204F6E2E2020200A000000524541440B
:1011000059204F46462E2020202020200A00000093
:101110005441332054696D654F757421212020207E
:101120000A00000056616C696426434F4D505426F6
:1011300043535F300A0000004538342046696E6929
:10114000736865642E2020200A000000416C6172E3
:101150006D21212120202020202020200A000000B5
:1011600070B50020384E3070384B1878332801DACB
:101170004C2070BD1D7828463038C5B25B1C002459
:1011800008E01878304E367880192F4E30705B1C8E
:10119000601CC4B2AC42F4DB2B480078001101465D
:1011A0003031392901DDC81DC1B227480078000758
:1011B000000F02463032392A01DDD01DC2B2187844
:1011C000884201D05320D4E75B1C1878904201D0AC
:1011D0005320CEE71D48417808463038C1B209296E
:1011E00001DDC81FC1B21948827810463038C2B23A
:1011F000092A01DDD01FC2B208018018C4B2144808
:101200000078844201D04E20B3E71048C078114ED8
:1012100030700E48007970700C484079B0700B48FF
:1012200080790D4E30700948C07970700748007A97
:10123000B0700648407AF0700448807A307101201E
:10124000064E307000BF94E79A000020740400201E
:101250009B0000209C0000209F000020A400002094
:101260000349088000BF024909880029FBD1704763
:101270005E0000200349088000BF02490988002958
:10128000FBD170475200002010B51D4800690028AE
:1012900003D01B484069002818D11A48007800285C
:1012A00027D101201749087015480069002803D18B
:1012B00015A0FEF791FF02E018A0FEF78DFF0020B9
:1012C0001B49088001201B49087012E00D48007876
:1012D00001280ED100200B49087017A0FEF77CFFF3
:1012E00001201A49086319494039C8628862486276
:1012F000086204480078012801D1FFF7FFFC10BD07
:101300004043005064000020453834204C6F616435
:10131000204F6E2E202020200A0000004538342067
:10132000556E4C6F6164204F6E2E20200A00000025
:10133000620000206000002045383420546573743A
:101340002053746F702E20200A000000404200508D
:1013500010B50446FF2201320021094800F0C8FD03
:1013600000F070FC9420FFF77BFF204600F00AF8A5
:10137000FF2201320021024800F0E9FD10BD00000B
:101380000000144010B504460021012000F052FE78
:101390002D20FFF765FF2088C107C90F032000F04B
:1013A00049FE2D20FFF75CFF20888007C10F032036
:1013B00000F040FE2D20FFF753FF20884007C10FAB
:1013C000032000F037FE2D20FFF74AFF208800079A
:1013D000C10F032000F02EFE2D20FFF741FF2088D3
:1013E000C006C10F032000F025FE2D20FFF738FFB7
:1013F00020888006C10F032000F01CFE2D20FFF77F
:101400002FFF20884006C10F032000F013FE2D207F
:10141000FFF726FF20880006C10F032000F00AFE18
:101420002D20FFF71DFF2088C005C10F032000F00D
:1014300001FE2D20FFF714FF0021022000F0FAFD2D
:1014400010BD00007FB501266C48007841B26846A7
:1014500001726A48407841B26846417267488078B4
:1014600041B2684681726648007841B268460170B0
:101470006348407841B2684641706148807841B223
:10148000684681705E48C07841B26846C1705C4869
:10149000007941B2684601715A48007801287DD12F
:1014A00059A103A8FEF782FF032203A902A8FEF7B1
:1014B000A3FF002873D100255448C47A54480088FB
:1014C000B043E107C90F0843514908800846008826
:1014D00002218843611049000222114008434C490F
:1014E00008800846008804218843A110890004224E
:1014F000114008434649088008460088082188436F
:10150000E110C900082211400843414908800846FB
:10151000008810218843211109011022114008433D
:101520003B49088008460088202188436111490111
:10153000202211400843364908800846008840218F
:101540008843A11189014022114008433049088095
:101550000846008880218843E111C901802211409A
:1015600008432B4908800A46128832400B461B88E4
:101570009B07DB0FD2180B461B885B07DB0FD218CB
:101580000B461B881B07DB0FD2180B461B88DB069C
:10159000DB0FD2180B461B889B0601E02AE01AE0FD
:1015A000DB0FD2180B461B885B06DB0FD2180B46ED
:1015B0001B881B06DB0FD018C20F121852105200E6
:1015C000821A120233021A401146114A12889A43B3
:1015D0000A430F4B1A800FA103A8FEF7E7FE032270
:1015E00003A902A8FEF708FF002805D101200A4937
:1015F000087001E0034800787FBD00009C000020D7
:101600009F000020A50000205345540074040020D2
:101610003400002041434B00A600002070B5034673
:1016200000200FE0012484400C40002C09D01C68ED
:1016300046000325B540AC4346001546B5402C4353
:101640001C60401C1028EDD370BD0000F0B50546AD
:1016500000260020234908802348006823490968A0
:1016600088423DD0002022490870012000F048F84F
:10167000044620480470012C01D1012000E0002024
:10168000022C01D1012100E000210843002827D0CD
:10169000FF27194805801DE01348006813490968B1
:1016A000884217D014480580012000F029F804462C
:1016B00012480C4909884454002E02D120462D3886
:1016C000C7B208480088401C06490880781EC7B287
:1016D000701CC6B208480088002801D0002FDBD15A
:1016E0003046F0BD980000206C00002084000020EF
:1016F000A4000020A50000205A000020740400204F
:1017000000B501460B0001F087F906041628394A96
:101710005B6C354A12681078334A1268521C324B9F
:101720001A601A461368314A934203D1FF3A013ACC
:101730002D4B1A6055E02E4A126810782C4A126818
:10174000521C2B4B1A601A4613682A4A934203D143
:10175000FF3A013A264B1A6043E0274A1268107894
:10176000254A1268521C244B1A601A461368234AF1
:10177000934202D1803A204B1A6032E0204A12682C
:1017800010781F4A1268521C1D4B1A601A461368C3
:101790001C4A934202D1803A194B1A6021E01A4A3E
:1017A00012681078184A1268521C174B1A601A46B1
:1017B0001368164A934202D1803A134B1A6010E024
:1017C000134A12681078124A1268521C104B1A60A1
:1017D0001A4613680F4A934202D1403A0C4B1A60E2
:1017E00000BF00BF00BD000080000020B401002049
:1017F00084000020B4020020880000203403002070
:101800008C000020B403002090000020340400204D
:10181000940000207404002001460A46CB171B0FD9
:101820009B181B113033D8B2392801DDC21DD0B24C
:10183000704701460A46CB171B0F9B181B05180E55
:1018400002018A1A3032D0B2392801DDC21DD0B26D
:101850007047000001200849086307494039C86201
:101860000549C863054908620349403988624862EE
:1018700008620149086270474042005040430050EE
:1018800001200649C8618863C86304494039C860BB
:10189000886048608861C86170470000C04200509D
:1018A00010B50122032189021248FFF7B7FE012279
:1018B000114910484030FFF7B1FE012240210D4888
:1018C000C030FFF7ABFE012230210C48FFF7A6FE27
:1018D00000200B4988610A498039C86088604860E7
:1018E0000649C0318862C862054980310861486193
:1018F00010BD0000004000500E100000404100509C
:10190000C0420050C206D20E01219140014A11602E
:101910007047000000E100E010B501210D4800F023
:101920004FFB002804D00C480078401E0A4908707C
:101930000021084800F09FF907480078002807D1E7
:101940000121044800F060FB0021024800F0E6FAA3
:1019500010BD0000000004403600002010B500213A
:10196000AF4800F011FB02210840022878D1C201E3
:101970000021AB4800F078F9AA4800690121090468
:10198000081AA9490880A9480078401CA74908708E
:10199000A548008832280BDDA34800885A2807DABA
:1019A000A3480078401CA24908700020A149087093
:1019B0009D4800885A280DDD9B480088FF212D3165
:1019C000884207DA9B480078401C9A49087000203A
:1019D0009749087094480088FF215F3188425FDD95
:1019E00093480078082811DB934800884005C00F11
:1019F00000280BD1904800880121890288434018B3
:101A00008D49088000208D49087016E088480078CC
:101A1000032812DB884800884005C00F00280CD03E
:101A2000854800888005C00F002806D182480088BC
:101A30000121C9028843804908807E48007808282F
:101A40000FDB7D4800888005C00F002809D17A4847
:101A5000008801214902884340187749088018E02E
:101A60009CE074480078032813DB73480088400525
:101A7000C00F00280DD0704800888005C00F0028D6
:101A800007D16D4800880121C902884340186A497E
:101A9000088000206649087066490870634908702C
:101AA000654800884005C00F002877D05E48008850
:101AB000FF215F31884271DD60480078030000F04B
:101AC000ABFF0A0607132231404F5E6E7D978FE011
:101AD000594909880905C80F574909884908490023
:101AE0000143554A118083E0534909880905C90F0C
:101AF00049000222114008464F4909889143014399
:101B00004D4A118074E04C4909880905C90F8900C4
:101B10000422114008464849098891430143464A36
:101B2000118065E0444909880905C90FC9000822E8
:101B30001140084640490988914301433E4A1180BB
:101B400056E03D4909880905C90F090110221140D5
:101B500008463949098891430143374A118047E0D3
:101B6000354909880905C90F490120221140084655
:101B700031490988914301432F4A118038E02E49A9
:101B800009880905C90F89014022114008462A49E0
:101B9000098891430143284A118029E03EE0264903
:101BA00009880905C90FC901802211400846224948
:101BB000098891430143204A118019E01E49098890
:101BC0000905C90F0902FF220132114008461A49CE
:101BD000098891430143184A118000F0C5FD184956
:101BE000088008460088002801D100F02BF800BFCB
:101BF00000BF114800888005C00F002802D000F007
:101C000021F80BE00D480078092805DA0B48007828
:101C1000401C0A49087001E000F014F810BD0000F3
:101C200000001440000214404A0000204800002038
:101C30004400002045000020420000204600002013
:101C40004E0000200020044908700449087004492F
:101C500008700449088070474400002045000020B7
:101C6000460000204200002010B513468B4095240A
:101C7000A400235010BD4A085300FF2201329A40AD
:101C8000E8231A5070470000FFB583B004460E46A3
:101C90000125304800903048844205D12F48406BE0
:101CA00029040840029005E02C48406B01214904BA
:101CB000084002900298002803D1FEF7CDFE0746A7
:101CC00003E000F005FB264807687D21C90038467F
:101CD000FEF7E2FB074601251BE02249694308465F
:101CE0003946FEF7D9FB01900599019888420DD23B
:101CF00001200003854200D10FE0681C19494143CF
:101D000001987843814200D807E000E005E0681CB4
:101D100085B2012000038542DFDD00BF681E81B26D
:101D20000D467008820020461430815060687200B1
:101D30000321914088437200012191400843606073
:101D40007108CA002146303100988850019807B0C8
:101D5000F0BD0000FFFF0000000004400002005042
:101D60000000002040420F00FFB585B004460D463C
:101D70000126594802905948844205D15848406B81
:101D800031040840049005E05548406B01214904A6
:101D9000084004900498002803D1FEF75DFE0390EC
:101DA00004E000F095FA4F4800680390012612E025
:101DB00007990398FEF770FB31460190FEF76CFB24
:101DC0000746012109048F4200D902E0B8B202900F
:101DD00004E0701C86B244488642E9DB00BF701CF8
:101DE000029A504301460398FEF756FB0746701EC1
:101DF00081B20E4668088200204614308150606827
:101E00006A000321914088436A0001219140084300
:101E100060600298401E81B26808C20020463030DF
:101E200002918150089800282ED0029A521C0899DD
:101E3000514308466421FEF72FFB401EAA002146AD
:101E400050318850B02000596A0028499140884399
:101E5000B0210851B02000596900103101228A4098
:101E60001043B0210851B42001596A001F48904026
:101E70008143B420015100596900103102228A4087
:101E80001043B421085124E00021AA00204650301C
:101E90008150B02001596A00144890408143B0201D
:101EA00001510059690001228A401043B0210851B4
:101EB000B42000596A000D4991408843B42108516B
:101EC000B42000596900103102228A401043B42125
:101ED0000851384609B0F0BDFFFF00000000044083
:101EE0000002005000000020FF0F0000030003006C
:101EF00010B525231B011B5814468C40A3432524F1
:101F00002401235010BD0000E0221258024B8B40E8
:101F10009A43E0231A5070470000010110B5E022F7
:101F200012584B085C00FF230133A3409A43E0237F
:101F30001A5010BD0122520212580A4301235B02BB
:101F40001A501A1D12580A431B1D1A50704710B51B
:101F500025231B011B5814468C40234325242401B0
:101F6000235010BDD82212580A43D8231A50704764
:101F700030B5E0231B584C086500FF240134AC4009
:101F80002343E024235030BD10B502469520800045
:101F90008058FF2301338B401840002801D00120D6
:101FA00000E00020400095239B009B5801248C40BA
:101FB0002340002B01D0012300E00023184310BD73
:101FC00010B50246E82080584B085C00FF2301331F
:101FD000A3401840002801D0012010BD0020FCE7DC
:101FE00030B5024600200CE0012383400B40002B5B
:101FF00006D0136A440865000124AC4023431362F1
:10200000401C0628F0D330BD30B5024600200DE05C
:10201000012383400B40002B07D0002543085B00C1
:102020001824634314463034E550401C0628EFD38F
:1020300030BD000070B505460C46012D06D0022DBE
:102040000ED0032D17D0042D33D128E00B202549C5
:1020500008702548254908600A202549086028E0BD
:102060000B20204908704B20C001204908600A203D
:102070001F4908601DE006201A490870002C06D18F
:1020800019481A4908600A201949086006E04B20DF
:10209000C001164908600A201549086009E00120BE
:1020A00010490870134811490860642010490860FD
:1020B00000BF00BF0E4803680C48026800210E48AC
:1020C000FFF752FE002211460B48FFF751FF012196
:1020D0000948FFF785FF00BF024800780028FBD1C0
:1020E00070BD0000360000204C3600003800002093
:1020F0003C000020C40900000000044010B5044664
:1021000000BFA0690121890508400028F9D00220FC
:10211000FFF7B0F800200149086210BD00420050EE
:10212000010E052212078918896801228240114395
:10213000020E05231B07D2189160010E1A4689185A
:102140008A68012181408A43010EC9188A6070475C
:1021500000B50346184600F001F800BD00BF0B496A
:1021600089690122D20511400029F8D10749086088
:102170000A280AD100BF054989690122D205114008
:102180000029F8D10D21014A116070470000154067
:10219000F8B500264A484069C001304348490969FA
:1021A000890108434749C96A490108434549896A81
:1021B00009010843434940314968C900084341497E
:1021C00040318968890008433E494031C968490067
:1021D00008433B4980398969084306463B27022466
:1021E0002146394800F0A8FA3946374800F0A4FAE9
:1021F000002536480078FFF70FFB04462146324899
:1022000000F09AFA2819C5B230480078FFF711FBA0
:10221000044621462C4800F08FFA2819C5B24724FD
:102220002146294800F088FA2819C5B245242146DC
:10223000254800F081FA2819C5B2542421462248C5
:1022400000F07AFA2819C5B2492421461E4800F048
:1022500073FA2819C5B24F2421461B4800F06CFAC6
:102260002819C5B253242146174800F065FA2819E9
:10227000C5B254242146144800F05EFA2819C5B2AC
:1022800053242146104800F057FA2819C5B2F4B279
:1022900021460D4800F050FA2819C5B22846FFF72C
:1022A000BBFA01460090084800F046FA2846FFF7BE
:1022B000C0FA01460090044800F03EFAF8BD000064
:1022C0004043005000420050000015409B00002099
:1022D00070B5FEF745FB11490860114800694507D4
:1022E0006D0F022D03D0A8000E490C5801E00B48D9
:1022F00004680B4880690007000F461C31462046E1
:10230000FEF7CAF8084908600849074800684A10FB
:102310008018FEF7C1F80649086070BD080000206B
:10232000000200500C0000200000002040420F007E
:10233000040000207047000001201C4988621C48EE
:102340000088002804DD1A480088401E18490880CB
:1023500018480088002804DD16480088401E1549EA
:10236000088015480088002804DD13480088401EB6
:102370001149088011480088002804DD0F480088B2
:10238000401E0E4908800E480088002804DD0C48D5
:102390000088401E0A4908800A480088002804DD99
:1023A00008480088401E0749088070470000014027
:1023B0005200002054000020560000205800002049
:1023C0005A0000205C000020012006498860064871
:1023D0000088002804DD04480088401E0249088067
:1023E00070470000000011405E0000202148406955
:1023F0000721090308431F494861084680680821EE
:1024000008431C4988601C48006A890408431A492B
:1024100008620846006A000A000208620846006A6C
:102420000B210843144908627D20000148620846D8
:10243000006A4903084310490862012088620920A4
:10244000012181400D4A116000BF0B48006A012143
:1024500089060843084908620846006A8903084358
:10246000054908620846006A012109040843024937
:1024700008627047000200500000014000E100E0E7
:1024800024484069072109048843224948610846D5
:102490004069090208431F494861084680681021C5
:1024A00008431C4988601C480068890408431A498D
:1024B000086008460068000A0002086008460068D4
:1024C0000521084314490860502048600846006808
:1024D0004903084310490860012088600A2001214F
:1024E00081400E4A116000BF0B4800680121890637
:1024F00008430949086008460068890308430649FB
:102500000860084600680121090408430249086080
:1025100070470000000200500000114000E100E0A0
:10252000FF20134AD169D269431C1A40002A1BD0EC
:1025300013E00F4A1268D0B20E4A126810700D4AAA
:102540001268521C0B4B1A601A4613680A4A9342CF
:1025500003D1FF3A013A074B1A60054A92690123F9
:102560009B031A40002AE4D0014AD2697047000058
:10257000000015406C000020B402002070B5044635
:102580000D466068284360601348844203D10C20E4
:10259000FFF7B8F91EE01148844203D10D20FFF780
:1025A000B1F917E00E48844203D10C20FFF7AAF9D5
:1025B00010E00C48844203D10F20FFF7A3F909E093
:1025C0000948844203D11020FFF79CF902E0112052
:1025D000FFF798F970BD00000000054000001540AD
:1025E00000401540004005400080054010B51A48E5
:1025F000FEF7BAF8002211461748FEF727FB052020
:102600000007406B302188430521090748630846CD
:10261000406B302108430521090748630F48FFF745
:102620007FFDE12149020E4800F02AF801210C4803
:10263000FFF7A4FF0D20012181400A4A116000BF6D
:1026400009480A4908600A4908600A480A490860B6
:102650000A49086010BD0000113D805711000004B8
:102660000000154000E100E0B400002068000020F8
:1026700080000020B40100206C00002084000020B5
:10268000F0B587B004460D46274801460EC9C0681C
:1026900003AE0EC606900020029024484069032134
:1026A00009060840060E214880690F2109020840EA
:1026B000070A002020630320E060A0681C4908404E
:1026C000A060012E04D1FEF705FAB10003AA505014
:1026D000002D26D0B10003AA5058791CFDF7DCFE6E
:1026E0006908401829460190FDF7D6FE801E029029
:1026F0001049029888420FD9B10003AA5058791C9A
:10270000FDF7CAFEE900401829460190FDF7C4FE16
:102710000009801E606204E0032109070298084353
:10272000606207B0F0BD0000883000000002005079
:102730000FFFF0FFFFFF000010B50A46002105E083
:10274000491C0123DB07994200D905E08369012474
:10275000E4052340002BF3D100BF0123DB0799429E
:1027600000D2026010BD000008B541490988C907C0
:10277000C90F3F4A12889207D20F89183C4A128823
:102780005207D20F89183A4A12881207D20F8918B5
:10279000374A1288D206D20F8918354A1288920613
:1027A000D20F8918324A12885206D20F8918304A3D
:1027B00012881206D20F8818C10F09184910490053
:1027C000411A2B4A1288D205D20F914201D101221F
:1027D00000E0002200926946087800283BD0244897
:1027E0000088C007C00F23498861214800888007FE
:1027F000C00F20498039C8601D4800884007C00FBD
:1028000088601B4800880007C00F4860184800888F
:10281000C006C00F1749C039886215480088800675
:10282000C00FC862124800884006C00F11498031AD
:1028300008610F4800880006C00F486101200E495A
:1028400008700C488038006B01280DD00120094920
:102850008039086308E007488038006B002803D0FF
:1028600000200449803908636846007808BD0000EC
:1028700042000020C0420050A600002010B50023F6
:102880007D22D20019461548FFF7FEF901211348B1
:10289000FFF7A6FB01211148FFF74CFB10484068E9
:1028A0000121090608430E49486008464068012195
:1028B000090408430A4948608A1500210748FFF7C0
:1028C00046FB172001218140064A116000BF00BF6E
:1028D0000248803000690028FAD010BD0000144082
:1028E0000002144000E100E010B51448FDF73CFF81
:1028F0000022012149041148FEF7A8F91048FFF70A
:102900000FFC05200007006B0421884305210907FF
:1029100008630846006B0421084305210907086382
:102920000848006A40218843064908620846006A50
:10293000402108430349086210BD0000110010B394
:10294000110000084000005010B505200007006B82
:102950000121090388430521090708630846006B24
:102960000121090308430521090708631548406A46
:10297000FF2101318843134948626423124A002130
:102980001248FFF7F1F901211048FFF7EBFA002197
:102990000E48FFF7C3FA00210C48FFF7B5FA1620DE
:1029A000012181400A4A116000BF0848C0304069D7
:1029B000012108430549C031486101210348FFF75F
:1029C0000FFB10BD40000050C83200000000044062
:1029D00000E100E010B50120FDF7BAFF0120FEF78D
:1029E00079F90A48FEF7B4F81820FEF769F90848A3
:1029F000FDF7BAFE002211460548FEF727F9054803
:102A0000FFF78EFBFFF764FC10BD000080F0FA02B8
:102A1000100000B31000000830B47446641E25781E
:102A2000641CAB4204D3635D5B00E31830BC184701
:102A30001D46F8E730380A2801D2012070470020EF
:102A4000704701460020C043704730B504460D462C
:102A50002046FFF77DFB204630BD0000002500BF6B
:102A600006E05920F94908601620086088200860AF
:102A7000F64800680128F4D100BFFFF7ABFFFFF76D
:102A8000B5FCFFF7FDFCFFF75FFFFFF72DFFFFF73A
:102A9000ADFD00BF0020ED49086000BFFFF7EEFE6E
:102AA000EB480068002802D1FEF7D4FE03E0FEF7F1
:102AB000E7FEFEF7F5FE0120E5490861C86008461B
:102AC000C068012803D07D200001E2490880012070
:102AD000E1490870E1490870AEE21420FEF7B6FD46
:102AE0000446002C06D0FEF73BFB0546012D01D124
:102AF000FEF7A8FCD648006800280AD1D84800880C
:102B0000002805D1FEF7C0FBFF209130D449088092
:102B100087E2CF48C06900287ED0CD48C068012830
:102B20007BD1CB49C031CA69012191430846CD49C7
:102B30000988490849000143CA4A1180C449C03183
:102B4000896BC9434900022211400846C5490988DA
:102B500091430143C34A1180BD49C031C96BC94388
:102B60008900042211400846BE4909889143014367
:102B7000BC4A1180B6498031C968C943C9000822DE
:102B800011400846B749098891430143B54A11806D
:102B9000AF4980318968C9430901102211400846B4
:102BA000B049098891430143AE4A1180A849803158
:102BB0004968C9434901202211400846A9490988AA
:102BC00091430143A74A1180A14980318969C943D2
:102BD0008901402211400846A249098891430143D6
:102BE000A04A11809A498031C969C943C90180222C
:102BF000114008469B49098891430143994A118035
:102C00001288D207D20F974B1B889B07DB0FD21875
:102C1000944B1B885B0701E0FAE131E1DB0FD2182E
:102C2000904B1B881B07DB0FD2188E4B1B88DB06D3
:102C3000DB0FD2188B4B1B889B06DB0FD218894BFE
:102C40001B885B06DB0FD218864B1B881B06DB0F2D
:102C5000D018C20F121852105200821A1202FF230B
:102C600001331A4011467F4A12889A430A437D4B2A
:102C70001A807D480088002817D11846FEF768FBA7
:102C8000FEF70EFE00207249403108637348007859
:102C900000280AD001206E490862FFF779FA002067
:102CA0006E4908707148FFF729FA4420704908807E
:102CB000E0E06D48008800287ED068480078002851
:102CC0000AD0012062490862FFF762FA00206349D6
:102CD00008706648FFF712FA0020634908805C49D3
:102CE000C031CA690121914308465E4909884908F3
:102CF000490001435B4A11805549C031896BC94382
:102D0000490002221140084656490988914301436F
:102D1000544A11804E49C031C96BC943890004220D
:102D2000114008464F490988914301434D4A11809B
:102D300047498031C968C943C90008221140084683
:102D40004849098891430143464A118040498031EE
:102D50008968C94309011022114008464149098880
:102D6000914301433F4A1180394980314968C94341
:102D700049012022114008463A49098891430143FC
:102D8000384A1180324980318969C943890140221A
:102D9000114008463349098891430143314A118063
:102DA0002B498031C969C943C901802211400846B5
:102DB0002C490988914300E042E00143294A1180EF
:102DC0001288D207D20F274B1B889B07DB0FD21824
:102DD000244B1B885B07DB0FD218224B1B881B0779
:102DE000DB0FD2181F4B1B88DB06DB0FD2181D4BE5
:102DF0001B889B06DB0FD2181A4B1B885B06DB0F68
:102E0000D218184B1B881B06DB0FD018C20F1218E4
:102E100052105200821A1202FF2301331A40114647
:102E2000104A12889A430A430E4B1A801846FEF73E
:102E30008FFA14200E4908800120054940310863AB
:102E40000348C069002815D119E0000000010050B6
:102E500000420050580000209B000020A6000020E7
:102E600056000020340000204E00002000001540D5
:102E70005400002071480088002800D019E7D0E0F5
:102E80006F48008800287DD000206D4908806D497A
:102E9000CA690121914308466B49098849084900DC
:102EA0000143694A11806749896BC943490002227D
:102EB000114008466449098891430143624A1180E0
:102EC0006049C96BC94389000422114008465E4924
:102ED0000988914301435C4A11805A494039C968C5
:102EE000C943C9000822114008465749098891433F
:102EF0000143554A1180534940398968C943090142
:102F000010221140084650490988914301434E4A16
:102F100011804C4940394968C94349012022114078
:102F200008464949098891430143474A1180454968
:102F300040398969C9438901402211400846424904
:102F4000098891430143404A11803E494039C9698B
:102F5000C943C9018022114008463B490988914371
:102F60000143394A11801288D207D20F364B1B8891
:102F70009B07DB0FD218344B1B885B07DB0FD21883
:102F8000314B00E033E01B881B07DB0FD2182E4BC0
:102F90001B88DB06DB0FD2182B4B1B889B06DB0F35
:102FA000D218294B1B885B06DB0FD218264B1B88D7
:102FB0001B06DB0FD018C20F121852105200821AD3
:102FC0001202FF2301331A4011461F4A12889A4306
:102FD0000A431D4B1A801846FEF7BAF97D200001FE
:102FE0001A490880012017498039086319E01748F9
:102FF0000088002815D1FEF725FE7D200001134929
:10300000088000200F4980390863FEF749FC08E07A
:103010000C488038006B002803D000200949803913
:1030200008630B480088002806D101200949087070
:103030007D20C000064908804FE5000054000020B4
:103040004E000020C04200503400002058000020F4
:103050005C000020A600002000000000040000002A
:103060000C0000002400000000000000040000002C
:103070002C00000000000000000000000400000020
:103080002C00000000000000008051010000000042
:10309000000000000080510100805101000000008C
:1030A000000000000080510100805101000000007C
:1030B00000000000008051013031323334353637A2
:1030C000383941424344454640305800303132336C
:1030D000343536373839616263646566403078006C
:1030E0000031000000000020A800000004010000E2
:1030F000A8310000A80000203009000020010000D5
:1031000080F0FA023200000080F0FA0200805101E3
:103110000000000080F0FA0210270000000000000C
:1031200000000000000000000080510100000000CD
:10313000000000000000000000000000000000008F
:10314000000000000000000000000000000000007F
:10315000000000000000000000000000000000006F
:10316000000000000000000000000000000000005F
:10317000000000000000000000000000000000004F
:10318000000000000000000000000000000000003F
:10319000000000000000000000000000000000002F
:0831A000000000000000000027
:040000050000017581
:00000001FF
