:020000040000FA
:10000000080700206501000085010000870100004D
:1000100000000000000000000000000000000000E0
:100020000000000000000000000000008901000046
:1000300000000000000000008B0100008D010000A6
:100040008F0100008F0100008F0100008F01000070
:100050008F0100008F0100008F0100008F01000060
:10006000F91700008F0100008F0100008F010000D0
:100070008F010000F11A00008F010000A11D000097
:100080008F0100008F0100008F0100008F01000030
:100090008F0100008F0100008F0100008F01000020
:1000A0008F0100008F0100008F0100008F01000010
:1000B0008F010000E10D00008F0100008F010000A2
:1000C00000F002F800F03EF80CA030C80838241800
:1000D0002D18A246671EAB4654465D46AC4201D180
:1000E00000F030F87E460F3E0FCCB6460126334274
:1000F00000D0FB1AA246AB4633431847782F0000C6
:10010000982F0000103A02D378C878C1FAD8520765
:1001100001D330C830C101D504680C6070470000BD
:100120000023002400250026103A01D378C1FBD813
:10013000520700D330C100D50B6070471FB51FBDFB
:1001400010B510BD00F040FD1146FFF7F7FF02F0BB
:10015000C1FA00F058FD03B4FFF7F2FF03BC00F052
:100160008DFD00000D480E4901600E4901600E49E9
:1001700001600E4A0E491160002101600D48804760
:100180000D480047FEE7FEE7FEE7FEE7FEE7FEE775
:100190000A480B49094A0B4B704700000001005008
:1001A00059000000160000008800000024000050E4
:1001B000A55A0000F5170000C10000000803002048
:1001C0000807002008030020002203098B422CD3DB
:1001D000030A8B4211D300239C464EE003460B4397
:1001E0003CD4002243088B4231D303098B421CD3F9
:1001F000030A8B4201D394463FE0C3098B4201D3EB
:10020000CB01C01A524183098B4201D38B01C01A22
:10021000524143098B4201D34B01C01A5241030999
:100220008B4201D30B01C01A5241C3088B4201D348
:10023000CB00C01A524183088B4201D38B00C01AF5
:10024000524143088B4201D34B00C01A5241411A1C
:1002500000D201465241104670475DE0CA0F00D0FF
:100260004942031000D34042534000229C460309F8
:100270008B422DD3030A8B4212D3FC22890112BA7E
:10028000030A8B420CD3890192118B4208D3890156
:1002900092118B4204D389013AD0921100E089096E
:1002A000C3098B4201D3CB01C01A524183098B424F
:1002B00001D38B01C01A524143098B4201D34B0138
:1002C000C01A524103098B4201D30B01C01A52419B
:1002D000C3088B4201D3CB00C01A524183088B4222
:1002E00001D38B00C01A5241D9D243088B4201D3AB
:1002F0004B00C01A5241411A00D201466346524196
:100300005B10104601D34042002B00D54942704794
:1003100063465B1000D3404201B50020C046C04692
:1003200002BD7047704770470246C80FC00781433F
:100330004B0030B54B405B009B0D20D01923DB06F2
:10034000C91801231B05994220DB0324A4070425B7
:100350001346AB400BD3002B04D1EB0613409B009C
:10036000E34204D401246407002312195941FF23F6
:100370001B0599420BD2C9000143500F09E0CB0283
:1003800004D501430803024305D0054830BDFF21D1
:10039000C905084330BD084607210905884330BD1B
:1003A0000000C07FF0B50C46871A9C410D46861AA6
:1003B0009D4103D2C01BA141D21963410D0D1F0DF8
:1003C000C94EEC1BAE435CD07F057F0D0026002F8D
:1003D00051D02D05AC46A943DD020123ED0A1B05D2
:1003E0001D4320231B1B24D41746E74038187141B6
:1003F0002F46E740CC199D402818314661410C0D2D
:1004000027D161449A4013D50023401C5941520022
:100410000ED14008400001224B005205D34207D3C1
:1004200005204007C14201D5B04900E0B04930463F
:10043000F0BD6B00002A00D001229A181F23203C37
:100440001B1B01D5002302E0E540281871410C0D6B
:10045000D7D0012424050919C407CD07400849084D
:10046000E40F28436144002CD5D00024401C614196
:100470009A40D0D1CDE76A05520DD9D1C90FC9072D
:10048000D5E79C4D4E00002801D0012400E0002457
:1004900034195F00002A01D0012600E00026BE19B1
:1004A000954FAC420CD8AE420AD8B44206D00125D2
:1004B0006D05EC42BCD010461946F0BD9942FCD007
:1004C00000203946F0BDF0B51FB40C460F46811A26
:1004D0009F412546861A9D4106D20125ED076F40B2
:1004E000401ABC4152187B41210D1E0D8D1BAC469C
:1004F0007D4D8D437ED075056D0D7CD00D05AE46CE
:10050000AC431B031B0B794D52429D412023664691
:100510009B1B14D31746F7403818002600907441EF
:1005200060462F460741E41900989D40281866410F
:1005300016D4714671189A4025D5012320E09318EE
:100540002A466A415200002B00D0521C1E23203E36
:100550009B1B002B61DD3541EE1728186641E8D55D
:10056000001876415B1C9A4000D3401C4B05F318E1
:100570001524E34010D3002B52D071467118D30FCD
:10058000C01802D3491C05B0F0BD0123DB079A4215
:10059000F9D140084000F6E701225205B21801D116
:1005A000002853D00123CC0ADB029943891E002A7C
:1005B00008D1020C03D0020C0004103902E00246FC
:1005C000002020390023550B05D112020823550BBA
:1005D00001D152010D23550C01D112011B1DD50C67
:1005E00001D192009B1C150D01D152005B1C2025EE
:1005F000EE1A01E02CE022E00546F5401543984054
:10060000CA1AE10769181305C918002ABBDA0320C2
:1006100040070818C10FC9070FE071466118B2E71B
:10062000F10740080843711071444A000CD00123BF
:100630005B059A42A7D2C90FC9070020A3E7490565
:10064000490D26D1002001E00028F4D100219AE7CD
:10065000284D6600002801D0012100E0002171181A
:100660005F00002A01D0012600E00026BE19224FBB
:10067000A94210D8AE420ED8B14208D001256D056E
:10068000E94206D01946A802414010467BE79C4249
:1006900001D0214677E70020394674E710B50C46B3
:1006A0005C4005D50124E4076340FFF70CFF10BD53
:1006B000FFF778FE10BD30B40C465C4004D5012431
:1006C000E407634030BC6DE630BCFCE670B5012445
:1006D000E40761400D465D4002D4FFF763FE70BD44
:1006E0006340FFF7F0FE70BDFF0700000000F0FF61
:1006F0000000F07F0000E0FF0000F87F1F22030CE5
:1007000002D10F22000402D0030E03D004E0002027
:10071000014670470002083A030F01D10001121F81
:10072000830F01D18000921E002801DB4000521E81
:10073000120551184205C012411810467047C10FEA
:10074000C90700D04042012292071143D6E7012198
:100750008907D3E7F0B58B4C0F09254689B0BD4317
:100760007BD01D092646AE43FAD00E465E40274098
:10077000F60F3E43254071D024012142FBD0FF24D7
:10078000AD19A4042D1B039501252D05DB02DB0A01
:10079000C9022B43C90A29431E010901040F130F83
:1007A000050121431701880B820391432D098C46D3
:1007B000A90B1E438A039543B30B9A0396433F0943
:1007C000BA0B9403A74302962E467E430497B6467F
:1007D0004E19D7190C460196544305977E43371B93
:1007E0007646BF1B3601B646BE0B361900967646D6
:1007F000BC043719009C01D3641C00946400002FD2
:1008000001D001263443029E049F754366467E4311
:100810000496760034196E0034190094029C019EEF
:100820001C196643751BAE46069465464519059C22
:1008300005956C43594375460891691A0191049EC8
:1008400001465143A41B0491611A009C0791E106E3
:1008500005D061090122114302E072E06EE06109F6
:10086000089D00272C0A2D066918049D7C412A0A40
:100870002D066918019D6241AC0DAD026D18544101
:10088000079A910D920255196141029A64465843A4
:100890005443069B059A5A43121A131B9A0E9B0146
:1008A0005B187A41010B0005C3185141220A20064A
:1008B00044195A419A4200D2491C01204002814207
:1008C00003D315230226F64302E014230326F6433E
:1008D0002020C51AA9401746AF40DA400A432046F7
:1008E0000399D8400914731819055118039A38430D
:1008F000D2075140AC4009D00122944006D30022D7
:10090000401C5141002C01D1400840001E4A934236
:1009100012D3012203989206904207DB052040077C
:1009200009181A480143C012414004E0032040075F
:100930000818C10FC907002009B0F0BD0020F10759
:10094000FAE705180C464C4111486D42A04115D3F9
:1009500094181A465A410E48644290410ED3012021
:100960004A004005824209D35A00824206D35940C8
:10097000C90F084AC90700201143DDE700200649D6
:10098000DAE700000000FF07FE070000FFFFFF7F1F
:100990000000E0FF0000F07F0000F87F0121C905A2
:1009A0000123411842001B06D3185B0E0AD0C11068
:1009B0000722D206891840075242D14201D552007F
:1009C00089187047090208D50146002A03D0C10FD3
:1009D000C9070020704710467047420202D000202D
:1009E00002497047072109050143F4E70000F87F39
:1009F0000102C21504D00123DB071943002A0ADBD8
:100A00009E239A1A02D40846D0407047FF22410024
:100A10001206914201D900207047C017C0437047A9
:100A20001F22030C02D10F2200041CD0030E01D19F
:100A30000002083A030F01D10001121F830F01D1F8
:100A40008000921E002801DB4000521ED205511882
:100A5000021251181922904004D3491C002801D1D8
:100A60004908490008467047C10FC90700D04042F5
:100A7000012292071143D3E701218907D0E7000043
:100A8000F8B5224C4E00069DA6420AD8A64201D1D6
:100A9000002806D15E00A64203D8A6420AD1002A49
:100AA00008D00D24240425422CD02946002000F033
:100AB00061F8F8BD0C461C430CD4994202D0EFF308
:100AC0000080F8BD904202D0EFF30080F8BDEFF354
:100AD0000080F8BD09242407E5008B4206D0EFF31F
:100AE0000080A043591A06D2284304E0101A05D307
:100AF000EFF30080A04380F30088F8BDEFF300809F
:100B0000A043F1E7009500F04DF8F8BD0000E0FFCC
:100B100010B5FF231B0644009C421DD84C009C428C
:100B20001AD80346124A0B4307D4401A02D3EFF3F4
:100B3000008010BDEFF3008010BD081A06D2EFF35D
:100B4000008001219043C907084302E0EFF30080D1
:100B5000904380F3008810BD0D231B041A4204D07B
:100B60001146002000F006F810BD00F025F810BD79
:100B700000000090C80212D54803400F002804D09E
:100B8000C803C043012188407047EFF30080000193
:100B9000000903210907084380F3008870470020FB
:100BA0007047000010B500200249029A00F033F8A7
:100BB00010BD00000000F87F10B5024800F02BF8CF
:100BC00010BD00000000C07F754600F053F8AE462F
:100BD000050069465346C008C000854618B020B5D8
:100BE000FFF7D6FA60BC00274908B6460026C0C504
:100BF000C0C5C0C5C0C5C0C5C0C5C0C5C0C5403DD5
:100C000049008D46704710B50446C046C046204690
:100C1000FFF7A1FA10BD10B50C461107090F0929FD
:100C200004D00A290AD008290CD104E01146082072
:100C3000FFF7A0FF06E0510606D501E0510601D5F9
:100C40000120C007214610BDD10607D501010909C1
:100C5000CC084907000E0006044309E0410F2002BA
:100C60004907000A0143200E00061D22D14101431D
:100C70000846E7E700487047A40200200149182011
:100C8000ABBEFEE7260002007047000000B587B04B
:100C90004F49886B19214901FFF796FA04904C4996
:100CA000C86B19214901FFF78FFA05904849086C74
:100CB00019214901FFF788FA0690464A04995143E1
:100CC0000846CD218900FFF77FFA0190414901983C
:100CD000884201DA084601903E4A0199881AFF21AC
:100CE0009131FFF77BFA01900198022801DC002086
:100CF00001900198C117090E09180904090E344A18
:100D000091750198C117090E091809120902411AB3
:100D1000CAB22F49CA75304A059951430846CD21B8
:100D20008900FFF751FA02902B490298884201DAB4
:100D300008460290284A0299881AC117890F091893
:100D40008910029102981E2801DC0020029002986E
:100D5000C117090E09180904090E1D4A11760298D7
:100D6000C117090E091809120902411ACAB2184915
:100D70004A761A4A069951430846CD218900FFF761
:100D800023FA039015490398884201DA0846039034
:100D9000124A0399881A2821FFF720FA0390039832
:100DA000022801DC002003900398C117090E0918DE
:100DB0000904090E064A11770398C117090E09188C
:100DC00009120902411ACAB201494A7707B000BDA7
:100DD0004C02002010270000204E0000C409000033
:100DE0000EB52948006BC007C00F00284AD026481E
:100DF000C06980B200902448806980B20190224886
:100E0000406980B202902048006B012108431E49CE
:100E100008631E480068009940181C49086008468D
:100E2000406801994018194948600846806802994D
:100E300040181649886016480068401C144908602C
:100E4000084600681921490188421BD30020104937
:100E500008600E4800680F4988630C4841680D48D7
:100E6000C1630A4881680B48016400200749086093
:100E700048608860084800680121C902884340181A
:100E8000054908600EBD000000000E4098020020D9
:100E9000180000204C02002000000020002005491E
:100EA0004861054908630862082004494872002027
:100EB0008872704740430050404200504C0200206E
:100EC00007E0F02101E04A1ED1B20029FBDC421EFE
:100ED00090B20028F5DC704706E01D2100BF0A46ED
:100EE0004B1ED9B2002AFAD10246431E98B2002AFC
:100EF000F3D1704706E02F2100BF0A464B1ED9B23E
:100F0000002AFAD10246431E98B2002AF3D1704754
:100F100000201A4908721A48006A002805D10846BC
:100F2000007A01210843154908721548406A0028D3
:100F300005D11248007A022108431049087210486E
:100F4000806A002805D10D48007A042108430B4926
:100F500008720B48C06A002805D10848007A0821A9
:100F600008430649087207480069002805D103486C
:100F7000007A102108430149087270474C02002092
:100F8000004200504043005000B5FFF7C1FF9848B1
:100F9000007A002803D197490860FFF77FFF944843
:100FA000007A02280DD19248807A002802D10120CF
:100FB0008F4988728E48807A0C2802D10D208C4986
:100FC00088728B48007A032846D18948407A0421E8
:100FD0000840002828D10220854988720846007BF5
:100FE000002809D10120844948618148407A0121C3
:100FF00008437F49487208E00120804908637C4823
:10100000407A022108437A4948720320784988725D
:10101000052177484030017176480068400840005B
:10102000401C7449086017E07148807A082802D192
:1010300009206F4988726E48807A0B280CD10C20E9
:101040006B49887200216A48403001726948006823
:1010500010218843674908606548007A072836D11F
:101060000420634988720021614840300171614861
:101070000068400840005F4908605D48407A0421EC
:101080000840002816D101205C4908625848407A7F
:1010900004210843564948720520887205215448A6
:1010A000403041715348006802218843801C5149F7
:1010B00008600CE008204E49887200214C484030FE
:1010C000C1714C480068082188434A490860484873
:1010D000007A0F286DD106204549887200214448C6
:1010E000403041714348006802218843414908600B
:1010F00079213F48403081713E480068042188438F
:10110000001D3C4908603A48007B012826D1384838
:10111000407AC007C00F002820D0072034498872C9
:1011200000213348403081713248006804218843EF
:101130003049086079212E484030C1712D4800683F
:101140000821884308302B49086000202A4948615B
:101150002748407AFE210840254948722448007BF0
:10116000002826D12248407A02210840022820D1B6
:1011700007201F49887200211D48403081711D4899
:101180000068042188431B4908603C21184840300E
:10119000C171184800680821884308301549086063
:1011A0000020164908631248407AFD210840104982
:1011B00048720F48007A132818D10A200C49887207
:1011C00000200E4908620A48407AFB21084008497D
:1011D00048720B208872052105484030017205488D
:1011E00000681021884310300249086000BD0000EB
:1011F0004C020020040000204043005040420050B8
:1012000000B54E480078C007C00F002818D04C48E1
:101210000079002814DD4A480079401EC1B24848D0
:101220000171007900280BD1444800684008400053
:1012300042490860212042494039C872FFF72EFE1A
:101240003E4800788007C00F002818D03C484079FD
:10125000002814DD3A484079401EC1B23848417137
:10126000407900280BD13548006802218843334972
:101270000860222032494039C872FFF70FFE2F481C
:1012800000784007C00F002818D02D48807900282A
:1012900014DD2B488079401EC1B2294881718079C4
:1012A00000280BD1254800680421884323490860A1
:1012B000232023494039C872FFF7F0FD1F4800780A
:1012C0000007C00F002818D01D48C079002814DD81
:1012D0001B48C079401EC1B21948C171C0790028AD
:1012E0000BD116480068082188431449086024205F
:1012F00013494039C872FFF7D1FD10480078C00685
:10130000C00F002818D00E48007A002814DD0C48C1
:10131000007A401EC1B20A480172007A00280BD13F
:1013200006480068102188430449086025200449C4
:101330004039C872FFF7B2FD00BD00000400002074
:101340008C0200200021404A91734049896B012999
:1013500005D11146897B012211433B4A91733B49D8
:10136000C969012905D13849897B02221143364ACE
:10137000917336498969012905D13349897B042252
:101380001143314A917331498039C968012905D126
:101390002D49897B082211432B4A91732A49897B65
:1013A0004907490F072911D12749097B00290DD188
:1013B0000121254A11731146897F002906D124494C
:1013C0000968082291430831214A11601E49897B2E
:1013D000F8221143F82924D11B49097B012920D186
:1013E0000021194A1173002217492031CA73184984
:1013F0000968012292029143154A11601146096859
:1014000008229143124A116000210F4A917700206F
:1014100005E000220C491F310A54411CC8B21028B3
:10142000F7DB0A494039C969002906D10649497BD9
:1014300001221143044A517305E00349497BFE220E
:101440001140014A517370474C020020C0420050C5
:1014500000000020002242494A608A600A7302228A
:101460004A7300228A73CA730A614A613D494A601D
:101470008A600A7302224A7300228A73CA730A615D
:101480004A610021384A1160384A1160384A1170A7
:101490000321517000219170D170117151719171BE
:1014A00000223349CA710121324A11622E4909686A
:1014B00001225203914389182B4A116000212C4AC2
:1014C00011720821517200219172D17211735173FE
:1014D0009173D17311745174917400222449CA74A8
:1014E0000021234A1175002221494A750021204A12
:1014F000917500221E49CA7500211D4A11760022ED
:101500001B494A7600211A4A917600221849CA7668
:101510000021174A1177002215494A770021144A01
:101520009177002005E0002211491F310A54411C27
:10153000C8B21028F7DB00220D492031CA73002100
:101540000B4A11635163916300220949CA630A641B
:1015500040310A714A718A71CA710A724A727047BF
:101560001C010020340200200000002004000020A4
:101570004C0200204043005025480079C007C00FAE
:10158000002809D00020234988632148007C0121DC
:1015900008431F49087408E001201E4988631C485D
:1015A000007CFE2108401A4908741948007902217C
:1015B0000840022809D10020164948631448007CDD
:1015C000022108431249087408E0012011494863C8
:1015D0000F48007CFD2108400D4908740C48007933
:1015E00004210840042809D100200A49086308485A
:1015F000007C042108430649087408E001200549DD
:1016000008630348007CFB210840014908747047C7
:101610004C0200200042005010B503460020042177
:1016200005E0084A525C1218D0B24A1CD1B2994265
:10163000F7DB0246C417640EA418E411E401041B8E
:10164000E0B210BD1C00002010B513480088C00493
:10165000C00F002806D01148407B022108430F49E3
:10166000487305E00D48407BFD2108400B49487355
:10167000094800784007C00F002802D000F038F871
:1016800001E000F00DF804480068012109038843D7
:1016900040180149086010BD000000204C020020E5
:1016A00000B540200F490870302048703120887004
:1016B0000220C870522008714D2048715320887153
:1016C0000320C8710820FFF7A7FF06490872092107
:1016D0000548416001200549086102210248017363
:1016E00000BD00001C0000201C0100200042005032
:1016F00070B52948807901022748C0790C1840202C
:101700002649087030204870312088700220C87047
:101710004120087146204871432088716421204689
:10172000FEF752FD06460A21FEF74EFD0D462846FD
:1017300000F0C7FF1949C8710A212046FEF744FD91
:1017400006460A21FEF740FD0D46284600F0B9FF87
:10175000124908720A212046FEF736FD0D4628463A
:1017600000F0AFFF0D49487230208872C8722C20FB
:10177000087342204873032088730F20FFF74CFF43
:101780000649C873102106484160012005490861D7
:1017900002210348017370BD4C0200201C00002090
:1017A0001C0100200042005000B502200F4988773C
:1017B000012001F06BF9002801D0012000BD7D203F
:1017C000C000FFF789FB022001F060F9002801D07A
:1017D0000120F3E706480078C82801D10120EDE791
:1017E0000120024988770020E8E700004C02002031
:1017F0001400002070470000012071498860714882
:10180000006AC91408436F4908626F480068401EA7
:101810006D49086008460068002809D11920400178
:1018200008606A48006840084000401C674908603A
:1018300067480068401E664908600846006800283E
:1018400009D1FF2091300860604800680221884378
:10185000801C5E4908605F48807B002828DD5D4869
:10186000807B401EC1B25B488173807B00281FD102
:1018700056480068402188434030544908600021A0
:10188000544801614069FF210431884207D24F4822
:1018900000688021884380304C49086008E00021BE
:1018A0004C484161494800684021884347490860E5
:1018B0004848007B002811DD4648007B401EC1B22D
:1018C00044480173007B002808D100214148816011
:1018D00041484068022108433F4948603D48407BF9
:1018E000002811DD3B48407B401EC1B2394841739E
:1018F000407B002808D1354800684021884333499F
:1019000008600020354908613548807B00282BDDC0
:101910003348807B401EC1B231488173807B0028F0
:1019200022D12A480068FF21013188434018274905
:10193000086000212A4801614069FF210431884282
:1019400008D22248006801214902884340181F49F3
:10195000086009E00021224841611C480068FF211D
:1019600001318843194908601D48007B002811DDBA
:101970001B48007B401EC1B219480173007B002840
:1019800008D10021164881601648406802210843AA
:10199000144948601248407B00280FDD1048407B06
:1019A000401EC1B20E484173407B002806D1074853
:1019B0000068FF2101318843044908607047000036
:1019C0000000014000000E400C000020000000203C
:1019D000100000201C010020004005400042005083
:1019E0003402002000001540214840690721090207
:1019F00008431F49486108468068042108431C4980
:101A000088601C480068890408431A490860084631
:101A10000068000A00020860084600680B210843BD
:101A2000144908600920000248600846006849031C
:101A30000843104908600120886008200121814086
:101A40000D4A116000BF0B48006801218906084358
:101A5000084908600846006889030843054908608A
:101A600008460068012109040843024908607047DC
:101A7000000200500000014000E100E030B5002508
:101A800000201949087006E000BF00BF1648007822
:101A9000401C1549087015484068002803D11248B9
:101AA0000078C828F0DB10480078C82801D1002051
:101AB00030BD0220FFF71EFA00240BE00420FFF7E0
:101AC00019FA6D1009484068002801D080200543AC
:101AD000601CC4B2082CF1DB0620FFF70BFA1920BA
:101AE000FFF7FAF92846E3E71400002040420050CF
:101AF0002849C969FF2201321140002922D0254915
:101B00000968C8B224490988C905C90F00293FD10D
:101B100022494969491C214A51611146CA7B8A738D
:101B200009691F4A50541D490969491C1B4A116122
:101B300011460969FF220432914229D9002217492E
:101B40000A6125E01349C9690122520211400029A6
:101B50001ED01249496800290FD010498968104ADF
:101B6000515C0C4A11600D498968491C0B4A91600F
:101B700011464968491E51600AE006494968022237
:101B80009143044A5160022204494A7300224A6187
:101B900070470000000015400000002034020020C3
:101BA0003401002034488068012149040843324947
:101BB0008860084640690321090608432E494861A8
:101BC000084680690F21090288432B498861052056
:101BD0000007406B30218843052109074863084608
:101BE000406B302108430521090748630D2001217E
:101BF0008140224A116000BF2148806806210843C5
:101C00001F498860084680681E4908401C49886052
:101C10000846406A51050843194948620846406A27
:101C20001105084316494862084640680221884366
:101C3000134948600846406801210843104948603C
:101C40000846C068082188430D49C8600846C06836
:101C5000042188430A49C8600846C0680321084334
:101C60000749C8600846406A074908430449486272
:101C700003210648C17370470002005000E100E0F4
:101C8000000015400FFFF0FFFE08000034020020A6
:101C900010B53E48007802280AD000213C48416136
:101CA0003C480068FF21013188433A49086010BD73
:101CB00036480079312812D135484069072803D1C8
:101CC0003248407833280AD00021314841613148F8
:101CD0000068FF21013188432E490860E7E72B485F
:101CE0000079362812D12A4840690D2803D12748A7
:101CF000407839280AD000212548416125480068EC
:101D0000FF210131884323490860D0E72049097D3C
:101D1000891EC8B200F05EFB0446204600F0C7FCF6
:101D20001B494969491E194A515C884221D1204604
:101D300000F0B4FC16494969891E144A515C884276
:101D400017D110460079312802D0362806D102E09A
:101D500000F032FC05E000F04DFB02E000F054FC26
:101D600000BF00BF00200C49C86300210B4841722E
:101D700009E000210648416106480068FF21013161
:101D800088430449086000BF91E700003401002047
:101D90003402002000000020004200508C0200208D
:101DA0002849C969FF2201321140002922D0254962
:101DB0000968C8B2244909784906C90F00293FD1EA
:101DC00022494969491C214A51611146CA7B8A73DB
:101DD00009691F4A50541D490969491C1B4A116170
:101DE00011460969FF220432914229D9002217497C
:101DF0000A6125E01349C9690122520211400029F4
:101E00001ED01249496800290FD010498968104A2C
:101E1000515C0C4A11600D498968491C0B4A91605C
:101E200011464968491E51600AE006494968022284
:101E30009143044A5160022204494A7300224A61D4
:101E40007047000000400540000000201C010020F9
:101E50001C0000204348006BFF2101310843414929
:101E60000863084640690321090608433D49486163
:101E7000084680690F21090288433A4988613A4837
:101E8000006AC0218843384908620846406A0C212C
:101E900008433549486205200007006B0C21884340
:101EA0000521090708630846006B0C21084305213A
:101EB000090708630F20012181402C4A116000BFEF
:101EC0002B488068062108432949886008468068B5
:101ED00028490840264988600846406A5105084359
:101EE000234948620846406A110508432049486270
:101EF00008464068022188431D49486008464068FA
:101F0000012108431A4948600846C06820218843D7
:101F10001749C8600846C068102188431449C86042
:101F20000846C068082108431149C8600846C068CF
:101F3000042188430E49C8600846C06880088000B4
:101F4000C8600846C068022108430949C8600846BD
:101F5000406A094908430649486203210748C1739A
:101F600070470000000200504000005000E100E017
:101F7000004005400FFFF0FF3E0200001C01002062
:101F800070B52F4C246801252D03AC432C4D2C60DB
:101F90002C4624786407E40F002C06D02C462468D5
:101FA0000425AC43264D2C6048E0264C247DA41E1D
:101FB000E0B2441EE0B206E0234C245C2C2C00D19D
:101FC00003E0441EE0B20028F6DC00BF0346441ED6
:101FD000E0B206E01C4C245C2C2C00D103E0441E33
:101FE000E0B20028F6DC00BF0022441CE1B211E0A0
:101FF000154C645C2E2C00D10EE0134C645C302C2C
:1020000006DB0A245443104D6D5C64192246303AB5
:102010004C1CE1B29942EBDB00BF0A2454430A4E48
:102020004D1C755D64192246303A022A00D2002206
:102030001404240E054DAC762C46E27670BD0000EB
:10204000000000201C0100201C0000204C02002089
:102050003F48C078C007C00F002809D000203D4984
:1020600088603B48C07B012108433949C87308E0B8
:102070000120384988603648C07BFE210840344939
:10208000C8733348C07802210840022809D10020D3
:10209000304908602E48C07B022108432C49C87390
:1020A00008E001202B4908602948C07BFD21084039
:1020B0002749C8732648C07804210840042809D15C
:1020C0000020244948602248C07B0421084320495D
:1020D000C87308E001201F4948601D48C07BFB21F0
:1020E00008401B49C8731A48C078082108400828CE
:1020F00009D100201749C8601548C07B0821084352
:102100001349C87308E001201249C8601048C07B19
:10211000F72108400E49C8730D48C07810210840C7
:1021200010280AD100200B494031C8630848C07B01
:10213000102108430649C87309E0012005494031D0
:10214000C8630348C07BEF2108400149C87370474A
:102150004C0200208042005005200007C068012189
:102160000907084305210907C8600846C06801211E
:102170000907884305210907C860364840680721D8
:10218000490508433349486005200007006BE021FA
:1021900088430521090708630846006BE0210843CE
:1021A0000521090708632C4800692C4908402A4981
:1021B00008612B4840690C210843294948610846B9
:1021C0008069FF21090488432549886108468069A0
:1021D0003121090408432249886108468068C904FE
:1021E00008431F4988601F48006A012108431D49B0
:1021F00008620846006A091588431A4908620846B9
:10220000006A0C218843174908620846006A0821C1
:102210000843144908620846406A000A00024862FE
:102220000846406AE02108430E4948620846006BB0
:10223000012108430B4908630846006A022108434C
:10224000084908621D2001218140074A116000BF32
:10225000704700000040005040000050CFBFFFFF1B
:102260000002005000000E4000E100E0F0B58DB02B
:1022700048480C9048480B9048480A9048480990B4
:10228000484808904849086BFEF7F6FB0790464916
:10229000486BFEF75CFA454A454B01910090FEF70A
:1022A00059FA444A444B03910290FEF704FA05910F
:1022B0000490FEF739F806900698FEF76FFB0022AF
:1022C00013460591049000F06FFD61D80698FEF763
:1022D00065FB0022394B0591049000F033FD57D87F
:1022E0002D48079900F0DAFD04902C48079900F07A
:1022F000D5FD0290079900F0D1FD0390049900F0FC
:1023000087FD2449059000F083FD0646254807997E
:1023100000F0C4FD2249029000F07AFD28490490A3
:10232000069800F03FFE0390049900F0B7FD314697
:10233000059000F06DFD07462249384600F006FE84
:1023400000D2204F3846FEF729FB1F4A1F4B05914C
:10235000049000F0F7FC00D21D4F1A49069800F0D7
:102360009DFD0590FEF744FB05461649384600F0F2
:1023700095FD0590FEF73CFB04462004000E0A493B
:1023800088740846C4742804000E0875084645750C
:102390000DB0F0BDC5FE02C0BD52163DF624D6B547
:1023A0000AD7233CACC5A7384C0200207B14AE47AB
:1023B000E17A843FCDCCCCCCCC0C444000005940D9
:1023C0000000C8410000C8429A9999999999B93F6B
:1023D000CDCCCC3D02460020022105E0044B5B5CE5
:1023E0001B18D8B24B1CD9B29142F7DB70470000E2
:1023F0003401002070B500256B4840796B49887026
:1024000069488079C8706848C07908716648007A60
:1024100048716548407A88716348817A6348C17120
:102420008078C007C00F002801D0FFF711FE5F4879
:10243000807802210840022801D1FFF79DF85B480F
:10244000807804210840042805D159480068884351
:10245000001D574908605548807808210840082821
:102460000DD15248007B012809D15048807F0328B4
:1024700005D14F480068884308304D4908604B48F3
:1024800040794F280FD14948407C43281FD1484804
:1024900000680121490388434018454908604F20DE
:1024A0004249487413E04148407943280FD13F48DE
:1024B000407C4F280BD13E480068012149038843E6
:1024C0003B490860432039494874FEF7E7FC032084
:1024D000354908705A2048703448007A48713348AA
:1024E000407A88713148807AC8713048C07A087261
:1024F0002E48007B48722D48407B88722B48807B99
:10250000C8722A48C07B08732848007C4873274853
:10251000407C88732548807CC8732448C07C08743C
:102520002248007D48742148407D88741F48807D82
:10253000C8741E48C07D08751C48007E48751B483D
:10254000407E88751948807EC8751848C07E087618
:102550001648007F48761548407F88761348807F6C
:10256000C876002408E011481F30015D20461C3069
:102570000D4A1154601CC4B2102CF4DB2C20FFF760
:1025800029FF0546284600F089F8074920310873DD
:10259000284600F08CF80449203148732E21054864
:1025A00041600221017370BD340100204C02002003
:1025B000000000203402002010B5002403200F4941
:1025C0000870352048700E48007848710C484078F3
:1025D00088710720FFF7FEFE0446204600F05EF8F3
:1025E0000649C871204600F062F8044908720921C2
:1025F000044841600221017310BD00003401002035
:102600004C0200203402002010B5002403200E49A3
:102610000870352048704520487152208871072085
:10262000FFF7D8FE0446204600F038F80649C87186
:10263000204600F03CF80449087209210348416033
:102640000221017310BD000034010020340200207B
:1026500030B501460020002214E00C7860400023D1
:102660000BE0C407E40F002C04D04408074D6C4075
:10267000204600E040085C1CE3B2082BF1DB491C5B
:10268000541CE2B2082AE8DB30BD000008840000D8
:1026900000BF00BF00BF00BF00BF704701460A1166
:1026A00010463030392801DDC21DD0B270470146D6
:1026B0000A07120F10463030392801DDC21DD0B292
:1026C000704701460A463032D0B2392801DDC21DBA
:1026D000D0B2704700BF5920E34908601620086057
:1026E00088200860084600680028F4D0DF480068A9
:1026F00004210843DD4908600846006907210843B2
:10270000DA490861084680690009000188610846C5
:10271000806801210843D549886008464069032143
:102720000843D2494861D24800680721090288431A
:10273000CF49086008460068052109020843CC49D2
:1027400008600846006880210843C94908600846B7
:10275000006840210843C649086008460068102107
:102760000843C34908600846006802210843C0497D
:1027700008600846006808210843BD49086008460B
:10278000006801210843BA4908600020B649086082
:10279000FEF760FEFFF75EFBFFF704FAFFF7DCFCD5
:1027A000FFF722F9B348FEF78BFB00BF5920AE4973
:1027B0000860162008608820086008460068002825
:1027C000F4D0AB48006801210843A9490860002003
:1027D000A5490860A748FEF773FB00BF5920A2492E
:1027E00008601620086088200860084600680028F5
:1027F000F4D09F480068012108439D4908600020EB
:10280000994908609C48006800090001401C9A49E9
:102810000860002099498863012098494031086088
:1028200000F092F9002000F0ABF9954908631AE135
:1028300094480078C007C00F002862D09148006813
:10284000400840008F49086000BF59208649086051
:102850001620086088200860084600680028F4D028
:1028600083480068012108438149086000207E49AF
:102870000860FFF7FBFCFEF765FDFEF7E5FE81480B
:1028800000884005C00F00280AD07D48007B012841
:1028900006D17C48006808218843083079490860DF
:1028A000784800681021884376490978C906C90F1D
:1028B000C9430901102211400843724908600846C3
:1028C0000078C006C00F002804D001206B49803179
:1028D000886103E0002069498031886168484030A0
:1028E000407A03280DDA66484030407A401CC1B275
:1028F000634840304172407A022802DD01205F497E
:10290000C863604800780006C00F002807D05D4803
:102910000068802188435B490860FFF731FB594814
:1029200000888005C00F002808D0564800680121A3
:102930004902884353490860FFF7AAF951480078D3
:102940008007C00F00282FD04E480068022188431E
:102950004C490860084600682021884349490978A5
:102960008906C90FC943490120221140084345493E
:102970000860084600788006C00F002805D00120B6
:1029800000F0FEF83E49486304E0002000F0F8F84B
:102990003B4908633B4800888004C00F002803D0EF
:1029A000FEF7F2FAFEF72CFC364800780007C00F5D
:1029B000002849D03348006808218843314908601D
:1029C000002416E0FEF7F0FE00280BD100212C4871
:1029D0002030C1732B4800680121890288432949AE
:1029E000086008E028480078401C27490870601CEF
:1029F000C4B2032CE6DB00BF23480078032820D1B3
:102A00001F49887708462030C07B401CC1B21C4853
:102A10002030C173C07B0C2808DA1A4800680121F5
:102A2000890288434018174908600AE000211448C9
:102A30002030C1731348006801218902884311497D
:102A400008600020104908700E4800880005C00F7B
:102A5000002808D00B4800680121C90288430949B1
:102A60000860FEF713F9E3E6000100500002005091
:102A700000400040881300004040005000420050D9
:102A80004C0200200000002008000020FFB507468F
:102A900001202A490860CD20FEF71EFA00202749B0
:102AA0000860D420FEF718FAFEF7E8FF03900398B9
:102AB000002802D1012004B0F0BD2148FEF70CFA35
:102AC000384600F013F901201C490860FF202D3022
:102AD000FEF702FAFEF7D2FF0646002E01D10120D2
:102AE000E9E7002406E0FEF7C9FFC0436946085540
:102AF000601CC4B20A2CF6DB6846FFF7A9FD054648
:102B0000E8B26946097A884215D1280A6946497AA5
:102B1000884210D100240AE06846015D0720021BAC
:102B2000781EC000121807488154601CC4B2082CDB
:102B3000F2DB0020BFE70120BDE70000404200506B
:102B4000881300006B02002000B501200B4948608B
:102B500000200860FFF79CFD002209E001200749E2
:102B60000860FFF795FD002004490860501CC2B2C0
:102B7000092AF3DB00F05CF800BD000000420050C1
:102B8000F8B50446012000F01FF80546012000F0CA
:102B90001BF80646002000F017F80090280287195D
:102BA00000F046F8002C02D0012C08D103E00320ED
:102BB00000F068F804E0052000F064F800E000BFD1
:102BC00000BF3846F8BD000010B5024600200123C2
:102BD000164C6360802113E00123144C23602346CC
:102BE0005B68002B02D003460B431846FFF750FDED
:102BF00000230E4C23600B46CC0FE418E405210E95
:102C00000029E9DCFFF744FD002A01D1012300E09F
:102C10000023064C636001232360FFF739FDFFF7B3
:102C200037FD002323600123636010BD0042005084
:102C300000B501201249486000200860FFF728FD18
:102C400001200F490860FFF723FD00200C49486070
:102C5000FFF71EFD00200A490860FFF719FDFFF786
:102C600017FD012006490860FFF712FD0120044905
:102C70004860FFF70DFD00200149086000BD00001D
:102C80000042005010B50246002380211AE0084699
:102C90001040002803D00120134C606002E00020A7
:102CA000114C6060FFF7F4FC01200F4C2060FFF72F
:102CB000EFFCFFF7EDFC002020600846CC0F241845
:102CC000E405210E0029E2DCFFF7E2FC0120064CBE
:102CD0006060206020464068C3B2FFF7D9FC002046
:102CE0002060184610BD00000042005030B5044678
:102CF000A006040E00251FE0E007C00F00280CD03E
:102D000001200F4908606420FEF7E6F800200C4916
:102D100008606420FEF7E0F80BE001200849086035
:102D20003220FEF7D9F80020054908609620FEF70A
:102D3000D3F86410681CC5B2082DDDDB30BD00007F
:102D40004042005070B501250C002D051C4310D4E5
:102D5000EC4206D4AC420AD4994200D070BD9042F5
:102D600070BDE94217D4EB4215D4994270BD894237
:102D700070BDEC4206D5AC42F9D58B4200D070BD97
:102D8000824270BD6D004C00EC4204D25C00EC420B
:102D900001D28B4270BD034C30B4FDF771FE30BCE4
:102DA00070BD00BF1900160470B501251C002D056B
:102DB0000C4310D4EC4206D4AC420AD48B4200D06F
:102DC00070BD824270BDEB4217D4E94215D48B42EC
:102DD00070BD9B4270BDEC4206D5AC42F9D599421C
:102DE00000D070BD904270BD6D005C00EC4204D21A
:102DF0004C00EC4201D2994270BD0FB4034C0CBCA4
:102E000003BC30B4FDF73CFE30BC70BD19001604A5
:102E100070B501250400ED074C4020D4441A01D2BE
:102E2000001B0919C60D4B00F2B2FF2A29D01B0E58
:102E30002CD000020C02D31A2C43DC402843051985
:102E400010D2280A02D3401C6D0611D0761EF6055A
:102E50008019FF2A00DA70BDC00DC00570BD694041
:102E600000F0A6F801200543C541521C761CE8E796
:102E700064089C40C90161408900E7D10124A04356
:102E8000E4E71B0E440200D0034870BD002AFCD1C9
:102E9000C00FC00770BD00BF0000C07F70B542000A
:102EA00064414B005C41120E39D01B0E38D0FF2A12
:102EB0003CD0FF2B3AD040024902400A490A0600A2
:102EC00045184E43000A090AD2184843ED017F3ADB
:102ED0000104731A4019190C4318990F04D00121E9
:102EE0005B0849075B1A521CD80904D3401CF50340
:102EF00001D19D0607D0FF2A08D2D50506D0E407E8
:102F00002043401970BD0125A843F4E7002A01DCE5
:102F1000E00770BD2402FF202043C00570BD1B0EDA
:102F2000FF2A03D0FF2B01D0E00770BDFF2645002C
:102F30003606B54206D84D00B54203D8D218FF2A4E
:102F400000D0E7E7004870BD0000C07F01230A0001
:102F5000DB0502430DD4DA4203D49A4207D48142FE
:102F60007047D94214D4D84212D481427047894262
:102F70007047DA4203D59A42F9D5884270475B0020
:102F80004A00DA4204D24200DA4201D28842704753
:102F90004840414010B5024A4840FDF7B9FD10BD18
:102FA0000900160470B501250400ED074C4022D439
:102FB000441A02D26C40001B0919C60D4B00F2B234
:102FC000FF2A4BD01B0E50D000020C02D31A2C4308
:102FD000DC40A843051B05D5AD0019D36D08761E4E
:102FE000521E37D0F605280A01D2801970BD7041F3
:102FF0006D0603D070BD6940FFF710FF9C400902C9
:103000006140490001D0401E70BD0124A04370BD45
:103010006D081DD001202B0C01D12D0410302B0E7A
:1030200001D12D0208302B0F01D12D01001DAB0F56
:1030300001D1AD00801CEB0F01D16D00401C6D0073
:10304000361A121A680AF5054019012A02DB70BD0A
:10305000002070BDC036300AC00770BD1B0E440290
:1030600001D1FF2B00D1024870BD002AF0D070BD05
:103070000000C07F94300000000000201C00000011
:1030800004010000B03000001C000020EC0600002D
:10309000200100000000000000000000000000000F
:1030A000200300009001000000000000000000006C
:040000050000016591
:00000001FF
