:020000040000FA
:10000000B0040020A1010000C10100006501000052
:1000100000000000000000000000000000000000E0
:10002000000000000000000000000000C50100000A
:100030000000000000000000C7010000C90100002E
:10004000CB010000CB010000CB010000CB01000080
:10005000CB010000CB010000CB010000CB01000070
:10006000CB0100002512000049120000CB01000066
:10007000CB010000CB010000CB010000CB01000050
:10008000CB010000CB010000CB010000CB01000040
:10009000CB010000CB010000D5090000190A0000C7
:1000A000CB010000CB010000CB010000CB01000020
:1000B000CB010000CB010000CB010000CB01000010
:1000C00000F002F800F03EF80CA030C80838241800
:1000D0002D18A246671EAB4654465D46AC4201D180
:1000E00000F030F87E460F3E0FCCB6460126334274
:1000F00000D0FB1AA246AB463343184778160000DF
:1001000098160000103A02D378C878C1FAD852077E
:1001100001D330C830C101D504680C6070470000BD
:100120000023002400250026103A01D378C1FBD813
:10013000520700D330C100D50B6070471FB51FBDFB
:1001400010B510BD00F00EF91146FFF7F7FF01F0F2
:100150003DFA00F026F903B4FFF7F2FF03BC01F00B
:1001600025FA00007046400702D4EFF3088001E052
:10017000EFF3098081690B88034A934202D104316D
:1001800081617047FEE70000ABBE0000ABBE01E03E
:1001900000207047002A00D0106001207047000046
:1001A0000D480E4901600E4901600E4901600E4A7A
:1001B0000E491160002101600D4880470D4800473D
:1001C000FEE7FEE7FEE7FEE7FEE7FEE70A480B492B
:1001D000094A0B4B70470000000100505900000015
:1001E000160000008800000024000050A55A0000FE
:1001F00021120000C1000000B0000020B004002067
:10020000B0000020002203098B422CD3030A8B424A
:1002100011D300239C464EE003460B433CD40022FE
:1002200043088B4231D303098B421CD3030A8B4210
:1002300001D394463FE0C3098B4201D3CB01C01ADE
:10024000524183098B4201D38B01C01A52414309A9
:100250008B4201D34B01C01A524103098B4201D397
:100260000B01C01A5241C3088B4201D3CB00C01A04
:10027000524183088B4201D38B00C01A524143087C
:100280008B4201D34B00C01A5241411A00D20146A1
:100290005241104670475DE0CA0F00D0494203103A
:1002A00000D34042534000229C4603098B422DD389
:1002B000030A8B4212D3FC22890112BA030A8B4231
:1002C0000CD3890192118B4208D3890192118B4280
:1002D00004D389013AD0921100E08909C3098B4205
:1002E00001D3CB01C01A524183098B4201D38B0148
:1002F000C01A524143098B4201D34B01C01A5241EB
:1003000003098B4201D30B01C01A5241C3088B422F
:1003100001D3CB00C01A524183088B4201D38B001A
:10032000C01A5241D9D243088B4201D34B00C01AA4
:100330005241411A00D20146634652415B101046B9
:1003400001D34042002B00D54942704763465B1001
:1003500000D3404201B50020C046C04602BD7047F0
:1003600070477047754600F025F8AE4605006946AF
:100370005346C008C000854618B020B5FFF726FFD9
:1003800060BC00274908B6460026C0C5C0C5C0C528
:10039000C0C5C0C5C0C5C0C5C0C5403D49008D462B
:1003A000704710B50446C046C0462046FFF7D3FE4E
:1003B00010BD000000487047500000201FB50C4CD5
:1003C0001ECC03946C460EC4810F89006A465158B6
:1003D000084A89184968C306DB0E01229A40114376
:1003E000820F92006B469A58024BD21851601FBD83
:1003F0005417000000020050F3B589B00C460120EC
:100400000004594908620998002817D10846006875
:100410000121084354490860012000F03FFA002000
:100420000690524F5248874201D1022514E04F48AE
:10043000874201D104250FE002250DE04A480068FB
:100440000421084348490860102000F027FA0120E1
:10045000C0040690454F04254648844205D8401004
:10046000844202D90020079014E04348844206D811
:100470004010844203D90120079064000AE03F48FD
:10048000844206D84010844203D303200790A4007E
:1004900000E059E00020C04303900020019002904A
:1004A00034E029463846FFF7ADFE059034490598FB
:1004B00088422AD933490598884226D202200890DA
:1004C0001EE0059E08994E432B48864215D34000F6
:1004D000864212D8A64201D9301B00E0A01B04902E
:1004E00003990498884208D20498039001950898CB
:1004F00002900398002800D106E00898401C08905C
:10050000214908988842DCD900BF6D1C212DC8D92B
:1005100007988003069908430199891E49020843F8
:100520000299891E084310490862042000F0B6F9B8
:100530000798401C019A504301463846FFF762FE77
:10054000029948430BB0F0BD0998002803D10F4829
:100550000549086202E00E4803490862042000F0E1
:100560009DF900F05DF8EDE70002005000805101B8
:10057000001BB70000C2EB0B00E1F50580F0FA02AA
:10058000006A1800C0E1E400010200002EC2000071
:100590006FD60000024909680143014A11607047A3
:1005A00000020050FEB5002002901AA000680090E2
:1005B0001948046A00132040002801D00020FEBD25
:1005C0000120C0042040002801D0144D00E0134D4C
:1005D000012040042040002801D02846EFE70320F6
:1005E00080032040800B69460A5C0192E005C00D43
:1005F000861C1F2040022040400A871C019A7A4333
:100600001146AA0872431046FFF7FCFD80000290D5
:100610000298D4E701020204000200500080510158
:10062000FEB5002002901AA0006800901948046AE4
:1006300000132040002801D00020FEBD0120C0048E
:100640002040002801D0144D00E0134D012040044B
:100650002040002801D02846EFE7032080032040F7
:10066000800B69460A5C0192E005C00D861C1F20C4
:1006700040022040400A871C019A7A431146AA088A
:1006800072431046FFF7BEFD800002900298D4E747
:10069000010202040002005000805101FEB500205A
:1006A00002901AA0006800901948046A00132040C4
:1006B000002801D00020FEBD0120C00420400028F9
:1006C00001D0144D00E0134D0120400420400028CB
:1006D00001D02846EFE7032080032040800B6946C5
:1006E0000A5C0192E005C00D861C1F2040022040DC
:1006F000400A871C019A7A431146AA0872431046A1
:10070000FFF780FD800002900298D4E70102020406
:10071000000200500080510170B504462248C068B4
:100720001021084005462148844200D9044620484B
:10073000844200D204461C480068042108431A4938
:100740000860102000F0AAF8174800690721084344
:10075000154908610846806900090001886108465A
:100760000068C007C00F002805D061000020FFF717
:1007700043FE04460AE061000120C004FFF73CFE8E
:1007800004460948C068102108400546012102209E
:1007900000F010F8002D05D10348006804218843BB
:1007A00001490860600870BD0002005080F0FA0244
:1007B00040787D0170B504460D461548C06810218B
:1007C0000840064612480068084311490860102096
:1007D00000F064F80E480069C008C000C01D0C4954
:1007E00008610846806900090001284388610846BD
:1007F0000069C008C0002043086100F0DFFC002E43
:1008000005D103480068102188430149086070BD84
:1008100000020050F7B584B000220023184C254692
:10082000E0CDE46802970196009503948403240EBA
:10083000002C0ED00403A40FA400124D63198403EE
:10084000250E8405E40EA5401C68AC43069D2C4390
:100850001C600401640F002C10D08400A40FA400BD
:100860006D462C59074D083D62190401650FC401FE
:10087000E40EA5401468AC430C43146007B0F0BD0F
:1008800044170000180200500349096938229143B7
:100890000143014A11617047000200500146074AB6
:1008A00005E01046521E002801DC00207047044875
:1008B000C06808408842F4D10120F7E7804F120059
:1008C000000200500349088000BF0249098800293E
:1008D000FBD170473E00002010B50446FF220132D4
:1008E0000021094800F04CFB00F0F4F9FA20FFF772
:1008F000E9FF204600F00AF8FF22013200210248F9
:1009000000F06DFB10BD00000000144010B504465F
:100910000021012000F0D6FB2D20FFF7D3FF207827
:10092000C107C90F032000F0CDFB2D20FFF7CAFF40
:1009300020788007C10F032000F0C4FB2D20FFF7B3
:10094000C1FF0021032000F0BDFB2D20FFF7BAFFFF
:1009500020784007C10F032000F0B4FB2D20FFF7E3
:10096000B1FF0021032000F0ADFB2D20FFF7AAFF0F
:100970000021032000F0A6FB2D20FFF7A3FF207825
:100980000007C10F032000F09DFB2D20FFF79AFF09
:100990002078C006C10F032000F094FB2D20FFF744
:1009A00091FF20788006C10F032000F08BFB2D20E3
:1009B000FFF788FF0021022000F084FB10BD00003B
:1009C00003488069012109070840000F70470000B3
:1009D0000000054010B501210D4800F039FB00284A
:1009E00004D00C480078401E0A49087000210848CD
:1009F00000F089F907480078002807D10121044850
:100A000000F04AFB0021024800F0D0FA10BD0000BF
:100A1000000004404100002010B50021A44800F06F
:100A2000FBFA0221084002287ED1C2010021A04821
:100A300000F062F99F48006901210904081A9E49E3
:100A400008809E480078401C9C4908709A4800889D
:100A500032280BDD984800885A2807DA9848007831
:100A6000401C9749087000209649087092480088F9
:100A70005A280DDD90480088FF212D31884207DA81
:100A800090480078401C8F49087000208C490870FD
:100A900089480088FF215F31884248DD8848007816
:100AA000082811DB884800884005C00F00280BD1BA
:100AB00085480088012189028843401882490880BE
:100AC0000020824908700AE07D480078032806DB90
:100AD0007D4800880121C90288437B490880794804
:100AE000007808280EDB784800888005C00F0028B1
:100AF00008D175480088012149028843401872498D
:100B000008800BE06F480078032807DB6E480088F8
:100B10000121C902884340186B49088000206849B8
:100B200008706849087000E07FE064490870664812
:100B300000884005C00F002877D05F480088FF215B
:100B40005F31884271DD61480078030000F020FDCC
:100B50000A0607132231404F5E6E819189E05A499F
:100B600009880905C80F58490988490849000143FF
:100B7000554A11807DE0544909880905C90F49008B
:100B800002221140084650490988914301434E4AC8
:100B900011806EE04C4909880905C90F89000422BB
:100BA000114008464849098891430143464A11804B
:100BB0005FE0454909880905C90FC90008221140AD
:100BC000084641490988914301433F4A118050E05A
:100BD0003D4909880905C90F09011022114008463D
:100BE0003949098891430143374A118041E0364928
:100BF00009880905C90F49012022114008463249D8
:100C0000098891430143304A118032E02E49098816
:100C10000905C90F89014022114008462A4909885F
:100C200091430143284A118023E040E02649098886
:100C30000905C90FC90180221140084622490988C7
:100C400091430143204A118000F0AAFB204908800B
:100C50000FE01D4909880905C90F0902FF22013269
:100C6000114008461849098891430143164A1180EA
:100C700000BF00BF144800888005C00F002811D0B5
:100C8000114800880121890288430F49088000200B
:100C90000E4908700C4800880121490288430A491E
:100CA000088004E009480078401C0849087010BD1D
:100CB00000001440000214403400002032000020E4
:100CC0002E0000202F0000202C00002030000020EB
:100CD00038000020002004490870044908700449C5
:100CE00008700449088070472E0000202F00002063
:100CF000300000202C00002010B513468B409524B6
:100D0000A400235010BD4A085300FF2201329A402C
:100D1000E8231A5070470000FFB583B004460E4622
:100D20000125304800903048844205D12F48406B5F
:100D300029040840029005E02C48406B0121490439
:100D4000084002900298002803D1FFF7A7FC07464D
:100D500003E000F033FA264807687D21C9003846D1
:100D6000FFF750FA074601251BE022496943084670
:100D70003946FFF747FA01900599019888420DD24C
:100D800001200003854200D10FE0681C194941434E
:100D900001987843814200D807E000E005E0681C34
:100DA00085B2012000038542DFDD00BF681E81B2ED
:100DB0000D46700882002046143081506068720031
:100DC00003219140884372000121914008436060F3
:100DD0007108CA002146303100988850019807B048
:100DE000F0BD0000FFFF00000000044000020050C2
:100DF0000000002040420F00FFB585B004460D46BC
:100E00000126594802905948844205D15848406B00
:100E100031040840049005E05548406B0121490425
:100E2000084004900498002803D1FFF737FC039092
:100E300004E000F0C3F94F4800680390012612E077
:100E400007990398FFF7DEF931460190FFF7DAF9C9
:100E50000746012109048F4200D902E0B8B202908E
:100E600004E0701C86B244488642E9DB00BF701C77
:100E7000029A504301460398FFF7C4F90746701ED3
:100E800081B20E46680882002046143081506068A6
:100E90006A000321914088436A0001219140084380
:100EA00060600298401E81B26808C200204630305F
:100EB00002918150089800282ED0029A521C08995D
:100EC000514308466421FFF79DF9401EAA002146C0
:100ED00050318850B02000596A0028499140884319
:100EE000B0210851B02000596900103101228A4018
:100EF0001043B0210851B42001596A001F489040A6
:100F00008143B420015100596900103102228A4006
:100F10001043B421085124E00021AA00204650309B
:100F20008150B02001596A00144890408143B0209C
:100F300001510059690001228A401043B021085133
:100F4000B42000596A000D4991408843B4210851EA
:100F5000B42000596900103102228A401043B421A4
:100F60000851384609B0F0BDFFFF00000000044002
:100F70000002005000000020FF0F000003000300EB
:100F800010B525231B011B5814468C40A343252470
:100F90002401235010BD0000E0221258024B8B4068
:100FA0009A43E0231A5070470000010110B5E02277
:100FB00012584B085C00FF230133A3409A43E023FF
:100FC0001A5010BD0122520212580A4301235B023B
:100FD0001A501A1D12580A431B1D1A50704710B59B
:100FE00025231B011B5814468C4023432524240130
:100FF000235010BDD82212580A43D8231A507047E4
:1010000030B5E0231B584C086500FF240134AC4088
:101010002343E024235030BD10B5024695208000C4
:101020008058FF2301338B401840002801D0012055
:1010300000E00020400095239B009B5801248C4039
:101040002340002B01D0012300E00023184310BDF2
:1010500010B50246E82080584B085C00FF2301339E
:10106000A3401840002801D0012010BD0020FCE75B
:1010700030B5024600200CE0012383400B40002BDA
:1010800006D0136A440865000124AC402343136270
:10109000401C0628F0D330BD30B5024600200DE0DC
:1010A000012383400B40002B07D0002543085B0041
:1010B0001824634314463034E550401C0628EFD30F
:1010C00030BD000070B505460C46012D06D0022D3E
:1010D0000ED0032D17D0042D33D128E00B20254945
:1010E00008702548254908600A202549086028E03D
:1010F0000B20204908704B20C001204908600A20BD
:101100001F4908601DE006201A490870002C06D10E
:1011100019481A4908600A201949086006E04B205E
:10112000C001164908600A201549086009E001203D
:10113000104908701348114908606420104908607C
:1011400000BF00BF0E4803680C48026800210E482B
:10115000FFF752FE002211460B48FFF751FF012115
:101160000948FFF785FF00BF024800780028FBD13F
:1011700070BD0000410000204C36000044000020FB
:1011800048000020C409000000000440010E0522B0
:10119000120789188968012282401143020E052333
:1011A0001B07D2189160010E1A4689188A6801211E
:1011B00081408A43010EC9188A60704770B5FFF7F5
:1011C000F1F9114908601148006945076D0F022DBA
:1011D00003D0A8000E490C5801E00B4804680B48E6
:1011E00080690007000F461C31462046FFF70AF8C9
:1011F000084908600849074800684A108018FFF746
:1012000001F80649086070BD080000200002005087
:101210000C0000200000002040420F0004000020CD
:1012200070470000012006498862064800880028AF
:1012300004DD04480088401E024908807047000011
:10124000000001403C00002001200649886006485B
:101250000088002804DD04480088401E02490880F8
:1012600070470000000011403E0000202148406906
:101270000721090308431F4948610846806808217F
:1012800008431C4988601C48006A890408431A49BD
:1012900008620846006A000A000208620846006AFE
:1012A0000B210843144908627D200001486208466A
:1012B000006A490308431049086201208862092036
:1012C000012181400D4A116000BF0B48006A0121D5
:1012D00089060843084908620846006A89030843EA
:1012E000054908620846006A0121090408430249C9
:1012F00008627047000200500000014000E100E079
:101300002448406907210904884322494861084666
:101310004069090208431F49486108468068102156
:1013200008431C4988601C480068890408431A491E
:10133000086008460068000A000208600846006865
:101340000521084314490860502048600846006899
:101350004903084310490860012088600A200121E0
:1013600081400E4A116000BF0B48006801218906C8
:10137000084309490860084600688903084306498C
:101380000860084600680121090408430249086012
:1013900070470000000200500000114000E100E032
:1013A00013480088C007C00F114A12889207D20F55
:1013B00080180F4A1288D206D20F80180C4A128861
:1013C0009206D20F80180A4A12885206D20F81184C
:1013D000C80F401840104000081A054A1288D2056C
:1013E000D20F904201D1012070470020FCE700009D
:1013F0002C00002010B500237D22D200194615488C
:10140000FFF78AFC01211348FFF732FE0121114842
:10141000FFF7D8FD104840680121090608430E492E
:101420004860084640680121090408430A494860A9
:101430008A1500210748FFF7D2FD172001218140BE
:10144000064A116000BF00BF0248803000690028D2
:10145000FAD010BD000014400002144000E100E08A
:1014600010B51448FEF7AAFF0022012149041148D3
:10147000FFF7D0F91048FFF789FE05200007006B41
:10148000042188430521090708630846006B0421ED
:1014900008430521090708630848006A402188437A
:1014A000064908620846006A402108430349086269
:1014B00010BD0000110010B31100000840000050E2
:1014C00010B505200007006B0121090388430521A1
:1014D000090708630846006B012109030843052139
:1014E000090708631548406AFF2101318843134901
:1014F00048626423124A00211248FFF77DFC012153
:101500001048FFF777FD00210E48FFF74FFD00213F
:101510000C48FFF741FD1620012181400A4A116065
:1015200000BF0848C0304069012108430549C03167
:10153000486101210348FFF79BFD10BD40000050AA
:10154000C83200000000044000E100E010B50420B3
:10155000FFF720F81020FFF7A1F90A48FFF7DCF8A1
:101560001820FFF791F90848FEF728FF00221146DE
:101570000548FFF74FF90548FFF708FEFFF71EFE85
:1015800010BD000080F0FA02100000B31000000847
:1015900030B47446641E2578641CAB4204D3635D8A
:1015A0005B00E31830BC18471D46F8E700220649E7
:1015B0001820FEF7EBFD002804D100BFFFF700FA6A
:1015C0000028FBD000BFFEE72600020000BF06E0B7
:1015D0005920574908601620086088200860544840
:1015E00000680128F4D100BFFFF7B0FFFFF73EFE0F
:1015F000FFF786FEFFF764FFFFF732FF00BF002012
:101600004B49086000BFFFF7F5FE90E0FFF7C8FE0A
:101610000028FAD047480088C007C00FC043464999
:101620000863444800888007C00FC04342494039DE
:10163000C86240480088C006C00FC04388623D4869
:1016400000888006C00FC04348623A4800884006C0
:10165000C00FC043086238490969C807C00F37493D
:101660000978490849000143344A117032494969EF
:10167000490002221140084630490978914301434C
:101680002E4A11702C4989688900042211400846AD
:101690002A49097891430143284A11702649C968AB
:1016A000C9000822114008462449097891430143A2
:1016B000224A1170204980318969090110221140A4
:1016C00008461E490978914301431C4A117012785B
:1016D000D207D20F194B1B789B07DB0FD218174B81
:1016E0001B785B07DB0FD218144B1B781B07DB0F33
:1016F000D218124B1B78DB06DB0FD018C20F121862
:1017000052105200821A520120231A4011460B4AED
:1017100012789A430A43094B1A7009480088002836
:1017200005D00020064908801846FFF7D5F86DE778
:10173000000100502C0000204042005040000020DA
:101740003800002000000000040000000C00000031
:101750002400000000000000040000002C00000035
:101760000000000000000000040000002C00000049
:10177000000000009417000000000020500000004E
:1017800004010000E4170000500000206004000085
:101790002001000080F0FA023200000080F0FA021E
:1017A000008051010000000080F0FA0210270000C4
:1017B0000000000000000000000000000080510157
:1017C0000000000000000000000000000000000019
:1017D0000000000000000000000000000000000009
:0417E0000000000005
:04000005000001A155
:00000001FF
