:020000040000FA
:10000000D8040020C5010000E501000089010000BE
:1000100000000000000000000000000000000000E0
:10002000000000000000000000000000E9010000E6
:100030000000000000000000EB010000ED010000E6
:10004000EF010000EF010000EF010000EF010000F0
:10005000EF010000EF010000EF010000EF010000E0
:10006000EF010000011D0000511D0000EF01000024
:10007000EF010000EF010000EF010000EF010000C0
:10008000EF010000EF010000EF010000EF010000B0
:10009000EF010000EF010000B5130000F9130000AC
:1000A000EF010000EF010000EF010000EF01000090
:1000B000EF010000EF010000EF010000EF01000080
:1000C00000F002F800F050F80CA030C808382418EE
:1000D0002D18A246671EAB4654465D46AC4201D180
:1000E00000F042F87E460F3E0FCCB6460126334262
:1000F00000D0FB1AA246AB463343184764250000E4
:1001000084250000103A02D378C878C1FAD8520783
:1001100001D330C830C101D504680C6070470000BD
:100120000023002400250026103A01D378C1FBD813
:10013000520700D330C100D50B60704710B5642959
:1001400002D100F07FF810BD752902D100F07AF8D5
:1001500010BD782902D100F0ABF810BD002010BD11
:100160001FB51FBD10B510BD00F0C6FA1146FFF750
:10017000F7FF02F00DF800F0DEFA03B4FFF7F2FF2C
:1001800003BC01F0E9FF00007046400702D4EFF322
:10019000088001E0EFF3098081690B88034A9342EC
:1001A00002D1043181617047FEE70000ABBE000060
:1001B000ABBE01E000207047002A00D01060012093
:1001C000704700000D480E4901600E4901600E495C
:1001D00001600E4A0E491160002101600D48804700
:1001E0000D480047FEE7FEE7FEE7FEE7FEE7FEE715
:1001F0000A480B49094A0B4B7047000000010050A8
:100200005900000016000000880000002400005083
:10021000A55A0000FD1C0000C1000000D80000200D
:10022000D8040020D80000200FB4054910B503AA57
:10023000029800F021FA10BC08BC04B01847000076
:100240002C000020F7B5002575291068009914A628
:1002500011D0C046C046002802DA404211A608E08C
:10026000009909688A0701D50FA602E0490704D55D
:100270000EA6012501E0C046C046009F0024243799
:1002800004E000F00DFA30313955641C0028F8D133
:100290002B4632462146009800F096F9FEBD00003C
:1002A000000000002D0000002B00000020000000D6
:1002B00070B504460D4621461068C046C0462188E8
:1002C000090502D50F4A7A4402E00E4A7A440E32FA
:1002D00023460021243305E006070009360F965D0A
:1002E0005E54491C0028F7D120780023000705D56B
:1002F000702D03D0002901D002231132204600F0D6
:1003000063F970BD6E230000F3B50446002081B090
:1003100020622046E1688847002872D0252802D054
:100320006268A1689AE0E168204600268847054691
:100330000020E0610746A0612A2D0AD0284601F07E
:1003400003FF002827D0B8000019303D00908561D8
:1003500019E00298BA00121902C891610290204671
:10036000E1688847012F054617D1E06900281FDAA8
:10037000202086431CE000980A21806948430099A8
:100380004019303888612046E1688847054601F009
:10039000DBFE0028EFD1012F0AD02E2D08D12046F8
:1003A000E16888470546202006437F1C022FC3DBF7
:1003B000A069002803DA4042A06101200643F0074B
:1003C00001D0102086436C2D0AD0682D08D04C2D0A
:1003D0003CD06A2D38D0742D38D07A2D36D016E026
:1003E000E1682F4620468847B84205460AD16C2F5F
:1003F0002AD001208002E16806432046884705464E
:1004000005E02FE06C2F1DD0FF2001300643002DAA
:1004100028D028464138192803D80120C0020643B5
:100420002035204626602946029A1646FFF786FEAA
:10043000002810D001280BD0F61DF008C0000830AD
:10044000029066E74020E1E78020D4E70020D2E771
:10045000361D02965DE762682846A1689047206ACB
:10046000401C55E7206AFEBD002203098B422CD3B5
:10047000030A8B4211D300239C464EE003460B43F4
:100480003CD4002243088B4231D303098B421CD356
:10049000030A8B4201D394463FE0C3098B4201D348
:1004A000CB01C01A524183098B4201D38B01C01A80
:1004B000524143098B4201D34B01C01A52410309F7
:1004C0008B4201D30B01C01A5241C3088B4201D3A6
:1004D000CB00C01A524183088B4201D38B00C01A53
:1004E000524143088B4201D34B00C01A5241411A7A
:1004F00000D201465241104670475DE0CA0F00D05D
:100500004942031000D34042534000229C46030955
:100510008B422DD3030A8B4212D3FC22890112BADB
:10052000030A8B420CD3890192118B4208D38901B3
:1005300092118B4204D389013AD0921100E08909CB
:10054000C3098B4201D3CB01C01A524183098B42AC
:1005500001D38B01C01A524143098B4201D34B0195
:10056000C01A524103098B4201D30B01C01A5241F8
:10057000C3088B4201D3CB00C01A524183088B427F
:1005800001D38B00C01A5241D9D243088B4201D308
:100590004B00C01A5241411A00D2014663465241F3
:1005A0005B10104601D34042002B00D549427047F2
:1005B00063465B1000D3404201B50020C046C046F0
:1005C00002BD704770477047FFB504460D4681B0C5
:1005D000243000902168880604D51022E0699143F8
:1005E000216000E00120A84201DD471B00E0002758
:1005F0000498A1697A191018081AA0612078C00619
:1006000002D42046C046C046002608E0039862682F
:10061000A168805D9047206A401C761C2062049887
:100620008642F3DB2078C0060AD52046C046C04685
:1006300006E06268A16830209047206A401C206272
:1006400038467F1E0028F4DC07E000986268A16845
:10065000405D9047206A401C206228466D1E00289D
:10066000F3DC2046C046C0462078000602D50220B2
:1006700005B0F0BD0120FBE7084B70B50D467B448B
:1006800000F027F80446284601F076FD002802D045
:100690000020C04370BD204670BD0000FF1A00005E
:1006A00001468008081A02091018020A1018020CE4
:1006B0001018C008820012185200891A01E0401C6C
:1006C0000A390A29FBD2704701694A1C026108787D
:1006D000704700B58FB00291002105910549019343
:1006E00079440391114604906846FFF70DFE0FB060
:1006F00000BD0000E5FFFFFF754600F025F8AE469F
:10070000050069465346C008C000854618B020B5AC
:10071000FFF76EFD60BC00274908B6460026C0C53D
:10072000C0C5C0C5C0C5C0C5C0C5C0C5C0C5403DA9
:1007300049008D46704710B50446C046C046204665
:10074000FFF71BFD10BD000000487047740000203B
:100750001FB50C4C1ECC03946C460EC4810F89004F
:100760006A465158084A89184968C306DB0E0122B7
:100770009A401143820F92006B469A58024BD2184E
:1007800051601FBD1826000000020050F3B589B06B
:100790000C46012000045D4908620998002817D121
:1007A000084600680121084358490860012000F00C
:1007B00047FA00200690564F5648874201D102253D
:1007C00014E05348874201D104250FE002250DE0D3
:1007D0004E480068042108434C490860102000F08E
:1007E0002FFA0120C0040690494F04254A4884424C
:1007F00005D84010844202D90020079014E04748F1
:10080000844206D84010844203D901200790640036
:100810000AE04348844206D84010844203D30320B0
:100820000790A40000E059E00020C043039000209E
:100830000190029034E029463846FFF715FE0590F6
:100840003849059888422AD937490598884226D2DE
:10085000022008901EE0059E08994E432F488642CC
:1008600015D34000864212D8A64201D9301B00E0C1
:10087000A01B049003990498884208D2049803901E
:100880000195089802900398002800D106E0089886
:10089000401C0890254908988842DCD900BF6D1C8F
:1008A000212DC8D907988003069908430199891E0C
:1008B000490208430299891E08431449086204202A
:1008C00000F0BEF90798401C019A50430146384693
:1008D000FFF7CAFD029948430BB0F0BD0998002804
:1008E0000BD10B490698884203D01148074908628A
:1008F00006E010480549086202E00E480349086214
:10090000042000F09DF900F05DF8E5E700020050DA
:1009100000805101001BB70000C2EB0B00E1F505A0
:1009200080F0FA02006A1800C0E1E4000102000051
:100930002EC200006FD60000024909680143014A37
:100940001160704700020050FEB5002002901AA00E
:10095000006800901948046A00132040002801D064
:100960000020FEBD0120C0042040002801D0144D0D
:1009700000E0134D012040042040002801D028460B
:10098000EFE7032080032040800B69460A5C019258
:10099000E005C00D861C1F2040022040400A871C35
:1009A000019A7A431146AA0872431046FFF75CFD8C
:1009B000800002900298D4E7010202040002005075
:1009C00000805101FEB5002002901AA0006800903E
:1009D0001948046A00132040002801D00020FEBD01
:1009E0000120C0042040002801D0144D00E0134D28
:1009F000012040042040002801D02846EFE70320D2
:100A000080032040800B69460A5C0192E005C00D1E
:100A1000861C1F2040022040400A871C019A7A430E
:100A20001146AA0872431046FFF71EFD800002908F
:100A30000298D4E701020204000200500080510134
:100A4000FEB5002002901AA0006800901948046AC0
:100A500000132040002801D00020FEBD0120C0046A
:100A60002040002801D0144D00E0134D0120400427
:100A70002040002801D02846EFE7032080032040D3
:100A8000800B69460A5C0192E005C00D861C1F20A0
:100A900040022040400A871C019A7A431146AA0866
:100AA00072431046FFF7E0FC800002900298D4E702
:100AB00001020204000200500080510170B504469A
:100AC0002248C0681021084005462148844200D9C8
:100AD00004462048844200D204461C480068042191
:100AE00008431A490860102000F0AAF81748006966
:100AF000072108431549086108468069000900017B
:100B0000886108460068C007C00F002805D0610052
:100B10000020FFF73BFE04460AE061000120C0040C
:100B2000FFF734FE04460948C06810210840054616
:100B30000121022000F010F8002D05D103480068C3
:100B40000421884301490860600870BD000200501C
:100B500080F0FA0240787D0170B504460D461548D4
:100B6000C068102108400646124800680843114931
:100B70000860102000F064F80E480069C008C0004A
:100B8000C01D0C490861084680690009000128431E
:100B9000886108460069C008C0002043086101F070
:100BA0007BF8002E05D103480068102188430149D5
:100BB000086070BD00020050F7B584B00022002329
:100BC000184C2546E0CDE468029701960095039401
:100BD0008403240E002C0ED00403A40FA400124D95
:100BE00063198403250E8405E40EA5401C68AC43FC
:100BF000069D2C431C600401640F002C10D084005F
:100C0000A40FA4006D462C59074D083D621904013C
:100C1000650FC401E40EA5401468AC430C43146096
:100C200007B0F0BD0826000018020050034909690A
:100C3000382291430143014A11617047000200507C
:100C40000146074A05E01046521E002801DC00203C
:100C500070470448C06808408842F4D10120F7E793
:100C6000804F12000002005010B5AC48007803001D
:100C700001F05CFA0EF10817285B6D8D9FD4E3F14B
:100C8000F0EFEEF1A648C06A012806D10020A44981
:100C9000C862A4A0FFF7C8FA02E002209F490870CA
:100CA00039E19F484030006B012807D100209C4962
:100CB00040310863A0A0FFF7B7FA02E0032097498C
:100CC000087028E1A148006900280AD19448403002
:100CD0000069002805D19EA0FFF7A6FA04208F49DD
:100CE00008709A48406900280AD18D484030406910
:100CF000002805D19BA0FFF797FA042087490870C8
:100D00009D480088401C9C490880084601889BA09B
:100D1000FFF78AFA98480088142805DD9BA0FFF7A2
:100D200083FA63207D490870F5E07D48806A0128D8
:100D300006D100207A49886299A0FFF775FA05E08C
:100D400000208D490880052074490870E3E074484C
:100D500040308068002805D196A0FFF765FA06208C
:100D60006E49087084480088401C83490880084602
:100D7000018882A0FFF758FA7F480088142805DD13
:100D800091A0FFF751FA632064490870C3E06448FA
:100D9000406A012806D10020614948628FA0FFF710
:100DA00043FA05E000207449088007205B49087079
:100DB000B1E06648006900280AD15948403000690E
:100DC000012805D18AA0FFF72FFA0820534908709F
:100DD0005E48406900280AD15148403040690128E6
:100DE00005D188A0FFF720FA08204C490870624816
:100DF0000088401C60490880084601885FA0FFF712
:100E000013FA5D4800884B21C900884205DD82A0A5
:100E1000FFF70AFA6320414908707CE04048406AC5
:100E2000002806D101203E49486280A0FFF7FCF966
:100E300002E00920394908706DE03948806A0028CD
:100E40000AD10120364988627DA0FFF7EDF914E050
:100E500050E033E012E051E03148006A012806D149
:100E600000202F4908627BA0FFF7DEF905E0002093
:100E7000414908800B20294908704CE0284840303F
:100E80008068012805D178A0FFF7CEF90C2023490E
:100E9000087039480088401C374908800846018896
:100EA00036A0FFF7C1F934480088142805DD73A087
:100EB000FFF7BAF96320194908702CE01848403050
:100EC000006B002807D01648006A002803D0144899
:100ED000C06A00280AD10120114940310863104935
:100EE0000862C8626AA0FFF79FF902E00D200B4973
:100EF000087010E06BA0FFF797F90CE06EA0FFF709
:100F000093F901200649403108630549C8628862A7
:100F10004862086200BF00BF10BD00005E000020F4
:100F2000004200505365742043535F30204F6E2EB3
:100F3000202020200A0000005365742056616C694F
:100F400064204F6E2E2020200A00000040430050F5
:100F50004C5F524551204F4E2E2020202020202033
:100F60000A000000555F524551204F4E2E20202090
:100F7000202020200A000000600000205441436F20
:100F8000756E74202578200A00000000544131203D
:100F900054696D654F757421212020200A000000DE
:100FA0005365742054525F524551204F6E2E2020BD
:100FB0000A0000005245414459204F4E2E20202067
:100FC000202020200A0000005441322054696D6521
:100FD0004F757421212020200A00000053657420E1
:100FE00042555359204F6E2E202020200A00000029
:100FF0004C5F524551204F46462E20202020202075
:101000000A000000555F524551204F46462E2020D1
:10101000202020200A00000043617272696572205E
:1010200054696D654F7574210A0000005365742082
:1010300042555359204F66662E2020200A0000009A
:101040005365742054525F524551204F66662E20DE
:101050000A00000053657420434F4D5054204F6EDA
:101060002E2020200A0000005245414459204F46BE
:10107000462E2020202020200A000000544133204A
:1010800054696D654F757421212020200A000000ED
:1010900056616C696426434F4D50542643535F306C
:1010A0000A0000004538342046696E69736865643B
:1010B0002E2020200A000000416C61726D21212148
:1010C00020202020202020200A00000000BF00282F
:1010D000FDD170470349088000BF024909880029F3
:1010E000FBD170475C00002010B51D480069002846
:1010F00003D01B484069002818D11A4800780028FE
:1011000027D101201749087015480069002803D12C
:1011100015A0FFF789F802E018A0FFF785F8002076
:101120001B49088001201B49087012E00D48007817
:1011300001280ED100200B49087017A0FFF774F8A2
:1011400001201A49086319494039C8628862486217
:10115000086204480078012801D1FFF785FD10BD21
:101160004043005062000020453834204C6F6164D9
:10117000204F6E2E202020200A0000004538342009
:10118000556E4C6F6164204F6E2E20200A000000C7
:10119000600000205E0000204538342054657374E0
:1011A0002053746F702E20200A000000404200502F
:1011B00010B50446FF2201320021094800F0FCFB73
:1011C00000F0A4FA9420FFF785FF204600F05CF8B9
:1011D000FF2201320021024800F01DFC10BD00007A
:1011E0000000144010B50446002C17D016210CA0A6
:1011F000FFF71AF80F4801680FA0FFF715F812481B
:10120000016812A0FFF710F81648016A16A0FFF750
:101210000BF81448016818A0FFF706F810BD00008D
:10122000323031392E30352E3238202D205625647B
:101230000A00000008000020504C4C20434C4F4353
:101240004B20256C64200A00000000205379737441
:10125000656D436F7265436C6F636B20256C642012
:101260000A00000000020050504C4C434F4E202515
:101270006C75200A00000000505752434F4E202545
:101280006C75200A0000000010B504460021012002
:1012900000F034FC2D20FFF71DFF2088C107C90F87
:1012A000032000F02BFC2D20FFF714FF208880077F
:1012B000C10F032000F022FC2D20FFF70BFF208838
:1012C0004007C10F032000F019FC2D20FFF702FF9B
:1012D00020880007C10F032000F010FC2D20FFF72D
:1012E000F9FE2088C006C10F032000F007FC2D2066
:1012F000FFF7F0FE20888006C10F032000F0FEFB00
:101300002D20FFF7E7FE20884006C10F032000F0E4
:10131000F5FB2D20FFF7DEFE20880006C10F03201D
:1013200000F0ECFB2D20FFF7D5FE2088C005C10F93
:10133000032000F0E3FB2D20FFF7CCFE002102206C
:1013400000F0DCFB10BD00000120084908630749DC
:101350004039C8620549C8630549086203494039F4
:101360008862486208620149086270474042005042
:10137000404300500120094908614861074940394C
:10138000C863064988600549403988634863034952
:10139000C8600249803188617047000040420050B7
:1013A00003488069012109070840000F70470000C9
:1013B0000000054010B501210D4800F065FB002834
:1013C00004D00C480078401E0A49087000210848E3
:1013D00000F0B5F907480078002807D1012104483A
:1013E00000F076FB0021024800F0FCFA10BD00007E
:1013F000000004403A00002010B50021BA4800F077
:1014000027FB0221084002287ED1C2010021B648F4
:1014100000F08EF9B548006901210904081AB449A1
:101420000880B4480078401CB2490870B048008871
:1014300032280BDDAE4800885A2807DAAE4800781B
:10144000401CAD4908700020AC490870A8480088CD
:101450005A280DDDA6480088FF212D31884207DA81
:10146000A6480078401CA54908700020A2490870D1
:101470009F480088FF215F31884248DD9E48007800
:10148000082811DB9E4800884005C00F00280BD1BA
:101490009B480088012189028843401898490880A8
:1014A0000020984908700AE093480078032806DB7A
:1014B000934800880121C9028843914908808F48D8
:1014C000007808280EDB8E4800888005C00F0028B1
:1014D00008D18B4800880121490288434018884977
:1014E00008800BE085480078032807DB84480088E3
:1014F0000121C902884340188149088000207E49A3
:1015000008707E49087000E07FE07A4908707C48E6
:1015100000884005C00F002877D075480088FF215B
:101520005F31884271DD77480078030000F0FEFDEE
:101530000A0607132231404F5E6E7DA69EE0704979
:1015400009880905C80F6E490988490849000143FF
:101550006B4A118092E06A4909880905C90F490060
:101560000222114008466649098891430143644AB2
:10157000118083E0624909880905C90F89000422A6
:10158000114008465E490988914301435C4A118035
:1015900074E05B4909880905C90FC9000822114098
:1015A00008465749098891430143554A118065E02F
:1015B000534909880905C90F09011022114008463D
:1015C0004F490988914301434D4A118056E04C49E7
:1015D00009880905C90F49012022114008464849D8
:1015E000098891430143464A118047E044490988EC
:1015F0000905C90F89014022114008464049098860
:10160000914301433E4A118038E06BE03C49098830
:101610000905C90FC90180221140084638490988C7
:1016200091430143364A118028E03549098809056C
:10163000C90F0902FF2201321140084630490988CA
:10164000914301432E4A118000F02EFC2E49088060
:1016500008460088002810D1294800880121890205
:1016600088432749088000202649087024480088BC
:101670000121490288432249088000BF00BF204859
:1016800000888005C00F002811D01D480088012166
:10169000890288431A49088000201A4908701848AE
:1016A0000088012149028843154908801AE015483D
:1016B0000078092805DA13480078401C11490870A1
:1016C00010E00F4800880121890288430C490880F6
:1016D00000200C4908700A4800880121490288430B
:1016E0000749088010BD00000000144000021440AB
:1016F0004E0000204C00002048000020490000203F
:10170000460000204A00002052000020002004492A
:10171000087004490870044908700449088070473B
:1017200048000020490000204A0000204600002018
:1017300010B513468B409524A400235010BD4A08D1
:101740005300FF2201329A40E8231A5070470000EC
:10175000FFB583B004460E4601253048009030485E
:10176000844205D12F48406B29040840029005E0CF
:101770002C48406B0121490408400290029800283F
:1017800003D1FFF75DF9074603E000F085FA26482C
:1017900007687D21C9003846FEF766FE0746012529
:1017A0001BE02249694308463946FEF75DFE019079
:1017B0000599019888420DD201200003854200D18D
:1017C0000FE0681C1949414301987843814200D8D1
:1017D00007E000E005E0681C85B2012000038542B7
:1017E000DFDD00BF681E81B20D4670088200204612
:1017F0001430815060687200032191408843720068
:1018000001219140084360607108CA0021463031CF
:1018100000988850019807B0F0BD0000FFFF00005D
:1018200000000440000200500000002040420F0071
:10183000FFB585B004460D46012659480290594827
:10184000844205D15848406B31040840049005E0BB
:101850005548406B01214904084004900498002831
:1018600003D1FFF7EDF8039004E000F015FA4F48BC
:1018700000680390012612E007990398FEF7F4FD33
:1018800031460190FEF7F0FD0746012109048F4221
:1018900000D902E0B8B2029004E0701C86B244485D
:1018A0008642E9DB00BF701C029A50430146039850
:1018B000FEF7DAFD0746701E81B20E466808820008
:1018C00020461430815060686A00032191408843AB
:1018D0006A0001219140084360600298401E81B275
:1018E0006808C200204630300291815008980028D4
:1018F0002ED0029A521C0899514308466421FEF7E3
:10190000B3FD401EAA00214650318850B020005936
:101910006A00284991408843B0210851B0200059FD
:101920006900103101228A401043B0210851B420CF
:1019300001596A001F4890408143B4200151005969
:101940006900103102228A401043B421085124E07A
:101950000021AA00204650308150B02001596A0071
:10196000144890408143B020015100596900012280
:101970008A401043B0210851B42000596A000D4933
:1019800091408843B4210851B420005969001031B6
:1019900002228A401043B4210851384609B0F0BDF4
:1019A000FFFF000000000440000200500000002083
:1019B000FF0F00000300030010B525231B011B5877
:1019C00014468C40A34325242401235010BD00005D
:1019D000E0221258024B8B409A43E0231A50704782
:1019E0000000010110B5E02212584B085C00FF23F3
:1019F0000133A3409A43E0231A5010BD0122520242
:101A000012580A4301235B021A501A1D12580A4346
:101A10001B1D1A50704710B525231B011B58144677
:101A20008C40234325242401235010BDD822125872
:101A30000A43D8231A50704730B5E0231B584C088E
:101A40006500FF240134AC402343E024235030BD23
:101A500010B50246952080008058FF2301338B404B
:101A60001840002801D0012000E00020400095230C
:101A70009B009B5801248C402340002B01D0012364
:101A800000E00023184310BD10B50246E82080583E
:101A90004B085C00FF230133A3401840002801D00D
:101AA000012010BD0020FCE730B5024600200CE00C
:101AB000012383400B40002B06D0136A44086500C5
:101AC0000124AC4023431362401C0628F0D330BDF0
:101AD00030B5024600200DE0012383400B40002B6F
:101AE00007D0002543085B001824634314463034B4
:101AF000E550401C0628EFD330BD000070B5054608
:101B00000C46012D06D0022D0ED0032D17D0042D2A
:101B100033D128E00B202549087025482549086065
:101B20000A202549086028E00B20204908704B2036
:101B3000C001204908600A201F4908601DE00620F6
:101B40001A490870002C06D119481A4908600A2061
:101B50001949086006E04B20C001164908600A20B8
:101B60001549086009E0012010490870134811491F
:101B7000086064201049086000BF00BF0E48036879
:101B80000C48026800210E48FFF752FE0022114661
:101B90000B48FFF751FF01210948FFF785FF00BF00
:101BA000024800780028FBD170BD00003A000020F8
:101BB0004C3600003C00002040000020C40900001A
:101BC00000000440010E05221207891889680122CD
:101BD00082401143020E05231B07D2189160010EAB
:101BE0001A4689188A68012181408A43010EC91862
:101BF0008A60704710B50446184802780078401C87
:101C0000164B18701648845400211A4612788154D5
:101C100018460078401C102803D20A2C01D0002C52
:101C200019D100220E490420FEF7C2FA002803D081
:101C300000200A49087010BD002304E00849C85C70
:101C400000F010F85B1C054800788342F6DB0020AA
:101C50000249087000BF00BFEDE70000340000201B
:101C60006400002000BF0B4989690122D2051140A0
:101C70000029F8D1074908600A280AD100BF0549A0
:101C800089690122D20511400029F8D10D21014AAC
:101C9000116070470000054070B5FEF755FE114910
:101CA00008601148006945076D0F022D03D0A80098
:101CB0000E490C5801E00B4804680B488069000786
:101CC000000F461C31462046FEF7CEFB084908604F
:101CD0000849074800684A108018FEF7C5FB064906
:101CE000086070BD08000020000200500C000020B9
:101CF0000000002040420F00040000207047000058
:101D000001200F4988620F480088002804DD0D4833
:101D10000088401E0B4908800B480088002804DD1D
:101D200009480088401E08490880084800880028A3
:101D300004DD06480088401E044908807047000002
:101D40000000014056000020580000205A000020EA
:101D500001200649886006480088002804DD044800
:101D60000088401E024908807047000000001140B2
:101D70005C000020214840690721090308431F49EE
:101D8000486108468068082108431C4988601C484F
:101D9000006A890408431A4908620846006A000A72
:101DA000000208620846006A0B21084314490862D1
:101DB0007D20000148620846006A49030843104933
:101DC0000862012088620920012181400D4A1160CA
:101DD00000BF0B48006A01218906084308490862D0
:101DE0000846006A89030843054908620846006AF4
:101DF00001210904084302490862704700020050AB
:101E00000000014000E100E0244840690721090486
:101E100088432249486108464069090208431F492E
:101E2000486108468068102108431C4988601C48A6
:101E30000068890408431A49086008460068000AD7
:101E4000000208600846006805210843144908603C
:101E5000502048600846006849030843104908605C
:101E6000012088600A20012181400E4A116000BFD4
:101E70000B480068012189060843094908600846A3
:101E80000068890308430649086008460068012184
:101E9000090408430249086070470000000200502E
:101EA0000000114000E100E008B537490988C90782
:101EB000C90F354A12889207D20F8918324A128800
:101EC0005207D20F8918304A12881207D20F891888
:101ED0002D4A1288D206D20F89182B4A12889206F0
:101EE000D20F8918284A12885206D20F8918264A1A
:101EF00012881206D20F8818C10F0918491049001C
:101F0000411A214A1288D205D20F914201D10122F1
:101F100000E00022009269460878002827D01A487D
:101F20000088C007C00FC0431849086316480088DE
:101F30008007C00FC04315494039C8621248008865
:101F40004007C00FC04388620F4800880007C00FD9
:101F5000C04348620C480088C006C00FC0430862F6
:101F60000846006900280BD00020086108E00748F7
:101F700040380069012803D0012004494039086134
:101F80006846007808BD000046000020404200502E
:101F900010B500237D22D20019461548FFF7D8FB63
:101FA00001211348FFF780FD01211148FFF726FDAD
:101FB000104840680121090608430E494860084658
:101FC00040680121090408430A4948608A15002134
:101FD0000748FFF720FD172001218140064A1160C4
:101FE00000BF00BF0248803000690028FAD010BD51
:101FF000000014400002144000E100E010B5144855
:10200000FEF7A6FB0022012149041148FEF7D4FD8A
:102010001048FFF7D7FD05200007006B0421884317
:102020000521090708630846006B042108430521C0
:10203000090708630848006A402188430649086286
:102040000846006A402108430349086210BD0000A9
:10205000110010B3110000084000005010B5052019
:102060000007006B01210903884305210907086364
:102070000846006B0121090308430521090708638D
:102080001548406AFF21013188431349486264239F
:10209000124A00211248FFF7CBFB01211048FFF73D
:1020A000C5FC00210E48FFF79DFC00210C48FFF7FE
:1020B0008FFC1620012181400A4A116000BF0848A8
:1020C000C0304069012108430549C0314861012100
:1020D0000348FFF7E9FC10BD40000050C832000083
:1020E0000000044000E100E010B50120FEF724FCF0
:1020F0000120FEF7A5FD0A48FEF7E0FC1820FEF7D8
:1021000095FD0848FEF724FB002211460548FEF71E
:1021100053FD0548FFF756FDFFF7BEFD10BD00005B
:1021200080F0FA02100000B31000000830B47446CA
:10213000641E2578641CAB4204D3635D5B00E31826
:1021400030BC18471D46F8E730380A2801D2012074
:102150007047002070470000002206491820FEF753
:1021600027F8002804D100BFFFF71AF90028FBD098
:1021700000BFFEE72600020001460020C043704772
:1021800070B504460D462046FFF734FD204670BD6D
:1021900000BF06E05920FE4908601620086088202C
:1021A0000860FB4800680128F4D100BFFFF79CFFDE
:1021B000FFF7E0FDFFF728FEFFF750FFFFF71EFFD8
:1021C00000BF0020F249086000BFFFF7E1FE0120D8
:1021D000FFF708F80020FEF779FFEE4800680028B6
:1021E00002D1FFF7B1F801E0FFF7C4F802E2E948D5
:1021F000006800280AD1E84800880028F6D1FEF7D8
:1022000073FFFF209130E4490880F3E1E148C069A1
:1022100000287DD0DF48C06801287AD1DD494031EF
:102220000A69012191430846DC49098849084900A7
:102230000143DA4A1180D74940314969C94349000D
:10224000022211400846D549098891430143D34AE7
:102250001180D04940318968C94389000422114066
:102260000846CE49098891430143CC4A1180C949A7
:102270004031C968C943C900082211400846C7490E
:10228000098891430143C54A1180C249C031896917
:10229000C9430901102211400846C04909889143E9
:1022A0000143BE4A11801046008820218843114610
:1022B0000880084600884021884311460880084667
:1022C000008880218843114608801288D207D20FE7
:1022D0000B461B889B07DB0FD2180B461B885B073E
:1022E000DB0FD2180B461B881B07DB0FD2180B46DF
:1022F0001B88DB06DB0FD2180B461B889B06DB0F07
:10230000D2180B461B885B06DB0FD2180B4601E088
:1023100069E1C5E01B881B06DB0FD018C20F12183D
:1023200052105200821A1202FF2301331A40114642
:102330009A4A12889A430A43984B1A809848008810
:10234000002802D11846FEF733FF44209549088043
:10235000A0E09348008800287ED0002090490880A3
:102360008C4940310A690121914308468B4909880B
:10237000490849000143894A118086494031496929
:10238000C943490002221140084684490988914303
:102390000143824A11807F4940318968C9438900DD
:1023A0000422114008467D490988914301437B4A34
:1023B000118078494031C968C943C90008221140D9
:1023C00008467649098891430143744A118071494E
:1023D000C0318969C94309011022114008466F497B
:1023E0000988914301436D4A1180104600882021DD
:1023F00088431146088008460088402188431146DA
:102400000880084600888021884311460880128889
:10241000D207D20F0B461B889B07DB0FD2180B4647
:102420001B885B07DB0FD2180B461B881B07DB0FD3
:10243000D2180B461B88DB06DB0FD2180B461B8815
:102440009B06DB0FD2180B461B885B06DB0FD218EE
:102450000B461B881B0600E017E0DB0FD018C20FED
:10246000121852105200821A1202FF2301331A402E
:1024700011464A4A12889A430A43484B1A80184622
:10248000FEF796FE1420474908804248C06900289C
:1024900000D104E043480088002800D059E7A9E0B3
:1024A0003F4800880028FAD000203D49088039497B
:1024B00040310969C807C00F3849098849084900EF
:1024C0000143364A118033494031496949000222AB
:1024D0001140084631490988914301432F4A118030
:1024E0002C494031896889000422114008462B4953
:1024F000098891430143294A118026494031C9681E
:10250000C900082211400846244909889143014323
:10251000224A11801F49C0318969090110221140E6
:1025200008461E490988914301431C4A1180104600
:1025300000882021884311460880084600884021F1
:102540008843114608800846008880218843114648
:1025500008801288D207D20F0B461B889B07DB0F1F
:10256000D2180B461B885B07DB0FD2180B461B8863
:102570001B07DB0FD2180B461B88DB06DB0FD218BC
:102580000B461B889B06DB0FD2180B461B880BE003
:1025900000010050004200505A0000203800002086
:1025A00052000020580000205B06DB0FD2180B46BB
:1025B0001B881B06DB0FD018C20F121852105200D6
:1025C000821A1202FF2301331A4011460A4A128866
:1025D0009A430A43084B1A801846FEF7E9FD07485C
:1025E0000749088006E007480069012802D0012059
:1025F00004490861FBE50000380000208813000052
:102600005A000020004200500000000004000000BA
:102610000C00000024000000000000000400000086
:102620002C0000000000000000000000040000007A
:102630002C000000000000003031323334353637D2
:1026400038394142434445464030580030313233F6
:1026500034353637383961626364656640307800F6
:10266000802600000000002064000000040100003B
:10267000E426000064000020740400002001000033
:1026800080F0FA023200000080F0FA02008051016E
:102690000000000080F0FA02102700000000000097
:1026A0000000000000000000008051010000000058
:1026B000000000000000000000000000000000001A
:1026C000000000000000000000000000000000000A
:1026D00000000000000000000000000000000000FA
:0426E00000000000F6
:04000005000001C531
:00000001FF
