:020000040000FA
:10000000C80A00206501000085010000870100008A
:1000100000000000000000000000000000000000E0
:100020000000000000000000000000008901000046
:1000300000000000000000008B0100008D010000A6
:100040008F0100008F0100008F0100008F01000070
:100050008F0100008F0100008F0100008F01000060
:100060008F010000D9200000812100008F010000D5
:100070008F010000D9220000A91C00008F010000A0
:100080008F0100008F0100008F0100008F01000030
:100090008F0100008F01000089140000CD140000C2
:1000A0008F0100008F0100008F0100008F01000010
:1000B0008F0100008F0100008F0100008F01000000
:1000C00000F002F800F03EF80CA030C80838241800
:1000D0002D18A246671EAB4654465D46AC4201D180
:1000E00000F030F87E460F3E0FCCB6460126334274
:1000F00000D0FB1AA246AB46334318473C2A000007
:100100005C2A0000103A02D378C878C1FAD85207A6
:1001100001D330C830C101D504680C6070470000BD
:100120000023002400250026103A01D378C1FBD813
:10013000520700D330C100D50B6070471FB51FBDFB
:1001400010B510BD00F066F91146FFF7F7FF02F099
:100150008DFB00F07EF903B4FFF7F2FF03BC00F063
:1001600085F900000D480E4901600E4901600E49F5
:1001700001600E4A0E491160002101600D48804760
:100180000D480047FEE7FEE7FEE7FEE7FEE7FEE775
:100190000A480B49094A0B4B704700000001005008
:1001A00059000000160000008800000024000050E4
:1001B000A55A0000D5200000C1000000C80600209C
:1001C000C80A0020C8060020034670B502460B434B
:1001D0009B070FD10E4CE60100E008C208C91D1BA9
:1001E0009D433542F9D0D9B21170521C00290DD06F
:1001F0001B0AF8E70B78491C1370521C002B05D022
:100200000B78491C1370521C002BF3D170BD0000F9
:10021000010101010346F0B50B439B072DD1244D8D
:10022000EF01042A29D308C810C95E1B9E43121F80
:100230003E4017D0D8B2E1B2401A3106014310D186
:1002400098B2A1B2401A310401430AD11802210226
:10025000000A090A401A3102014302D1180E210E88
:10026000401AF0BDA342DCD018BA21BA884201D9A5
:100270000120F0BD0020C043F0BD002A01D10020C4
:10028000F0BD03780C78401C491C002B0DD0A34214
:100290000BD1521E09D003780C78401C491C002B4E
:1002A00003D0A34201D1521EEBD1181BF0BD0000B8
:1002B00001010101002203098B422CD3030A8B4266
:1002C00011D300239C464EE003460B433CD400224E
:1002D00043088B4231D303098B421CD3030A8B4260
:1002E00001D394463FE0C3098B4201D3CB01C01A2E
:1002F000524183098B4201D38B01C01A52414309F9
:100300008B4201D34B01C01A524103098B4201D3E6
:100310000B01C01A5241C3088B4201D3CB00C01A53
:10032000524183088B4201D38B00C01A52414308CB
:100330008B4201D34B00C01A5241411A00D20146F0
:100340005241104670475DE0CA0F00D04942031089
:1003500000D34042534000229C4603098B422DD3D8
:10036000030A8B4212D3FC22890112BA030A8B4280
:100370000CD3890192118B4208D3890192118B42CF
:1003800004D389013AD0921100E08909C3098B4254
:1003900001D3CB01C01A524183098B4201D38B0197
:1003A000C01A524143098B4201D34B01C01A52413A
:1003B00003098B4201D30B01C01A5241C3088B427F
:1003C00001D3CB00C01A524183088B4201D38B006A
:1003D000C01A5241D9D243088B4201D34B00C01AF4
:1003E0005241411A00D20146634652415B10104609
:1003F00001D34042002B00D54942704763465B1051
:1004000000D3404201B50020C046C04602BD70473F
:1004100070477047754600F025F8AE4605006946FE
:100420005346C008C000854618B020B5FFF7B0FE9F
:1004300060BC00274908B6460026C0C5C0C5C0C577
:10044000C0C5C0C5C0C5C0C5C0C5403D49008D467A
:10045000704710B50446C046C0462046FFF77BFEF5
:1004600010BD0000004870476806002001491820B0
:10047000ABBEFEE726000200704700001FB50C4C23
:100480001ECC03946C460EC4810F89006A465158F5
:10049000084A89184968C306DB0E01229A401143B5
:1004A000820F92006B469A58024BD21851601FBDC2
:1004B000E82A000000020050F3B589B00C46012084
:1004C00000045D4908620998002817D108460068B1
:1004D0000121084358490860012000F085FA0020F6
:1004E0000690564F5648874201D1022514E05348E2
:1004F000874201D104250FE002250DE04E48006837
:10050000042108434C490860102000F06DFA0120D6
:10051000C0040690494F04254A48844205D840103B
:10052000844202D90020079014E04748844206D84C
:100530004010844203D90120079064000AE0434838
:10054000844206D84010844203D303200790A400BD
:1005500000E059E00020C043039000200190029089
:1005600034E029463846FFF7A5FE0590384905983E
:1005700088422AD937490598884226D20220089015
:100580001EE0059E08994E432F48864215D3400031
:10059000864212D8A64201D9301B00E0A01B04906D
:1005A00003990498884208D204980390019508980A
:1005B00002900398002800D106E00898401C08909B
:1005C000254908988842DCD900BF6D1C212DC8D967
:1005D00007988003069908430199891E4902084338
:1005E0000299891E084314490862042000F0FCF9AE
:1005F0000798401C019A504301463846FFF75AFEBF
:10060000029948430BB0F0BD099800280BD10B4963
:100610000698884203D011480749086206E010484E
:100620000549086202E00E4803490862042000F010
:10063000DBF900F05DF8E5E70002005000805101B1
:10064000001BB70000C2EB0B00E1F50580F0FA02D9
:10065000006A1800C0E1E400010200002EC20000A0
:100660006FD60000024909680143014A11607047D2
:1006700000020050FEB5002002901AA00068009011
:100680001948046A00132040002801D00020FEBD54
:100690000120C0042040002801D0144D00E0134D7B
:1006A000012040042040002801D02846EFE7032025
:1006B00080032040800B69460A5C0192E005C00D72
:1006C000861C1F2040022040400A871C019A7A4362
:1006D0001146AA0872431046FFF7ECFD8000029015
:1006E0000298D4E701020204000200500080510188
:1006F000FEB5002002901AA0006800901948046A14
:1007000000132040002801D00020FEBD0120C004BD
:100710002040002801D0144D00E0134D012040047A
:100720002040002801D02846EFE703208003204026
:10073000800B69460A5C0192E005C00D861C1F20F3
:1007400040022040400A871C019A7A431146AA08B9
:1007500072431046FFF7AEFD800002900298D4E786
:10076000010202040002005000805101FEB5002089
:1007700002901AA0006800901948046A00132040F3
:10078000002801D00020FEBD0120C0042040002828
:1007900001D0144D00E0134D0120400420400028FA
:1007A00001D02846EFE7032080032040800B6946F4
:1007B0000A5C0192E005C00D861C1F20400220400B
:1007C000400A871C019A7A431146AA0872431046D0
:1007D000FFF770FD800002900298D4E70102020446
:1007E0000002005000805101FEB5002002901AA0C6
:1007F000006800901948046A00132040002801D0C6
:100800000020FEBD0120C0042040002801D0144D6E
:1008100000E0134D012040042040002801D028466C
:10082000EFE7032080032040800B69460A5C0192B9
:10083000E005C00D861C1F2040022040400A871C96
:10084000019A7A431146AA0872431046FFF732FD17
:10085000800002900298D4E70102020400020050D6
:100860000080510170B504462248C068102108403C
:1008700005462148844200D904462048844200D2DB
:1008800004461C480068042108431A4908601020E7
:1008900000F0AAF8174800690721084315490861C4
:1008A0000846806900090001886108460068C007A1
:1008B000C00F002805D061000020FFF7FDFD0446B1
:1008C0000AE061000120C004FFF7F6FD0446094874
:1008D000C0681021084005460121022000F010F8F0
:1008E000002D05D1034800680421884301490860B0
:1008F000600870BD0002005080F0FA0240787D016F
:1009000070B504460D461548C068102108400646DB
:1009100012480068084311490860102000F064F88C
:100920000E480069C008C000C01D0C490861084697
:100930008069000900012843886108460069C008F1
:10094000C0002043086101F093FB002E05D103484D
:100950000068102188430149086070BD0002005002
:10096000F7B584B000220023184C2546E0CDE4689A
:1009700002970196009503948403240E002C0ED058
:100980000403A40FA400124D63198403250E8405EB
:10099000E40EA5401C68AC43069D2C431C6004017A
:1009A000640F002C10D08400A40FA4006D462C59B5
:1009B000074D083D62190401650FC401E40EA5400E
:1009C0001468AC430C43146007B0F0BDD82A000093
:1009D0001802005003490969382291430143014A32
:1009E00011617047000200500146074A05E01046B9
:1009F000521E002801DC002070470448C0680840EF
:100A00008842F4D10120F7E7804F12000002005025
:100A1000F8B5002034490870344D287800900098CB
:100A20003038C0B200906D1C002708E028782E49AD
:100A3000097840182C4908706D1C781CC7B20098C2
:100A40008742F3DB28490978081100F08EFC06463E
:100A5000254909780807000F00F087FC044628782C
:100A6000B04201D05320F8BD6D1C2878A04201D0BF
:100A70005320F8E71D48467830463038C6B2092E74
:100A800001DDF01FC6B21948847820463038C4B260
:100A9000092C01DDE01FC4B230010019C7B21448AF
:100AA0000078874201D04E20DDE71048C078114918
:100AB00008700E48007948700C48407988700B48DF
:100AC00080790D4908700948C07948700748007A54
:100AD00088700648407AC8700448807A08710120FE
:100AE0000649087000BFBEE7B6000020C804002019
:100AF000B7000020B8000020BB000020C00000208C
:100B00000349088000BF024909880029FBD17047CA
:100B1000800000200349088000BF0249098800299D
:100B2000FBD170477200002010B50446FF2201324D
:100B300000210D4800F0A1FF01210B4800F090FFBB
:100B400000F038FE9420FFF7DBFF204600F00EF89F
:100B50000121054800F0B2FFFF22013200210248C6
:100B600000F0B9FF10BD00000000144010B50446AD
:100B70000021012001F022F82D20FFF7C1FF20887D
:100B8000C107C90F032001F019F82D20FFF7B8FFA6
:100B900020888007C10F032001F010F82D20FFF7F7
:100BA000AFFF20884007C10F032001F007F82D2078
:100BB000FFF7A6FF20880007C10F032000F0FEFF0B
:100BC0002D20FFF79DFF2088C006C10F032000F0F5
:100BD000F5FF2D20FFF794FF20888006C10F03202A
:100BE00000F0ECFF2D20FFF78BFF20884006C10F9F
:100BF000032000F0E3FF2D20FFF782FF208800068E
:100C0000C10F032000F0DAFF2D20FFF779FF2088C5
:100C1000C005C10F032000F0D1FF2D20FFF770FFAA
:100C20000021022000F0CAFF10BD000030B50146CF
:100C30000B12CCB20020144D2870002204E00020DA
:100C4000124DA854501CC2B2082AF8DD0120104DE4
:100C5000A8600320286228460362046200202862FC
:100C60002846006801252843094D28600520094DC4
:100C7000288000BF074800880028FBD1044DA860E9
:100C80000248C07830BD0000C900002008060020DE
:100C9000000003407800002070B500240212C3B2A7
:100CA000002A02D1002B00D100BF0125194EB560EA
:100CB0000625356235462D6801263543154E3560CB
:100CC0000125154E358000BF134D2D88002DFBD119
:100CD000104EB5600125B5600225356235462A62A1
:100CE0002B6229622D68012635430A4E35600525A1
:100CF000094E358000BF084D2D88002DFBD1054ED3
:100D0000B5600525044E358000BF034D2D88002DAC
:100D1000FBD170BD000003407800002010B5002416
:100D200006E02046FFF782FF13490855601CC4B255
:100D3000102CF6DB104800790F49C97809024018D9
:100D40000D498978090440180C4908600A488079DF
:100D50000949497909024018094908600648007A9A
:100D60000549C97909024018064908600248407AD5
:100D70000549086010BD0000CC0000202C000020B8
:100D8000300000203400002038000020F0B589B089
:100D900001200090D448007841B268460175D248DD
:100DA000407841B268464175CF48807841B2684684
:100DB0008175CE48007841B268460173CB484078CF
:100DC00041B268464173C948807841B26846817330
:100DD000C648C07841B26846C173C448007941B280
:100DE00068460174C248007801287DD1C1A108A8D5
:100DF000FFF7EAF9032208A905A8FFF70BFA002874
:100E000073D10190BC48C47ABC48008840084000B7
:100E10000121A1430843B9490880084600880221FE
:100E20008843E14349104900022211400843B34975
:100E300008800846008804218843E143891089001E
:100E4000042211400843AD49088008460088082163
:100E50008843E143C910C900082211400843A7494B
:100E600008800846008810218843E14309110901E0
:100E7000102211400843A14908800846008820211B
:100E80008843E143491149012022114008439B490D
:100E900008800846008840218843E1438911890180
:100EA0004022114008439549088008460088802167
:100EB0008843E143C911C9018022114008438F4989
:100EC00008800A461288D207D20F0B461B889B0760
:100ED000DB0FD2180B461B885B07DB0FD2180B46C3
:100EE0001B881B07DB0F01E0FAE05EE0D2180B461F
:100EF0001B88DB06DB0FD2180B461B889B06DB0F1B
:100F0000D2180B461B885B06DB0FD2180B461B88DA
:100F10001B06DB0FD018C20F121852105200821A93
:100F20001202FF2301331A401146744A12889A4371
:100F30000A43724B1A8018460088C007C00FC0438E
:100F40006F49C861184600888007C00FC043886396
:100F5000184600884007C00FC043C8631846008881
:100F60000007C00FC0436649C039C86318460088EF
:100F7000C006C00FC0438863184600888006C00FB3
:100F8000C0434863184600884006C00FC0435C4910
:100F90008039C863184600880006C00FC04358490E
:100FA0004039C86101205749087057A108A8FFF7C8
:100FB0000BF9032208A905A8FFF72CF9002873D123
:100FC00052A106A8FFF700F9052206A903A8FFF71A
:100FD00021F900280AD101204949C03908620121BC
:100FE000002000F0F9FE4B4800F04CFE4AA106A894
:100FF000FFF7EAF8052206A903A8FFF70BF9002876
:1010000045D1FFF78BFE4648007B4549C97A090266
:1010100040184349897A0904471842493846FFF77E
:1010200049F93548C07A081A3349097B884208D201
:101030003C493846FFF73EF92F48C07A081A02901B
:1010400002E02D48007B02903648874205D23801E5
:101050002949097B401A85B208E032493846FFF732
:1010600029F92548007B081A0005050C002D02D13E
:1010700028460A3085B201202149C0390862029A07
:10108000D1B2A8B200F0A8FE224800F0FBFD26A1D4
:1010900006A8FFF799F8052206A903A8FFF7BAF8F2
:1010A00000280ED1002608E00BE030460B30124934
:1010B000085C1B498855701C46B2102EF5DB00F009
:1010C00037F91BA108A8FFF77FF8032208A905A894
:1010D000FFF7A0F8002805D101200A49087001E0B7
:1010E0000348007809B0F0BDB8000020BB00002024
:1010F000C100002053455400C804002054000020C3
:10110000C0420050C20000204C4F4700524D48449E
:101110003000000000001540524D4C4F47000000C9
:10112000CC000020FF030000574D48443000000071
:1011300041434B0070B5034600200FE0012484407A
:101140000C40002C09D01C6846000325B540AC4378
:1011500046001546B5402C431C60401C1028EDD3BA
:1011600070BD0000F0B50546002600202349088028
:10117000234800682349096888423DD0002022495D
:101180000870012000F048F8044620480470012C43
:1011900001D1012000E00020022C01D1012100E05A
:1011A00000210843002827D0FF27194805801DE0AB
:1011B0001348006813490968884217D0144805800D
:1011C000012000F029F8044612480C4909884454CB
:1011D000002E02D120462D38C7B208480088401C96
:1011E00006490880781EC7B2701CC6B2084800883D
:1011F000002801D0002FDBD13046F0BDB400002024
:1012000088000020A0000020C0000020C1000020B5
:101210007A000020C804002000B501460B0001F050
:1012200017FB06041628394A5B6C354A1268107899
:10123000334A1268521C324B1A601A461368314AFC
:10124000934203D1FF3A013A2D4B1A6055E02E4AE2
:10125000126810782C4A1268521C2B4B1A601A46DE
:1012600013682A4A934203D1FF3A013A264B1A6087
:1012700043E0274A12681078254A1268521C244B12
:101280001A601A461368234A934202D1803A204BCF
:101290001A6032E0204A126810781F4A1268521C05
:1012A0001D4B1A601A4613681C4A934202D1803AB9
:1012B000194B1A6021E01A4A12681078184A12680D
:1012C000521C174B1A601A461368164A934202D1F1
:1012D000803A134B1A6010E0134A12681078124AD1
:1012E0001268521C104B1A601A4613680F4A934238
:1012F00002D1403A0C4B1A6000BF00BF00BD000095
:101300009C00002008020020A0000020080300200C
:10131000A400002088030020A8000020080400206A
:10132000AC00002088040020B0000020C804002089
:1013300010B5002406E0054A115D2046FFF7ACFC1D
:10134000601CC4B2102CF6DB10BD0000CC000020E5
:1013500001460A46CB171B0F9B181B113033D8B21E
:10136000392801DDC21DD0B2704701460A46CB17AD
:101370001B0F9B181B05180E02018A1A3032D0B2BF
:10138000392801DDC21DD0B2704700000120084994
:10139000086307494039C8620549C86305490862BE
:1013A000034940398862486208620149086270470F
:1013B000404200504043005001200849C861886302
:1013C000C8630649C039C8638863486303498039E4
:1013D000C86302494039C86170470000C0420050EC
:1013E00010B50122032189021248FFF7A3FE012252
:1013F000114910484030FFF79DFE012240210D4861
:10140000C030FFF797FE012230210C48FFF792FE13
:101410000020C0430A49886109498039C860886052
:1014200048600649C0318862C86205498031086158
:10143000486110BD004000500E10000040410050B7
:10144000C042005010B5FFF769FC00200249086057
:1014500001200249087010BD3C000020420000201D
:10146000C206D20E01219140014A1160704700006E
:1014700080E100E0C206D20E01219140014A1160D4
:101480007047000000E100E010B501210D4800F0B8
:101490005BFB002804D00C480078401E0A49087005
:1014A0000021084800F09FF907480078002807D17C
:1014B0000121044800F06CFB0021024800F0F2FA20
:1014C00010BD0000000004405600002010B50021AF
:1014D000AF4800F01DFB02210840022878D1C2016C
:1014E0000021AB4800F078F9AA48006901210904FD
:1014F000081AA9490880A9480078401CA749087023
:10150000A548008832280BDDA34800885A2807DA4E
:10151000A3480078401CA24908700020A149087027
:101520009D4800885A280DDD9B480088FF212D31F9
:10153000884207DA9B480078401C9A4908700020CE
:101540009749087094480088FF215F3188425FDD29
:1015500093480078082811DB934800884005C00FA5
:1015600000280BD190480088012189028843401847
:101570008D49088000208D49087016E08848007861
:10158000032812DB884800884005C00F00280CD0D3
:10159000854800888005C00F002806D18248008851
:1015A0000121C9028843804908807E4800780828C4
:1015B0000FDB7D4800888005C00F002809D17A48DC
:1015C000008801214902884340187749088018E0C3
:1015D0009CE074480078032813DB734800884005BA
:1015E000C00F00280DD0704800888005C00F00286B
:1015F00007D16D4800880121C902884340186A4913
:1016000008800020664908706649087063490870C0
:10161000654800884005C00F002877D05E480088E4
:10162000FF215F31884271DD60480078030001F0DE
:101630000FF90A0607132231404F5E6E7D978FE047
:10164000594909880905C80F5749098849084900B7
:101650000143554A118083E0534909880905C90FA0
:1016600049000222114008464F490988914301432D
:101670004D4A118074E04C4909880905C90F890059
:101680000422114008464849098891430143464ACB
:10169000118065E0444909880905C90FC90008227D
:1016A0001140084640490988914301433E4A118050
:1016B00056E03D4909880905C90F0901102211406A
:1016C00008463949098891430143374A118047E068
:1016D000354909880905C90F4901202211400846EA
:1016E00031490988914301432F4A118038E02E493E
:1016F00009880905C90F89014022114008462A4975
:10170000098891430143284A118029E03EE0264997
:1017100009880905C90FC9018022114008462249DC
:10172000098891430143204A118019E01E49098824
:101730000905C90F0902FF220132114008461A4962
:10174000098891430143184A118000F021FF18498C
:10175000088008460088002801D100F02BF800BF5F
:1017600000BF114800888005C00F002802D000F09B
:1017700021F80BE00D480078092805DA0B480078BD
:10178000401C0A49087001E000F014F810BD000088
:1017900000001440000214406A000020680000208D
:1017A0006400002065000020620000206600002028
:1017B0006E000020002004490870044908700449A4
:1017C000087004490880704764000020650000200C
:1017D000660000206200002010B513468B4095245F
:1017E000A400235010BD4A085300FF2201329A4042
:1017F000E8231A5070470000FFB583B004460E4638
:101800000125304800903048844205D12F48406B74
:1018100029040840029005E02C48406B012149044E
:10182000084002900298002803D1FEF79FFF074668
:1018300003E000F01DFC264807687D21C9003846FA
:10184000FEF738FD074601251BE02249694308469B
:101850003946FEF72FFD01900599019888420DD277
:1018600001200003854200D10FE0681C1949414363
:1018700001987843814200D807E000E005E0681C49
:1018800085B2012000038542DFDD00BF681E81B202
:101890000D46700882002046143081506068720046
:1018A0000321914088437200012191400843606008
:1018B0007108CA002146303100988850019807B05D
:1018C000F0BD0000FFFF00000000044000020050D7
:1018D0000000002040420F00FFB585B004460D46D1
:1018E0000126594802905948844205D15848406B16
:1018F00031040840049005E05548406B012149043B
:10190000084004900498002803D1FEF72FFF0390AD
:1019100004E000F0ADFB4F4800680390012612E0A0
:1019200007990398FEF7C6FC31460190FEF7C2FC0A
:101930000746012109048F4200D902E0B8B20290A3
:1019400004E0701C86B244488642E9DB00BF701C8C
:10195000029A504301460398FEF7ACFC0746701EFE
:1019600081B20E46680882002046143081506068BB
:101970006A000321914088436A0001219140084395
:1019800060600298401E81B26808C2002046303074
:1019900002918150089800282ED0029A521C089972
:1019A000514308466421FEF785FC401EAA002146EB
:1019B00050318850B02000596A002849914088432E
:1019C000B0210851B02000596900103101228A402D
:1019D0001043B0210851B42001596A001F489040BB
:1019E0008143B420015100596900103102228A401C
:1019F0001043B421085124E00021AA0020465030B1
:101A00008150B02001596A00144890408143B020B1
:101A100001510059690001228A401043B021085148
:101A2000B42000596A000D4991408843B4210851FF
:101A3000B42000596900103102228A401043B421B9
:101A40000851384609B0F0BDFFFF00000000044017
:101A50000002005000000020FF0F00000300030000
:101A60000122520212588A4301235B021A501A1DA6
:101A700012588A431B1D1A50704710B525231B01AD
:101A80001B5814468C40A34325242401235010BD29
:101A9000E0221258024B8B409A43E0231A507047C1
:101AA0000000010110B5E02212584B085C00FF2332
:101AB0000133A3409A43E0231A5010BD0122520281
:101AC00012580A4301235B021A501A1D12580A4386
:101AD0001B1D1A50704710B525231B011B581446B7
:101AE0008C40234325242401235010BDD8221258B2
:101AF0000A43D8231A50704730B5E0231B584C08CE
:101B00006500FF240134AC402343E024235030BD62
:101B100010B50246952080008058FF2301338B408A
:101B20001840002801D0012000E00020400095234B
:101B30009B009B5801248C402340002B01D00123A3
:101B400000E00023184310BD10B50246E82080587D
:101B50004B085C00FF230133A3401840002801D04C
:101B6000012010BD0020FCE730B5024600200CE04B
:101B7000012383400B40002B06D0136A4408650004
:101B80000124AC4023431362401C0628F0D330BD2F
:101B900030B5024600200DE0012383400B40002BAE
:101BA00007D0002543085B001824634314463034F3
:101BB000E550401C0628EFD330BD000070B5054647
:101BC0000C46012D06D0022D0ED0032D17D0042D6A
:101BD00033D128E00B2025490870254825490860A5
:101BE0000A202549086028E00B20204908704B2076
:101BF000C001204908600A201F4908601DE0062036
:101C00001A490870002C06D119481A4908600A20A0
:101C10001949086006E04B20C001164908600A20F7
:101C20001549086009E0012010490870134811495E
:101C3000086064201049086000BF00BF0E480368B8
:101C40000C48026800210E48FFF746FE00221146AC
:101C50000B48FFF751FF01210948FFF785FF00BF3F
:101C6000024800780028FBD170BD0000560000201B
:101C70004C360000580000205C000020C409000021
:101C80000000044010B5044600BFA0690121890589
:101C900008400028F9D00220FEF73CFF002001494F
:101CA000086210BD0042005010B509E016490969EC
:101CB000CAB216490878411C144B197014490A54C9
:101CC000114840304068012109060840000E0028F4
:101CD000ECD020210C4800F01DF8002813D009E0BA
:101CE00009490969CAB209490878411C074B1970AA
:101CF00007490A5404484030406801210906084059
:101D0000000E0028ECD010BD00000340C9000020E8
:101D10000806002010B502460020CB07DB0F002B81
:101D200007D01368012424042340002B01D0012391
:101D3000184302230B40002B07D0D36B0124E4028D
:101D40002340002B01D00223184304230B40002B17
:101D500006D0536C10242340002B01D004231843D9
:101D600008230B40002B06D0536CDB07DB0F002B46
:101D700001D00823184310230B40002B06D0536CCE
:101D800004242340002B01D01023184320230B40B0
:101D9000002B07D0536C012424052340002B01D0D5
:101DA0002023184310BD010E0522120789188968E7
:101DB000012282401143020E05231B07D2189160B5
:101DC000010E1A4689188A68012181408A43010E52
:101DD000C9188A6070470000F3B5D3B0002612E03E
:101DE00000270CE032015399891AC91988B2FEF70D
:101DF0001DFF310102AA8918C855781CC7B2102FDF
:101E0000F0DB701CC6B254988642E9DB549800019E
:101E10003A30C0B2529005242146424800F0A0FB5F
:101E20004048529900F09CFB00253F480078FFF79E
:101E30008FFA044621463B4800F092FB2819C5B2B0
:101E400039480078FFF791FA04462146354800F0FA
:101E500087FB2819C5B241242146324800F080FB97
:101E60002819C5B2432421462E4800F079FB2819D1
:101E7000C5B24B2421462B4800F072FB2819C5B28D
:101E80002A4804782146274800F06AFB2819C5B281
:101E9000264844782146234800F062FB2819C5B241
:101EA0002248847821461F4800F05AFB2819C5B201
:101EB0001E48C47821461B4800F052FB2819C5B2C1
:101EC0001A4804792146174800F04AFB2819C5B280
:101ED000002611E000270BE0300102A94018C45D84
:101EE0002146104800F03CFB2819C5B2781CC7B247
:101EF000102FF1DB701CC6B254988642EADB2846EC
:101F0000FFF726FA01460190064800F029FB284613
:101F1000FFF72BFA01460190024800F021FB55B073
:101F2000F0BD000000001540B7000020BB000020FD
:101F3000F8B500264A484069C0013043484909695C
:101F4000890108434749C96A490108434549896AE3
:101F500009010843434940314968C90008434149E0
:101F600040318968890008433E494031C9684900C9
:101F700008433B4980398969084306463B270224C8
:101F80002146394800F0ECFA3946374800F0E8FAC3
:101F9000002536480078FFF7DBF904462146324831
:101FA00000F0DEFA2819C5B230480078FFF7DDF9F5
:101FB000044621462C4800F0D3FA2819C5B2532410
:101FC0002146294800F0CCFA2819C5B245242146FB
:101FD000254800F0C5FA2819C5B2542421462248E4
:101FE00000F0BEFA2819C5B2492421461E4800F067
:101FF000B7FA2819C5B24F2421461B4800F0B0FAA1
:102000002819C5B253242146174800F0A9FA281907
:10201000C5B254242146144800F0A2FA2819C5B2CA
:1020200053242146104800F09BFA2819C5B2F4B297
:1020300021460D4800F094FA2819C5B22846FFF74A
:1020400087F901460090084800F08AFA2846FFF711
:102050008CF901460090044800F082FAF8BD0000B7
:10206000404300500042005000001540B7000020DF
:1020700070B5FEF7FFFA114908601148006945077D
:102080006D0F022D03D0A8000E490C5801E00B483B
:1020900004680B4880690007000F461C3146204643
:1020A000FEF708F9084908600849074800684A101F
:1020B0008018FEF7FFF80649086070BD0800002090
:1020C000000200500C0000200000002040420F00E1
:1020D0000400002070470000012021498862214847
:1020E0000088002804DD1F480088401E1D49088024
:1020F0001D480088002804DD1B480088401E1A493E
:1021000008801A480088002804DD18480088401E0E
:102110001649088016480088002804DD1448008805
:10212000401E1349088013480088002804DD114828
:102130000088401E0F4908800F480088002804DDF1
:102140000D480088401E0C4908800C480088002873
:1021500004DD0A480088401E0849088070470000D6
:102160000000014072000020740000207600002072
:10217000780000207A0000207C0000207E000020F3
:1021800001200649886006480088002804DD0448CC
:102190000088401E0249088070470000000011407E
:1021A00080000020214840690721090308431F4996
:1021B000486108468068082108431C4988601C481B
:1021C000006A890408431A4908620846006A000A3E
:1021D000000208620846006A0B210843144908629D
:1021E0007D20000148620846006A490308431049FF
:1021F0000862012088620920012181400D4A116096
:1022000000BF0B48006A012189060843084908629B
:102210000846006A89030843054908620846006ABF
:102220000121090408430249086270470002005076
:102230000000014000E100E0244840690721090452
:1022400088432249486108464069090208431F49FA
:10225000486108468068102108431C4988601C4872
:102260000068890408431A49086008460068000AA3
:102270000002086008460068052108431449086008
:102280005020486008460068490308431049086028
:10229000012088600A20012181400E4A116000BFA0
:1022A0000B4800680121890608430949086008466F
:1022B0000068890308430649086008460068012150
:1022C00009040843024908607047000000020050FA
:1022D0000000114000E100E0FF20134AD169D269FB
:1022E000431C1A40002A1BD013E00F4A1268D0B2D8
:1022F0000E4A126810700D4A1268521C0B4B1A607D
:102300001A4613680A4A934203D1FF3A013A074B2F
:102310001A60054A926901239B031A40002AE4D0FF
:10232000014AD26970470000000015408800002073
:102330000803002070B504460D466068A84360603D
:102340001348844203D10C20FFF78AF81EE011489D
:10235000844203D10D20FFF783F817E00E48844232
:1023600003D10C20FFF77CF810E00C48844203D125
:102370000F20FFF775F809E00948844203D11020C7
:10238000FFF76EF802E01120FFF76AF870BD000059
:102390000000054000001540004015400040054089
:1023A0000080054070B504460D46606828436060B3
:1023B0001348844203D10C20FFF75CF81EE011485B
:1023C000844203D10D20FFF755F817E00E488442F0
:1023D00003D10C20FFF74EF810E00C48844203D1E3
:1023E0000F20FFF747F809E00948844203D1102085
:1023F000FFF740F802E01120FFF73CF870BD000045
:102400000000054000001540004015400040054018
:102410000080054010B51A48FEF730F8002211463A
:102420001748FEF79DFA05200007406B30218843CE
:102430000521090748630846406B30210843052100
:10244000090748630F48FFF7AEFCE12149020E4837
:1024500000F02AF801210C48FFF7A4FF0D2001210C
:1024600081400A4A116000BF09480A4908600A49C8
:1024700008600A480A4908600A49086010BD00005F
:10248000113D8057110000040000154000E100E0FC
:1024900008010020840000209C0000200802002089
:1024A00088000020A0000020F0B587B004460D464B
:1024B000274801460EC9C06803AE0EC6069000202C
:1024C000029024484069032109060840060E21486D
:1024D00080690F2109020840070A002020630320B9
:1024E000E060A0681C490840A060012E04D1FEF7FE
:1024F0007BF9B10003AA5050002D26D0B10003AAE9
:102500005058791CFDF7D6FE6908401829460190FD
:10251000FDF7D0FE801E02901049029888420FD924
:10252000B10003AA5058791CFDF7C4FEE900401819
:1025300029460190FDF7BEFE0009801E606204E09E
:102540000321090702980843606207B0F0BD00004C
:10255000082B0000000200500FFFF0FFFFFF0000FB
:1025600010B50A46002105E0491C0123DB0799420A
:1025700000D905E083690124E4052340002BF3D151
:1025800000BF0123DB07994200D2026010BD0000AA
:1025900008B545490988C907C90F434A12889207F7
:1025A000D20F8918404A12885207D20F89183E4A22
:1025B00012881207D20F89183B4A1288D206D20F0E
:1025C0008918394A12889206D20F8918364A128819
:1025D0005206D20F8918344A12881206D20F881870
:1025E000C10F091849104900411A2F4A1288D20513
:1025F000D20F914201D1012200E0002200926946EF
:102600000878002843D028480088C007C00FC0437E
:1026100026498861244800888007C00FC0432349A9
:102620008039C860204800884007C00FC0438860D8
:102630001D4800880007C00FC04348601A48008842
:10264000C006C00FC0431949C039886216480088C7
:102650008006C00FC043C862134800884006C00F00
:10266000C0431249803108610F4800880006C00F3E
:10267000C043486101200E4908700C488038006B47
:1026800001280DD0012009498039086308E0074876
:102690008038006B002803D000200449803908638B
:1026A0006846007808BD000062000020C04200506B
:1026B000C200002010B500237D22D2001946154823
:1026C000FFF79AF801211348FFF74EFA012111484C
:1026D000FFF7F4F9104840680121090608430E4944
:1026E0004860084640680121090408430A494860D7
:1026F0008A1500210748FFF7EEF9172001218140D4
:10270000064A116000BF00BF0248803000690028FF
:10271000FAD010BD000014400002144000E100E0B7
:1027200010B51448FDF7AAFE002201214904114802
:10273000FEF716F91048FFF736FB05200007006B7F
:10274000042188430521090708630846006B04211A
:1027500008430521090708630848006A40218843A7
:10276000064908620846006A402108430349086296
:1027700010BD0000110010B311000008400000500F
:1027800010B505200007006B0121090388430521CE
:10279000090708630846006B012109030843052166
:1027A000090708631548406AFF210131884313492E
:1027B00048626423124A00211248FFF78DF8012174
:1027C0001048FFF793F900210E48FFF76BF900213D
:1027D0000C48FFF75DF91620012181400A4A11607B
:1027E00000BF0848C0304069012108430549C03195
:1027F000486101210348FFF7B7F910BD40000050C0
:10280000C83200000000044000E100E010B50120E3
:10281000FDF728FF0120FEF7E7F80A48FEF722F847
:102820001820FEF7D7F80848FDF728FE00221146C9
:102830000548FEF795F80548FFF7B5FAFFF718FCCD
:1028400010BD000080F0FA02100000B31000000874
:1028500030B47446641E2578641CAB4204D3635DB7
:102860005B00E31830BC18471D46F8E7002500BFA1
:1028700006E059208E49086016200860882008600C
:102880008B4800680128F4D100BFFFF7BFFFFFF7B6
:1028900089FCFFF7D1FCFFF773FFFFF741FFFFF75C
:1028A000B9FD00BF00208249086000BFFFF702FFAA
:1028B00080480068002802D1FEF768FD03E0FEF7BB
:1028C0007BFDFEF78DFD01207A4908610020C8607C
:1028D0000846C068012802D06420774908807748FC
:1028E000FFF7D0F90120764908700020754908707B
:1028F0007049C031C8618863C8636E49C863886322
:1029000048636C494031C8636A498031C86169498C
:10291000C031886167494031C86088604860654956
:102920008862C862684908614861FF20F530FEF797
:10293000F1F8012064498039C8618863C8635D4942
:10294000C863886348635B494031C8635949803133
:10295000C861FEF777FDAAE01420FEF703FC0446E9
:10296000002C06D0FEF754F80546012D01D1FEF7E4
:102970000DFA5048C068012861D1544800880028E9
:102980001FD101214D48FFF7D5FC5148FEF7CCF887
:1029900001214A48FFF706FD4A48007800280AD07E
:1029A000012044490862FFF7C3FA00204549087036
:1029B0004248FFF767F9FEF713FD00203D4940311B
:1029C000086344204349088034E0404800880028D8
:1029D00030D01420FEF7C6FB0446002C06D0FEF7CC
:1029E00017F80546012D01D1FEF7D0F9002037492F
:1029F000088001213148FFF79DFC3548FEF794F827
:102A000001212E48FFF7CEFC2E48007800280AD07E
:102A1000012028490862FFF78BFA00202949087035
:102A20002648FFF72FF914202A4908800120214960
:102A30004031086327480088002838D0C5E723487C
:102A40000088002815D000202049088001211B485B
:102A5000FFF770FC1E48FEF767F801211748FFF7E3
:102A6000A1FC642014490880012012494031086308
:102A70000EE01148008800280AD1FEF79BFE642072
:102A80000D49088000200B4940310863FEF7A8FC7F
:102A90000C48007800280AD0012006490862FFF798
:102AA00047FA0020074908700448FFF7EBF853E79E
:102AB0000001005000420050780000200000154046
:102AC000B7000020C2000020404300506E000020EC
:102AD00054000020740000200000000004000000EA
:102AE0000C000000240000000000000004000000B2
:102AF0002C000000000000000000000004000000A6
:102B00002C000000000000000080510100000000C7
:102B10000000000000805101008051010000000011
:102B20000000000000805101008051010000000001
:102B30000000000000805101582B00000000002020
:102B4000CC00000004010000242C0000CC00002078
:102B5000FC0900002001000080F0FA0232000000B1
:102B600080F0FA02008051010000000080F0FA02BB
:102B7000102700000000000000000000000000001E
:102B80000080510100000000000000000000000073
:102B9000000000000000000000000000020202022D
:102BA000023C3C3C0000000000000000000000006F
:102BB0000000000000000000000000000000000015
:102BC0000000000000000000000000000000000005
:102BD00000000000000000000000000000000000F5
:102BE00000000000000000000000000000000000E5
:102BF00000000000000000000000000000000000D5
:102C000000000000000000000000000000000000C4
:102C100000000000000000000000000000000000B4
:042C200000000000B0
:040000050000016591
:00000001FF
